{
    "_format": "hh-sol-artifact-1",
    "contractName": "Profiles",
    "sourceName": "contracts/social/Profiles.sol",
    "abi": [
        {
            "anonymous": false,
            "inputs": [
                {
                    "indexed": false,
                    "internalType": "uint8",
                    "name": "version",
                    "type": "uint8"
                }
            ],
            "name": "Initialized",
            "type": "event"
        },
        {
            "anonymous": false,
            "inputs": [
                {
                    "indexed": true,
                    "internalType": "address",
                    "name": "previousOwner",
                    "type": "address"
                },
                {
                    "indexed": true,
                    "internalType": "address",
                    "name": "newOwner",
                    "type": "address"
                }
            ],
            "name": "OwnershipTransferred",
            "type": "event"
        },
        {
            "anonymous": false,
            "inputs": [
                {
                    "indexed": true,
                    "internalType": "address",
                    "name": "_address",
                    "type": "address"
                },
                {
                    "indexed": false,
                    "internalType": "address",
                    "name": "_pfpAddress",
                    "type": "address"
                },
                {
                    "indexed": false,
                    "internalType": "uint256",
                    "name": "_pfpTokenId",
                    "type": "uint256"
                },
                {
                    "indexed": false,
                    "internalType": "string",
                    "name": "_profileData",
                    "type": "string"
                }
            ],
            "name": "ProfileChanged",
            "type": "event"
        },
        {
            "inputs": [],
            "name": "deleteProfile",
            "outputs": [],
            "stateMutability": "nonpayable",
            "type": "function"
        },
        {
            "inputs": [],
            "name": "initialize",
            "outputs": [],
            "stateMutability": "nonpayable",
            "type": "function"
        },
        {
            "inputs": [],
            "name": "owner",
            "outputs": [
                {
                    "internalType": "address",
                    "name": "",
                    "type": "address"
                }
            ],
            "stateMutability": "view",
            "type": "function"
        },
        {
            "inputs": [
                {
                    "internalType": "address",
                    "name": "_address",
                    "type": "address"
                }
            ],
            "name": "pfpOf",
            "outputs": [
                {
                    "internalType": "address",
                    "name": "",
                    "type": "address"
                },
                {
                    "internalType": "uint256",
                    "name": "",
                    "type": "uint256"
                }
            ],
            "stateMutability": "view",
            "type": "function"
        },
        {
            "inputs": [
                {
                    "internalType": "address",
                    "name": "",
                    "type": "address"
                }
            ],
            "name": "profiles",
            "outputs": [
                {
                    "internalType": "address",
                    "name": "pfpAddress",
                    "type": "address"
                },
                {
                    "internalType": "uint256",
                    "name": "pfpTokenId",
                    "type": "uint256"
                },
                {
                    "internalType": "string",
                    "name": "profileData",
                    "type": "string"
                }
            ],
            "stateMutability": "view",
            "type": "function"
        },
        {
            "inputs": [],
            "name": "renounceOwnership",
            "outputs": [],
            "stateMutability": "nonpayable",
            "type": "function"
        },
        {
            "inputs": [
                {
                    "internalType": "address",
                    "name": "newOwner",
                    "type": "address"
                }
            ],
            "name": "transferOwnership",
            "outputs": [],
            "stateMutability": "nonpayable",
            "type": "function"
        },
        {
            "inputs": [
                {
                    "internalType": "address",
                    "name": "_pfpAddress",
                    "type": "address"
                },
                {
                    "internalType": "uint256",
                    "name": "_pfpTokenId",
                    "type": "uint256"
                },
                {
                    "internalType": "string",
                    "name": "_profileData",
                    "type": "string"
                }
            ],
            "name": "updateProfile",
            "outputs": [],
            "stateMutability": "nonpayable",
            "type": "function"
        }
    ],
    "bytecode": "0x60806040523461001f57610011610024565b61184a610030823961184a90f35b61002a565b60405190565b600080fdfe60806040526004361015610013575b61070a565b61001e60003561009d565b80631d549fa7146100985780636d4540eb14610093578063715018a61461008e5780638129fc1c146100895780638da5cb5b14610084578063bbe156271461007f578063f2fde38b1461007a5763fe454f6e0361000e576106d4565b61067d565b610645565b610362565b61030c565b6102d9565b6102a6565b610262565b60e01c90565b60405190565b600080fd5b600080fd5b600080fd5b60018060a01b031690565b6100cc906100b8565b90565b6100d8816100c3565b036100df57565b600080fd5b905035906100f1826100cf565b565b90565b6100ff816100f3565b0361010657565b600080fd5b90503590610118826100f6565b565b600080fd5b600080fd5b601f801991011690565b634e487b7160e01b600052604160045260246000fd5b9061014e90610124565b810190811067ffffffffffffffff82111761016857604052565b61012e565b906101806101796100a3565b9283610144565b565b67ffffffffffffffff81116101a05761019c602091610124565b0190565b61012e565b90826000939282370152565b909291926101c66101c182610182565b61016d565b938185526020850190828401116101e2576101e0926101a5565b565b61011f565b9080601f8301121561020557816020610202933591016101b1565b90565b61011a565b916060838303126102575761022282600085016100e4565b92610230836020830161010b565b92604082013567ffffffffffffffff81116102525761024f92016101e7565b90565b6100b3565b6100ae565b60000190565b346102915761027b61027536600461020a565b91610b9b565b6102836100a3565b8061028d8161025c565b0390f35b6100a9565b60009103126102a157565b6100ae565b346102d4576102b6366004610296565b6102be610f60565b6102c66100a3565b806102d08161025c565b0390f35b6100a9565b34610307576102e9366004610296565b6102f1610fee565b6102f96100a3565b806103038161025c565b0390f35b6100a9565b3461033a5761031c366004610296565b61032461131c565b61032c6100a3565b806103368161025c565b0390f35b6100a9565b610348906100c3565b9052565b91906103609060006020850194019061033f565b565b3461039257610372366004610296565b61038e61037d61132b565b6103856100a3565b9182918261034c565b0390f35b6100a9565b906020828203126103b1576103ae916000016100e4565b90565b6100ae565b90565b6103cd6103c86103d2926100b8565b6103b6565b6100b8565b90565b6103de906103b9565b90565b6103ea906103d5565b90565b906103f7906103e1565b600052602052604060002090565b60001c90565b60018060a01b031690565b61042261042791610405565b61040b565b90565b6104349054610416565b90565b90565b61044661044b91610405565b610437565b90565b610458905461043a565b90565b634e487b7160e01b600052602260045260246000fd5b9060016002830492168015610491575b602083101461048c57565b61045b565b91607f1691610481565b60209181520190565b600052602060002090565b90600092918054906104ca6104c383610471565b809461049b565b9160018116908160001461052357506001146104e6575b505050565b6104f391929394506104a4565b916000925b81841061050b57505001903880806104e1565b600181602092959395548486015201910192906104f8565b92949550505060ff19168252151560200201903880806104e1565b90610548916104af565b90565b9061056b6105649261055b6100a3565b9384809261053e565b0383610144565b565b6105789060656103ed565b6105846000820161042a565b9161059d60026105966001850161044e565b930161054b565b90565b6105a9906100f3565b9052565b5190565b60209181520190565b60005b8381106105ce575050906000910152565b8060209183015181850152016105bd565b6105fe61060760209361060c936105f5816105ad565b938480936105b1565b958691016105ba565b610124565b0190565b61063561064294929361062b6060840195600085019061033f565b60208301906105a0565b60408184039101526105df565b90565b346106785761067461066061065b366004610397565b61056d565b61066b9391936100a3565b93849384610610565b0390f35b6100a9565b346106ab57610695610690366004610397565b61142f565b61069d6100a3565b806106a78161025c565b0390f35b6100a9565b9160206106d29294936106cb6040820196600083019061033f565b01906105a0565b565b34610705576106ec6106e7366004610397565b6114a6565b906107016106f86100a3565b928392836106b0565b0390f35b6100a9565b600080fd5b90565b61072661072161072b9261070f565b6103b6565b6100b8565b90565b61073790610712565b90565b61074e6107496107539261070f565b6103b6565b6100f3565b90565b61075f906103b9565b90565b61076b90610756565b90565b610777906103d5565b90565b60e01b90565b9050519061078d826100cf565b565b906020828203126107a9576107a691600001610780565b90565b6100ae565b91906107c2906000602085019401906105a0565b565b6107cc6100a3565b3d6000823e3d90fd5b60007f50726f66696c65733a20596f7520646f6e2774206f776e207468697320504650910152565b610809602080926105b1565b610812816107d5565b0190565b61082c90602081019060008183039101526107fd565b90565b1561083657565b61083e6100a3565b62461bcd60e51b81528061085460048201610816565b0390fd5b610862606061016d565b90565b9061086f906100c3565b9052565b9061087d906100f3565b9052565b52565b634e487b7160e01b600052600060045260246000fd5b6108a490516100c3565b90565b60001b90565b906108be60018060a01b03916108a7565b9181191691161790565b90565b906108e06108db6108e7926103e1565b6108c8565b82546108ad565b9055565b6108f590516100f3565b90565b90610905600019916108a7565b9181191691161790565b61092361091e610928926100f3565b6103b6565b6100f3565b90565b90565b9061094361093e61094a9261090f565b61092b565b82546108f8565b9055565b5190565b601f602091010490565b1b90565b9190600861097c9102916109766000198461095c565b9261095c565b9181191691161790565b919061099c6109976109a49361090f565b61092b565b908354610960565b9055565b600090565b6109bf916109b96109a8565b91610986565b565b5b8181106109cd575050565b806109db60006001936109ad565b016109c2565b9190601f81116109f1575b505050565b6109fd610a22936104a4565b906020610a0984610952565b83019310610a2a575b610a1b90610952565b01906109c1565b3880806109ec565b9150610a1b81929050610a12565b1c90565b90610a4d9060001990600802610a38565b191690565b81610a5c91610a3c565b906002021790565b90610a6e816105ad565b9067ffffffffffffffff8211610b3057610a9282610a8c8554610471565b856109e1565b602090601f8311600114610ac757918091610ab693600092610abb575b5050610a52565b90555b565b90915001513880610aaf565b601f19831691610ad6856104a4565b9260005b818110610b1857509160029391856001969410610afe575b50505002019055610ab9565b610b0e910151601f841690610a3c565b9055388080610af2565b91936020600181928787015181550195019201610ada565b61012e565b90610b3f91610a64565b565b90610b8760406002610b8d94610b6660008201610b606000880161089a565b906108cb565b610b7f60018201610b79602088016108eb565b9061092e565b01920161094e565b90610b35565b565b90610b9991610b41565b565b909181610bb9610bb3610bae600061072e565b6100c3565b916100c3565b1480610d03575b8015610c5e575b610bd09061082f565b610c1582610c0485610bfb8591610bf2610be8610858565b9560008701610865565b60208501610873565b60408301610881565b610c10606533906103ed565b610b8f565b3391929092610c59610c477f22ca89f00058e49f3aac3d382939c4bdc0b09061d2cf5eea2e868054974d8f1a946103e1565b94610c506100a3565b93849384610610565b0390a2565b50610c9f6020610c75610c7085610762565b61076e565b636352211e90610c948792610c886100a3565b9586948593849361077a565b8352600483016107ae565b03915afa8015610cfe57610bd091600091610cd0575b50610cc8610cc2336100c3565b916100c3565b149050610bc7565b610cf1915060203d8111610cf7575b610ce98183610144565b81019061078f565b38610cb5565b503d610cdf565b6107c4565b5082610d18610d12600061073a565b916100f3565b14610bc0565b90610d329060001990602003600802610a38565b8154169055565b90600091610d51610d49826104a4565b928354610a52565b905555565b91929060208210600014610db057601f8411600114610d8057610d7a929350610a52565b90555b5b565b5090610da6610dab936001610d9d610d97856104a4565b92610952565b820191016109c1565b610d39565b610d7d565b50610de78293610dc16001946104a4565b610de0610dcd85610952565b820192601f861680610df2575b50610952565b01906109c1565b600202179055610d7e565b610dfe90888603610d1e565b38610dda565b929091680100000000000000008211610e6657602011600014610e575760208110600014610e3b57610e3591610a52565b90555b5b565b60019160ff1916610e4b846104a4565b55600202019055610e38565b60019150600202019055610e39565b61012e565b908154610e7781610471565b90818311610ea0575b818310610e8e575b50505050565b610e9793610d56565b38808080610e88565b610eac83838387610e04565b610e80565b6000610ebc91610e6b565b565b90600003610ed157610ecf90610eb1565b565b610884565b60006002610ef6928280820155610ef083600183016109ad565b01610ebe565b565b90600003610f0b57610f0990610ed6565b565b610884565b610f199061073a565b9052565b610f29600080926105b1565b0190565b610f50610f5d93610f466060840194600085019061033f565b6020830190610f10565b6040818303910152610f1d565b90565b610f766000610f71606533906103ed565b610ef8565b33610f81600061072e565b906000610fae7f22ca89f00058e49f3aac3d382939c4bdc0b09061d2cf5eea2e868054974d8f1a926103e1565b92610fc3610fba6100a3565b92839283610f2d565b0390a2565b610fd0611642565b610fd8610fda565b565b610fec610fe7600061072e565b61166e565b565b610ff6610fc8565b565b60081c90565b60ff1690565b61101061101591610ff8565b610ffe565b90565b6110229054611004565b90565b151590565b60ff1690565b61103c61104191610405565b61102a565b90565b61104e9054611030565b90565b60ff1690565b90565b61106e61106961107392611057565b6103b6565b611051565b90565b61107f906103d5565b90565b60207f647920696e697469616c697a6564000000000000000000000000000000000000917f496e697469616c697a61626c653a20636f6e747261637420697320616c72656160008201520152565b6110dd602e6040926105b1565b6110e681611082565b0190565b61110090602081019060008183039101526110d0565b90565b1561110a57565b6111126100a3565b62461bcd60e51b815280611128600482016110ea565b0390fd5b9061113860ff916108a7565b9181191691161790565b61115661115161115b92611051565b6103b6565b611051565b90565b90565b9061117661117161117d92611142565b61115e565b825461112c565b9055565b60081b90565b9061119461ff0091611181565b9181191691161790565b6111a790611025565b90565b90565b906111c26111bd6111c99261119e565b6111aa565b8254611187565b9055565b6111d69061105a565b9052565b91906111ee906000602085019401906111cd565b565b6112036111fd6000611018565b15611025565b80806112ee575b801561129f575b61121a90611103565b61122e611227600161105a565b6000611161565b8061128e575b61123c611312565b611243575b565b61124e6000806111ad565b60016112867f7f26b83ff96e1f2b6a682f133852f6798a09c465da95921460cefb38474024989161127d6100a3565b918291826111da565b0390a1611241565b61129a600160006111ad565b611234565b506112ba6112b46112af30611076565b6116d4565b15611025565b806112c5575b611211565b5061121a6112d36000611044565b6112e66112e0600161105a565b91611051565b1490506112c0565b506112f96000611044565b61130c611306600161105a565b91611051565b1061120a565b61131a6117c5565b565b6113246111f0565b565b600090565b611333611326565b5061133e603361042a565b90565b6113529061134d611642565b6113fe565b565b60207f6464726573730000000000000000000000000000000000000000000000000000917f4f776e61626c653a206e6577206f776e657220697320746865207a65726f206160008201520152565b6113af60266040926105b1565b6113b881611354565b0190565b6113d290602081019060008183039101526113a2565b90565b156113dc57565b6113e46100a3565b62461bcd60e51b8152806113fa600482016113bc565b0390fd5b61142d906114288161142161141b611416600061072e565b6100c3565b916100c3565b14156113d5565b61166e565b565b61143890611341565b565b611444606061016d565b90565b9061149861148f600261145861143a565b946114716114686000830161042a565b60008801610865565b6114896114806001830161044e565b60208801610873565b0161054b565b60408401610881565b565b6114a390611447565b90565b6114ae611326565b506114b76109a8565b506115226114cf6114ca606584906103ed565b61149a565b9160206114ee6114e96114e46000870161089a565b610762565b61076e565b636352211e906115176115028488016108eb565b9261150b6100a3565b9687948593849361077a565b8352600483016107ae565b03915afa9182156115ba57600092611582575b50611542611548916100c3565b916100c3565b146115665750611558600061072e565b90611563600061073a565b90565b9061157f60206115786000850161089a565b93016108eb565b90565b6115489192506115ab6115429160203d81116115b3575b6115a38183610144565b81019061078f565b929150611535565b503d611599565b6107c4565b60007f4f776e61626c653a2063616c6c6572206973206e6f7420746865206f776e6572910152565b6115f3602080926105b1565b6115fc816115bf565b0190565b61161690602081019060008183039101526115e7565b90565b1561162057565b6116286100a3565b62461bcd60e51b81528061163e60048201611600565b0390fd5b61166c61164d61132b565b61166661166061165b6117cf565b6100c3565b916100c3565b14611619565b565b611678603361042a565b6116838260336108cb565b906116b76116b17f8be0079c531659141344cd1fd0a4f28419497f9722a3daafe3b4186f6b6457e0936103e1565b916103e1565b916116c06100a3565b806116ca8161025c565b0390a3565b600090565b6116dc6116cf565b503b6116f16116eb600061073a565b916100f3565b1190565b60207f6e697469616c697a696e67000000000000000000000000000000000000000000917f496e697469616c697a61626c653a20636f6e7472616374206973206e6f74206960008201520152565b611750602b6040926105b1565b611759816116f5565b0190565b6117739060208101906000818303910152611743565b90565b1561177d57565b6117856100a3565b62461bcd60e51b81528061179b6004820161175d565b0390fd5b6117b16117ac6000611018565b611776565b6117b96117bb565b565b6117c361180a565b565b6117cd61179f565b565b6117d7611326565b503390565b6117ee6117e96000611018565b611776565b6117f66117f8565b565b6118086118036117cf565b61166e565b565b6118126117dc565b56fea26469706673582212200fbe4f0adfef3a0f44c3f2525ed8a29ed051e92426ebe6318392f30994bc90ad64736f6c63430008180033",
    "linkReferences": {},
    "deployedLinkReferences": {}
}