{
  "_format": "hh-sol-artifact-1",
  "contractName": "PersonaFragments",
  "sourceName": "contracts/social/PersonaFragments.sol",
  "abi": [
    {
      "inputs": [],
      "name": "ECDSAInvalidSignature",
      "type": "error"
    },
    {
      "inputs": [
        {
          "internalType": "uint256",
          "name": "length",
          "type": "uint256"
        }
      ],
      "name": "ECDSAInvalidSignatureLength",
      "type": "error"
    },
    {
      "inputs": [
        {
          "internalType": "bytes32",
          "name": "s",
          "type": "bytes32"
        }
      ],
      "name": "ECDSAInvalidSignatureS",
      "type": "error"
    },
    {
      "inputs": [],
      "name": "FailedCall",
      "type": "error"
    },
    {
      "inputs": [
        {
          "internalType": "uint256",
          "name": "balance",
          "type": "uint256"
        },
        {
          "internalType": "uint256",
          "name": "needed",
          "type": "uint256"
        }
      ],
      "name": "InsufficientBalance",
      "type": "error"
    },
    {
      "inputs": [],
      "name": "InvalidInitialization",
      "type": "error"
    },
    {
      "inputs": [],
      "name": "NotInitializing",
      "type": "error"
    },
    {
      "inputs": [
        {
          "internalType": "address",
          "name": "owner",
          "type": "address"
        }
      ],
      "name": "OwnableInvalidOwner",
      "type": "error"
    },
    {
      "inputs": [
        {
          "internalType": "address",
          "name": "account",
          "type": "address"
        }
      ],
      "name": "OwnableUnauthorizedAccount",
      "type": "error"
    },
    {
      "inputs": [],
      "name": "ReentrancyGuardReentrantCall",
      "type": "error"
    },
    {
      "anonymous": false,
      "inputs": [
        {
          "indexed": true,
          "internalType": "address",
          "name": "verifier",
          "type": "address"
        }
      ],
      "name": "HoldingVerifierUpdated",
      "type": "event"
    },
    {
      "anonymous": false,
      "inputs": [
        {
          "indexed": false,
          "internalType": "uint64",
          "name": "version",
          "type": "uint64"
        }
      ],
      "name": "Initialized",
      "type": "event"
    },
    {
      "anonymous": false,
      "inputs": [
        {
          "indexed": true,
          "internalType": "address",
          "name": "previousOwner",
          "type": "address"
        },
        {
          "indexed": true,
          "internalType": "address",
          "name": "newOwner",
          "type": "address"
        }
      ],
      "name": "OwnershipTransferred",
      "type": "event"
    },
    {
      "anonymous": false,
      "inputs": [
        {
          "indexed": false,
          "internalType": "uint256",
          "name": "rate",
          "type": "uint256"
        }
      ],
      "name": "PersonaOwnerFeeRateUpdated",
      "type": "event"
    },
    {
      "anonymous": false,
      "inputs": [
        {
          "indexed": false,
          "internalType": "uint256",
          "name": "rate",
          "type": "uint256"
        }
      ],
      "name": "ProtocolFeeRateUpdated",
      "type": "event"
    },
    {
      "anonymous": false,
      "inputs": [
        {
          "indexed": true,
          "internalType": "address",
          "name": "trader",
          "type": "address"
        },
        {
          "indexed": true,
          "internalType": "address",
          "name": "persona",
          "type": "address"
        },
        {
          "indexed": true,
          "internalType": "bool",
          "name": "isBuy",
          "type": "bool"
        },
        {
          "indexed": false,
          "internalType": "uint256",
          "name": "amount",
          "type": "uint256"
        },
        {
          "indexed": false,
          "internalType": "uint256",
          "name": "price",
          "type": "uint256"
        },
        {
          "indexed": false,
          "internalType": "uint256",
          "name": "protocolFee",
          "type": "uint256"
        },
        {
          "indexed": false,
          "internalType": "uint256",
          "name": "personaFee",
          "type": "uint256"
        },
        {
          "indexed": false,
          "internalType": "uint256",
          "name": "holdingReward",
          "type": "uint256"
        },
        {
          "indexed": false,
          "internalType": "uint256",
          "name": "supply",
          "type": "uint256"
        }
      ],
      "name": "TradeExecuted",
      "type": "event"
    },
    {
      "anonymous": false,
      "inputs": [
        {
          "indexed": true,
          "internalType": "address",
          "name": "treasury",
          "type": "address"
        }
      ],
      "name": "TreasuryUpdated",
      "type": "event"
    },
    {
      "inputs": [
        {
          "internalType": "address",
          "name": "",
          "type": "address"
        },
        {
          "internalType": "address",
          "name": "",
          "type": "address"
        }
      ],
      "name": "balance",
      "outputs": [
        {
          "internalType": "uint256",
          "name": "",
          "type": "uint256"
        }
      ],
      "stateMutability": "view",
      "type": "function"
    },
    {
      "inputs": [
        {
          "internalType": "address",
          "name": "persona",
          "type": "address"
        },
        {
          "internalType": "uint256",
          "name": "amount",
          "type": "uint256"
        },
        {
          "internalType": "bytes",
          "name": "holdingRewardSignature",
          "type": "bytes"
        }
      ],
      "name": "buy",
      "outputs": [],
      "stateMutability": "payable",
      "type": "function"
    },
    {
      "inputs": [
        {
          "internalType": "uint256",
          "name": "baseAmount",
          "type": "uint256"
        },
        {
          "internalType": "bytes",
          "name": "signature",
          "type": "bytes"
        }
      ],
      "name": "calculateHoldingReward",
      "outputs": [
        {
          "internalType": "uint256",
          "name": "",
          "type": "uint256"
        }
      ],
      "stateMutability": "view",
      "type": "function"
    },
    {
      "inputs": [
        {
          "internalType": "address",
          "name": "persona",
          "type": "address"
        },
        {
          "internalType": "uint256",
          "name": "amount",
          "type": "uint256"
        }
      ],
      "name": "getBuyPrice",
      "outputs": [
        {
          "internalType": "uint256",
          "name": "",
          "type": "uint256"
        }
      ],
      "stateMutability": "view",
      "type": "function"
    },
    {
      "inputs": [
        {
          "internalType": "address",
          "name": "persona",
          "type": "address"
        },
        {
          "internalType": "uint256",
          "name": "amount",
          "type": "uint256"
        }
      ],
      "name": "getBuyPriceAfterFee",
      "outputs": [
        {
          "internalType": "uint256",
          "name": "",
          "type": "uint256"
        }
      ],
      "stateMutability": "view",
      "type": "function"
    },
    {
      "inputs": [
        {
          "internalType": "uint256",
          "name": "_supply",
          "type": "uint256"
        },
        {
          "internalType": "uint256",
          "name": "amount",
          "type": "uint256"
        }
      ],
      "name": "getPrice",
      "outputs": [
        {
          "internalType": "uint256",
          "name": "",
          "type": "uint256"
        }
      ],
      "stateMutability": "view",
      "type": "function"
    },
    {
      "inputs": [
        {
          "internalType": "address",
          "name": "persona",
          "type": "address"
        },
        {
          "internalType": "uint256",
          "name": "amount",
          "type": "uint256"
        }
      ],
      "name": "getSellPrice",
      "outputs": [
        {
          "internalType": "uint256",
          "name": "",
          "type": "uint256"
        }
      ],
      "stateMutability": "view",
      "type": "function"
    },
    {
      "inputs": [
        {
          "internalType": "address",
          "name": "persona",
          "type": "address"
        },
        {
          "internalType": "uint256",
          "name": "amount",
          "type": "uint256"
        }
      ],
      "name": "getSellPriceAfterFee",
      "outputs": [
        {
          "internalType": "uint256",
          "name": "",
          "type": "uint256"
        }
      ],
      "stateMutability": "view",
      "type": "function"
    },
    {
      "inputs": [],
      "name": "holdingVerifier",
      "outputs": [
        {
          "internalType": "address",
          "name": "",
          "type": "address"
        }
      ],
      "stateMutability": "view",
      "type": "function"
    },
    {
      "inputs": [
        {
          "internalType": "address payable",
          "name": "_treasury",
          "type": "address"
        },
        {
          "internalType": "uint256",
          "name": "_protocolFeeRate",
          "type": "uint256"
        },
        {
          "internalType": "uint256",
          "name": "_personaOwnerFeeRate",
          "type": "uint256"
        },
        {
          "internalType": "uint256",
          "name": "_priceIncrementPerFragment",
          "type": "uint256"
        },
        {
          "internalType": "address",
          "name": "_holdingVerifier",
          "type": "address"
        }
      ],
      "name": "initialize",
      "outputs": [],
      "stateMutability": "nonpayable",
      "type": "function"
    },
    {
      "inputs": [],
      "name": "owner",
      "outputs": [
        {
          "internalType": "address",
          "name": "",
          "type": "address"
        }
      ],
      "stateMutability": "view",
      "type": "function"
    },
    {
      "inputs": [],
      "name": "personaOwnerFeeRate",
      "outputs": [
        {
          "internalType": "uint256",
          "name": "",
          "type": "uint256"
        }
      ],
      "stateMutability": "view",
      "type": "function"
    },
    {
      "inputs": [],
      "name": "priceIncrementPerFragment",
      "outputs": [
        {
          "internalType": "uint256",
          "name": "",
          "type": "uint256"
        }
      ],
      "stateMutability": "view",
      "type": "function"
    },
    {
      "inputs": [],
      "name": "protocolFeeRate",
      "outputs": [
        {
          "internalType": "uint256",
          "name": "",
          "type": "uint256"
        }
      ],
      "stateMutability": "view",
      "type": "function"
    },
    {
      "inputs": [],
      "name": "renounceOwnership",
      "outputs": [],
      "stateMutability": "nonpayable",
      "type": "function"
    },
    {
      "inputs": [
        {
          "internalType": "address",
          "name": "persona",
          "type": "address"
        },
        {
          "internalType": "uint256",
          "name": "amount",
          "type": "uint256"
        },
        {
          "internalType": "bytes",
          "name": "holdingRewardSignature",
          "type": "bytes"
        }
      ],
      "name": "sell",
      "outputs": [],
      "stateMutability": "nonpayable",
      "type": "function"
    },
    {
      "inputs": [
        {
          "internalType": "address",
          "name": "_verifier",
          "type": "address"
        }
      ],
      "name": "setHoldingVerifier",
      "outputs": [],
      "stateMutability": "nonpayable",
      "type": "function"
    },
    {
      "inputs": [
        {
          "internalType": "uint256",
          "name": "_rate",
          "type": "uint256"
        }
      ],
      "name": "setPersonaOwnerFeeRate",
      "outputs": [],
      "stateMutability": "nonpayable",
      "type": "function"
    },
    {
      "inputs": [
        {
          "internalType": "uint256",
          "name": "_rate",
          "type": "uint256"
        }
      ],
      "name": "setProtocolFeeRate",
      "outputs": [],
      "stateMutability": "nonpayable",
      "type": "function"
    },
    {
      "inputs": [
        {
          "internalType": "address payable",
          "name": "_treasury",
          "type": "address"
        }
      ],
      "name": "setTreasury",
      "outputs": [],
      "stateMutability": "nonpayable",
      "type": "function"
    },
    {
      "inputs": [
        {
          "internalType": "address",
          "name": "",
          "type": "address"
        }
      ],
      "name": "supply",
      "outputs": [
        {
          "internalType": "uint256",
          "name": "",
          "type": "uint256"
        }
      ],
      "stateMutability": "view",
      "type": "function"
    },
    {
      "inputs": [
        {
          "internalType": "address",
          "name": "newOwner",
          "type": "address"
        }
      ],
      "name": "transferOwnership",
      "outputs": [],
      "stateMutability": "nonpayable",
      "type": "function"
    },
    {
      "inputs": [],
      "name": "treasury",
      "outputs": [
        {
          "internalType": "address payable",
          "name": "",
          "type": "address"
        }
      ],
      "stateMutability": "view",
      "type": "function"
    }
  ],
  "bytecode": "0x6080806040523460155761168e908161001b8239f35b600080fdfe6080604052600436101561001257600080fd5b60003560e01c80630f026f6d1461018757806319ae58f01461018257806319f4d6b71461017d5780631c0144de146101785780632267a89c146101735780634635256e1461016e57806358f85880146101695780635cf4ee911461016457806361d027b31461015f5780636c28e3491461015a578063715018a6146101555780637582ae9f146101505780638da5cb5b1461014b5780639ae71781146101465780639dc446d114610141578063b13aa2d61461013c578063b203bb9914610137578063d28b253e14610132578063e87474781461012d578063f0f4426014610128578063f2fde38b14610123578063f496a6101461011e5763f5ca60dd1461011957600080fd5b610e04565b610c81565b610c54565b610ba3565b610b63565b610b45565b610ae2565b610a82565b610a59565b610a0a565b6109d4565b610922565b6108b8565b610726565b6106fd565b6106dc565b6106be565b610674565b6105ed565b61058d565b610376565b61025a565b6101a2565b6001600160a01b0381160361019d57565b600080fd5b3461019d57604036600319011261019d576101e36004356101c28161018c565b6001600160a01b031660009081526006602052604090205460243590610eb1565b670de0b6b3a76400006101f860015483610e38565b0490670de0b6b3a764000061020f60045483610e38565b0491810180911161023b576102379161022791610e4b565b6040519081529081906020820190565b0390f35b610e22565b6001600160a01b0316600090815260066020526040902090565b3461019d57602036600319011261019d576004356102778161018c565b60018060a01b031660005260066020526020604060002054604051908152f35b634e487b7160e01b600052604160045260246000fd5b90601f8019910116810190811067ffffffffffffffff8211176102cf57604052565b610297565b67ffffffffffffffff81116102cf57601f01601f191660200190565b81601f8201121561019d57803590610307826102d4565b9261031560405194856102ad565b8284526020838301011161019d57816000926020809301838601378301015290565b606060031982011261019d5760043561034f8161018c565b91602435916044359067ffffffffffffffff821161019d57610373916004016102f0565b90565b3461019d5761038436610337565b6001600160a01b0383166000818152600660205260409020549092919082810390811161023b57826103b591610eb1565b936002600080516020611619833981519152541461057c57600094610560610425926104467f9ce8a552d9a28a585b4d3bd87da383f1f7ee25a97365977f122cf1b2a1fcaa469560026000805160206116198339815191525561044161043860015492610433610425858a610e38565b670de0b6b3a7640000900490565b61113d565b96879287610e38565b610ea4565b9361052d6104628261045d61042560045489610e38565b610e4b565b926104a1896104996104868460018060a01b03166000526005602052604060002090565b3360009081526020919091526040902090565b54101561130b565b6001600160a01b038116600090815260056020908152604080832033845290915290206104cf8a8254610ea4565b90556001600160a01b03811660009081526006602052604090206104f48a8254610ea4565b905561050d610507856104418a8a610ea4565b336113dd565b8a546105239088906001600160a01b03166113dd565b610240848b6113dd565b54916040519586953399879260a094919796959260c0850198855260208501526040840152606083015260808201520152565b0390a461057a600160008051602061161983398151915255565b005b633ee5aeb560e01b60005260046000fd5b3461019d57602036600319011261019d577fed04daa5d736fa43050f342c6ea11e6d6b9fd1382af2abd8a3d37dbdaef016fa60206004356105cc611391565b6105e0670de0b6b3a7640000821115610e58565b80600455604051908152a1005b3461019d57604036600319011261019d5760043561060a8161018c565b6001600160a01b031660009081526006602052604090205460243580820391821161023b5761063f6102279161023793610eb1565b610441670de0b6b3a764000061065760015484610e38565b04670de0b6b3a764000061066d60045485610e38565b0492610ea4565b3461019d57604036600319011261019d5760206106b66004356106968161018c565b6001600160a01b0316600090815260068352604090205460243590610eb1565b604051908152f35b3461019d57600036600319011261019d576020600154604051908152f35b3461019d57604036600319011261019d5760206106b6602435600435610eb1565b3461019d57600036600319011261019d576000546040516001600160a01b039091168152602090f35b3461019d5760a036600319011261019d576004356107438161018c565b602435906084356064356044356107598361018c565b600080516020611639833981519152549467ffffffffffffffff61078d60ff604089901c16159767ffffffffffffffff1690565b16801590816108b0575b60011490816108a6575b15908161089d575b5061088c576107ef94866107e6600167ffffffffffffffff1960008051602061163983398151915254161760008051602061163983398151915255565b61085057610f3a565b6107f557005b61082160ff60401b19600080516020611639833981519152541660008051602061163983398151915255565b604051600181527fc7f505b2f371ae2175ee4913f4499e1f2633a7b5936321eed1cdaeb6115181d290602090a1005b6108876801000000000000000060ff60401b1960008051602061163983398151915254161760008051602061163983398151915255565b610f3a565b63f92ee8a960e01b60005260046000fd5b905015386107a9565b303b1591506107a1565b879150610797565b3461019d57600036600319011261019d576108d1611391565b6000805160206115f983398151915280546001600160a01b031981169091556000906001600160a01b03167f8be0079c531659141344cd1fd0a4f28419497f9722a3daafe3b4186f6b6457e08280a3005b3461019d57602036600319011261019d5760043561093f8161018c565b610947611391565b6001600160a01b0316801561098f57600280546001600160a01b031916821790557f3988ebfb0c33faf605fb350301ca0a21968c8582d29bcbc1fe992b21e81a8e90600080a2005b60405162461bcd60e51b815260206004820152601860248201527f496e76616c6964207665726966696572206164647265737300000000000000006044820152606490fd5b3461019d57600036600319011261019d576000805160206115f9833981519152546040516001600160a01b039091168152602090f35b3461019d57604036600319011261019d57600435610a278161018c565b6001600160a01b03166000908152600660205260409020546024359081810390811161023b576020916106b691610eb1565b3461019d57600036600319011261019d576002546040516001600160a01b039091168152602090f35b3461019d57602036600319011261019d577f9d2a5010795914ccbdd5a4cdee6a9aa2addac5e44443b519897523b67ddfe9fc6020600435610ac1611391565b610ad5670de0b6b3a7640000821115610e58565b80600155604051908152a1005b3461019d57604036600319011261019d576020610b3c600435610b048161018c565b60243590610b118261018c565b60018060a01b03166000526005835260406000209060018060a01b0316600052602052604060002090565b54604051908152f35b3461019d57600036600319011261019d576020600454604051908152f35b3461019d57604036600319011261019d5760043560243567ffffffffffffffff811161019d57602091610b9d6106b69236906004016102f0565b9061113d565b3461019d57602036600319011261019d57600435610bc08161018c565b610bc8611391565b6001600160a01b03168015610c0f57600080546001600160a01b031916821781557f7dae230f18360d76a040c81f050aa14eb9d6dc7901b20fc5d855e2a20fe814d19080a2005b60405162461bcd60e51b815260206004820152601860248201527f496e76616c6964207472656173757279206164647265737300000000000000006044820152606490fd5b3461019d57602036600319011261019d5761057a600435610c748161018c565b610c7c611391565b611295565b610c8a36610337565b9060018060a01b03831691826000526006602052610cad82604060002054610eb1565b936002600080516020611619833981519152541461057c5760019461056061042592610d1c7f9ce8a552d9a28a585b4d3bd87da383f1f7ee25a97365977f122cf1b2a1fcaa46956002600080516020611619833981519152556104416104388b5492610433610425858a610e38565b9361052d610d338261045d61042560045489610e38565b92610d4d610d458561045d8a8a610e4b565b34101561134e565b6001600160a01b0381166000908152600560205260409020610d6e90610486565b610d798a8254610e4b565b90556001600160a01b0381166000908152600660205260409020610d9e8a8254610e4b565b9055600054610db79088906001600160a01b03166113dd565b610dc1848b6113dd565b610dcf8461045d8989610e4b565b3411610def576001600160a01b0316600090815260066020526040902090565b610240610507856104418a6104418b34610ea4565b3461019d57600036600319011261019d576020600354604051908152f35b634e487b7160e01b600052601160045260246000fd5b8181029291811591840414171561023b57565b9190820180921161023b57565b15610e5f57565b60405162461bcd60e51b815260206004820152601860248201527f46656520726174652065786365656473206d6178696d756d00000000000000006044820152606490fd5b9190820391821161023b57565b90600354610ebf8184610e38565b81019283821161023b5782810180911161023b5781610edd91610e38565b810180911161023b57820180921161023b576103739160011c610e38565b15610f0257565b60405162461bcd60e51b815260206004820152601060248201526f24b73b30b634b2103b32b934b334b2b960811b6044820152606490fd5b9392919092610f47611457565b610f4f611457565b610f5833611295565b610f60611457565b610f68611457565b6001600080516020611619833981519152556001600160a01b0385169384156110c0577fed04daa5d736fa43050f342c6ea11e6d6b9fd1382af2abd8a3d37dbdaef016fa9461104c7f9d2a5010795914ccbdd5a4cdee6a9aa2addac5e44443b519897523b67ddfe9fc9361102a6110969761101360018060a01b0384169b610ff18d1515610efb565b60018060a01b03166bffffffffffffffffffffffff60a01b6000541617600055565b61101c86600155565b61102588600455565b600355565b60018060a01b03166bffffffffffffffffffffffff60a01b6002541617600255565b6110836040519283927f7dae230f18360d76a040c81f050aa14eb9d6dc7901b20fc5d855e2a20fe814d1600080a282526020820190565b0390a16040519081529081906020820190565b0390a17f3988ebfb0c33faf605fb350301ca0a21968c8582d29bcbc1fe992b21e81a8e90600080a2565b60405162461bcd60e51b815260206004820152601060248201526f496e76616c696420747265617375727960801b6044820152606490fd5b156110ff57565b60405162461bcd60e51b8152602060048201526016602482015275496e76616c6964207369676e6174757265206461746160501b6044820152606490fd5b8151801561128d57606003611248576020820151604083015191670de0b6b3a7640000821161120b576112066111e961037395610425956111e46111dc60405160208101906111aa8161119c8c8c869091604092825260208201520190565b03601f1981018352826102ad565b5190207f19457468657265756d205369676e6564204d6573736167653a0a333200000000600052601c52603c60002090565b8092146110f8565b6113c7565b6002546001600160a01b03166001600160a01b0390911614610efb565b610e38565b60405162461bcd60e51b81526020600482015260156024820152740a4caeec2e4c840e4c2e8d2de40e8dede40d0d2ced605b1b6044820152606490fd5b60405162461bcd60e51b815260206004820152601860248201527f496e76616c6964207369676e6174757265206c656e67746800000000000000006044820152606490fd5b505050600090565b6001600160a01b031680156112f5576000805160206115f983398151915280546001600160a01b0319811683179091556001600160a01b03167f8be0079c531659141344cd1fd0a4f28419497f9722a3daafe3b4186f6b6457e0600080a3565b631e4fbdf760e01b600052600060045260246000fd5b1561131257565b60405162461bcd60e51b8152602060048201526014602482015273496e73756666696369656e742062616c616e636560601b6044820152606490fd5b1561135557565b60405162461bcd60e51b8152602060048201526014602482015273125b9cdd59999a58da595b9d081c185e5b595b9d60621b6044820152606490fd5b6000805160206115f9833981519152546001600160a01b031633036113b257565b63118cdaa760e01b6000523360045260246000fd5b610373916113d491611485565b909291926114e1565b81471061143e576000918291829182916001600160a01b03165af13d15611439573d611408816102d4565b9061141660405192836102ad565b8152600060203d92013e5b1561142857565b63d6bda27560e01b60005260046000fd5b611421565b504763cf47918160e01b60005260045260245260446000fd5b60ff6000805160206116398339815191525460401c161561147457565b631afcd79f60e31b60005260046000fd5b81519190604183036114b6576114af92506020820151906060604084015193015160001a90611563565b9192909190565b505060009160029190565b600411156114cb57565b634e487b7160e01b600052602160045260246000fd5b6114ea816114c1565b806114f3575050565b6114fc816114c1565b600181036115155763f645eedf60e01b60005260046000fd5b61151e816114c1565b6002810361153b575063fce698f760e01b60005260045260246000fd5b806115476003926114c1565b1461154f5750565b6335e2f38360e21b60005260045260246000fd5b91907f7fffffffffffffffffffffffffffffff5d576e7357a4501ddfe92f46681b20a084116115ec579160209360809260ff60009560405194855216868401526040830152606082015282805260015afa156115e0576000516001600160a01b038116156115d45790600090600090565b50600090600190600090565b6040513d6000823e3d90fd5b5050506000916003919056fe9016d09d72d40fdae2fd8ceac6b6234c7706214fd39c1cd1e609a0528c1993009b779b17422d0df92223018b32b4d1fa46e071723d6817e2486d003becc55f00f0c57e16840df040f15088dc2f81fe391c3923bec73e23a9662efc9c229c6a00a26469706673582212206626b0592f92ac934c9fbc1bcc4e04251309b2c3cdb0356e5d4f27a96f0758f764736f6c634300081c0033",
  "linkReferences": {},
  "deployedLinkReferences": {}
}