{
  "_format": "hh-sol-artifact-1",
  "contractName": "PersonaFragments",
  "sourceName": "contracts/social/PersonaFragments.sol",
  "abi": [
    {
      "inputs": [],
      "name": "ECDSAInvalidSignature",
      "type": "error"
    },
    {
      "inputs": [
        {
          "internalType": "uint256",
          "name": "length",
          "type": "uint256"
        }
      ],
      "name": "ECDSAInvalidSignatureLength",
      "type": "error"
    },
    {
      "inputs": [
        {
          "internalType": "bytes32",
          "name": "s",
          "type": "bytes32"
        }
      ],
      "name": "ECDSAInvalidSignatureS",
      "type": "error"
    },
    {
      "inputs": [],
      "name": "FailedCall",
      "type": "error"
    },
    {
      "inputs": [
        {
          "internalType": "uint256",
          "name": "balance",
          "type": "uint256"
        },
        {
          "internalType": "uint256",
          "name": "needed",
          "type": "uint256"
        }
      ],
      "name": "InsufficientBalance",
      "type": "error"
    },
    {
      "inputs": [],
      "name": "InvalidInitialization",
      "type": "error"
    },
    {
      "inputs": [],
      "name": "NotInitializing",
      "type": "error"
    },
    {
      "inputs": [
        {
          "internalType": "address",
          "name": "owner",
          "type": "address"
        }
      ],
      "name": "OwnableInvalidOwner",
      "type": "error"
    },
    {
      "inputs": [
        {
          "internalType": "address",
          "name": "account",
          "type": "address"
        }
      ],
      "name": "OwnableUnauthorizedAccount",
      "type": "error"
    },
    {
      "inputs": [],
      "name": "ReentrancyGuardReentrantCall",
      "type": "error"
    },
    {
      "anonymous": false,
      "inputs": [
        {
          "indexed": true,
          "internalType": "address",
          "name": "verifier",
          "type": "address"
        }
      ],
      "name": "HoldingVerifierUpdated",
      "type": "event"
    },
    {
      "anonymous": false,
      "inputs": [
        {
          "indexed": false,
          "internalType": "uint64",
          "name": "version",
          "type": "uint64"
        }
      ],
      "name": "Initialized",
      "type": "event"
    },
    {
      "anonymous": false,
      "inputs": [
        {
          "indexed": true,
          "internalType": "address",
          "name": "previousOwner",
          "type": "address"
        },
        {
          "indexed": true,
          "internalType": "address",
          "name": "newOwner",
          "type": "address"
        }
      ],
      "name": "OwnershipTransferred",
      "type": "event"
    },
    {
      "anonymous": false,
      "inputs": [
        {
          "indexed": false,
          "internalType": "uint256",
          "name": "rate",
          "type": "uint256"
        }
      ],
      "name": "PersonaOwnerFeeRateUpdated",
      "type": "event"
    },
    {
      "anonymous": false,
      "inputs": [
        {
          "indexed": false,
          "internalType": "uint256",
          "name": "rate",
          "type": "uint256"
        }
      ],
      "name": "ProtocolFeeRateUpdated",
      "type": "event"
    },
    {
      "anonymous": false,
      "inputs": [
        {
          "indexed": true,
          "internalType": "address",
          "name": "protocolFeeRecipient",
          "type": "address"
        }
      ],
      "name": "ProtocolFeeRecipientUpdated",
      "type": "event"
    },
    {
      "anonymous": false,
      "inputs": [
        {
          "indexed": true,
          "internalType": "address",
          "name": "trader",
          "type": "address"
        },
        {
          "indexed": true,
          "internalType": "address",
          "name": "persona",
          "type": "address"
        },
        {
          "indexed": true,
          "internalType": "bool",
          "name": "isBuy",
          "type": "bool"
        },
        {
          "indexed": false,
          "internalType": "uint256",
          "name": "amount",
          "type": "uint256"
        },
        {
          "indexed": false,
          "internalType": "uint256",
          "name": "price",
          "type": "uint256"
        },
        {
          "indexed": false,
          "internalType": "uint256",
          "name": "protocolFee",
          "type": "uint256"
        },
        {
          "indexed": false,
          "internalType": "uint256",
          "name": "personaFee",
          "type": "uint256"
        },
        {
          "indexed": false,
          "internalType": "uint256",
          "name": "holdingReward",
          "type": "uint256"
        },
        {
          "indexed": false,
          "internalType": "uint256",
          "name": "supply",
          "type": "uint256"
        }
      ],
      "name": "TradeExecuted",
      "type": "event"
    },
    {
      "inputs": [
        {
          "internalType": "address",
          "name": "",
          "type": "address"
        },
        {
          "internalType": "address",
          "name": "",
          "type": "address"
        }
      ],
      "name": "balance",
      "outputs": [
        {
          "internalType": "uint256",
          "name": "",
          "type": "uint256"
        }
      ],
      "stateMutability": "view",
      "type": "function"
    },
    {
      "inputs": [
        {
          "internalType": "address",
          "name": "persona",
          "type": "address"
        },
        {
          "internalType": "uint256",
          "name": "amount",
          "type": "uint256"
        },
        {
          "internalType": "uint256",
          "name": "rewardRatio",
          "type": "uint256"
        },
        {
          "internalType": "bytes",
          "name": "holdingRewardSignature",
          "type": "bytes"
        }
      ],
      "name": "buy",
      "outputs": [],
      "stateMutability": "payable",
      "type": "function"
    },
    {
      "inputs": [
        {
          "internalType": "uint256",
          "name": "baseAmount",
          "type": "uint256"
        },
        {
          "internalType": "uint256",
          "name": "rewardRatio",
          "type": "uint256"
        },
        {
          "internalType": "bytes",
          "name": "signature",
          "type": "bytes"
        }
      ],
      "name": "calculateHoldingReward",
      "outputs": [
        {
          "internalType": "uint256",
          "name": "",
          "type": "uint256"
        }
      ],
      "stateMutability": "view",
      "type": "function"
    },
    {
      "inputs": [
        {
          "internalType": "address",
          "name": "persona",
          "type": "address"
        },
        {
          "internalType": "uint256",
          "name": "amount",
          "type": "uint256"
        }
      ],
      "name": "getBuyPrice",
      "outputs": [
        {
          "internalType": "uint256",
          "name": "",
          "type": "uint256"
        }
      ],
      "stateMutability": "view",
      "type": "function"
    },
    {
      "inputs": [
        {
          "internalType": "address",
          "name": "persona",
          "type": "address"
        },
        {
          "internalType": "uint256",
          "name": "amount",
          "type": "uint256"
        }
      ],
      "name": "getBuyPriceAfterFee",
      "outputs": [
        {
          "internalType": "uint256",
          "name": "",
          "type": "uint256"
        }
      ],
      "stateMutability": "view",
      "type": "function"
    },
    {
      "inputs": [
        {
          "internalType": "uint256",
          "name": "_supply",
          "type": "uint256"
        },
        {
          "internalType": "uint256",
          "name": "amount",
          "type": "uint256"
        }
      ],
      "name": "getPrice",
      "outputs": [
        {
          "internalType": "uint256",
          "name": "",
          "type": "uint256"
        }
      ],
      "stateMutability": "view",
      "type": "function"
    },
    {
      "inputs": [
        {
          "internalType": "address",
          "name": "persona",
          "type": "address"
        },
        {
          "internalType": "uint256",
          "name": "amount",
          "type": "uint256"
        }
      ],
      "name": "getSellPrice",
      "outputs": [
        {
          "internalType": "uint256",
          "name": "",
          "type": "uint256"
        }
      ],
      "stateMutability": "view",
      "type": "function"
    },
    {
      "inputs": [
        {
          "internalType": "address",
          "name": "persona",
          "type": "address"
        },
        {
          "internalType": "uint256",
          "name": "amount",
          "type": "uint256"
        }
      ],
      "name": "getSellPriceAfterFee",
      "outputs": [
        {
          "internalType": "uint256",
          "name": "",
          "type": "uint256"
        }
      ],
      "stateMutability": "view",
      "type": "function"
    },
    {
      "inputs": [],
      "name": "holdingVerifier",
      "outputs": [
        {
          "internalType": "address",
          "name": "",
          "type": "address"
        }
      ],
      "stateMutability": "view",
      "type": "function"
    },
    {
      "inputs": [
        {
          "internalType": "address payable",
          "name": "_protocolFeeRecipient",
          "type": "address"
        },
        {
          "internalType": "uint256",
          "name": "_protocolFeeRate",
          "type": "uint256"
        },
        {
          "internalType": "uint256",
          "name": "_personaOwnerFeeRate",
          "type": "uint256"
        },
        {
          "internalType": "uint256",
          "name": "_priceIncrementPerFragment",
          "type": "uint256"
        },
        {
          "internalType": "address",
          "name": "_holdingVerifier",
          "type": "address"
        }
      ],
      "name": "initialize",
      "outputs": [],
      "stateMutability": "nonpayable",
      "type": "function"
    },
    {
      "inputs": [],
      "name": "owner",
      "outputs": [
        {
          "internalType": "address",
          "name": "",
          "type": "address"
        }
      ],
      "stateMutability": "view",
      "type": "function"
    },
    {
      "inputs": [],
      "name": "personaOwnerFeeRate",
      "outputs": [
        {
          "internalType": "uint256",
          "name": "",
          "type": "uint256"
        }
      ],
      "stateMutability": "view",
      "type": "function"
    },
    {
      "inputs": [],
      "name": "priceIncrementPerFragment",
      "outputs": [
        {
          "internalType": "uint256",
          "name": "",
          "type": "uint256"
        }
      ],
      "stateMutability": "view",
      "type": "function"
    },
    {
      "inputs": [],
      "name": "protocolFeeRate",
      "outputs": [
        {
          "internalType": "uint256",
          "name": "",
          "type": "uint256"
        }
      ],
      "stateMutability": "view",
      "type": "function"
    },
    {
      "inputs": [],
      "name": "protocolFeeRecipient",
      "outputs": [
        {
          "internalType": "address payable",
          "name": "",
          "type": "address"
        }
      ],
      "stateMutability": "view",
      "type": "function"
    },
    {
      "inputs": [],
      "name": "renounceOwnership",
      "outputs": [],
      "stateMutability": "nonpayable",
      "type": "function"
    },
    {
      "inputs": [
        {
          "internalType": "address",
          "name": "persona",
          "type": "address"
        },
        {
          "internalType": "uint256",
          "name": "amount",
          "type": "uint256"
        },
        {
          "internalType": "uint256",
          "name": "rewardRatio",
          "type": "uint256"
        },
        {
          "internalType": "bytes",
          "name": "holdingRewardSignature",
          "type": "bytes"
        }
      ],
      "name": "sell",
      "outputs": [],
      "stateMutability": "nonpayable",
      "type": "function"
    },
    {
      "inputs": [
        {
          "internalType": "uint256",
          "name": "_rate",
          "type": "uint256"
        }
      ],
      "name": "setPersonaOwnerFeeRate",
      "outputs": [],
      "stateMutability": "nonpayable",
      "type": "function"
    },
    {
      "inputs": [
        {
          "internalType": "address",
          "name": "",
          "type": "address"
        }
      ],
      "name": "supply",
      "outputs": [
        {
          "internalType": "uint256",
          "name": "",
          "type": "uint256"
        }
      ],
      "stateMutability": "view",
      "type": "function"
    },
    {
      "inputs": [
        {
          "internalType": "address",
          "name": "newOwner",
          "type": "address"
        }
      ],
      "name": "transferOwnership",
      "outputs": [],
      "stateMutability": "nonpayable",
      "type": "function"
    },
    {
      "inputs": [
        {
          "internalType": "address",
          "name": "_verifier",
          "type": "address"
        }
      ],
      "name": "updateHoldingVerifier",
      "outputs": [],
      "stateMutability": "nonpayable",
      "type": "function"
    },
    {
      "inputs": [
        {
          "internalType": "uint256",
          "name": "_rate",
          "type": "uint256"
        }
      ],
      "name": "updateProtocolFeeRate",
      "outputs": [],
      "stateMutability": "nonpayable",
      "type": "function"
    },
    {
      "inputs": [
        {
          "internalType": "address payable",
          "name": "_protocolFeeRecipient",
          "type": "address"
        }
      ],
      "name": "updateProtocolFeeRecipient",
      "outputs": [],
      "stateMutability": "nonpayable",
      "type": "function"
    }
  ],
  "bytecode": "0x608080604052346015576113c2908161001b8239f35b600080fdfe6080604052600436101561001257600080fd5b60003560e01c80630f026f6d14610c4b57806319ae58f014610c115780631c0144de14610bb15780631df47f8014610b445780632267a89c14610aee5780633581f5bb1461091b5780634635256e146108f457806358f85880146108d65780635cf4ee91146108b25780636340d55c1461085257806364df049e146108295780636c025572146106245780636c28e3491461038d578063715018a6146103235780638da5cb5b146102ed5780639ae71781146102c65780639dc446d11461029d578063b203bb991461023c578063bababbb8146101f3578063d0796bc114610185578063d28b253e14610167578063f2fde38b1461013c5763f5ca60dd1461011957600080fd5b34610137576000366003190112610137576020600354604051908152f35b600080fd5b3461013757602036600319011261013757610165610158610ca1565b6101606110b6565b611040565b005b34610137576000366003190112610137576020600454604051908152f35b346101375760203660031901126101375761019e610ca1565b6101a66110b6565b6001600160a01b03166101ba811515610e9e565b600280546001600160a01b031916821790557f3988ebfb0c33faf605fb350301ca0a21968c8582d29bcbc1fe992b21e81a8e90600080a2005b346101375760603660031901126101375760443567ffffffffffffffff8111610137576102346102296020923690600401610d0b565b602435600435610f1b565b604051908152f35b3461013757604036600319011261013757610255610ca1565b602435906001600160a01b03821682036101375760018060a01b0316600052600560205260406000209060018060a01b03166000526020526020604060002054604051908152f35b34610137576000366003190112610137576002546040516001600160a01b039091168152602090f35b346101375760403660031901126101375760206102346102e4610ca1565b60243590610eea565b346101375760003660031901126101375760008051602061132d833981519152546040516001600160a01b039091168152602090f35b346101375760003660031901126101375761033c6110b6565b60008051602061132d83398151915280546001600160a01b031981169091556000906001600160a01b03167f8be0079c531659141344cd1fd0a4f28419497f9722a3daafe3b4186f6b6457e08280a3005b346101375760a0366003190112610137576103a6610ca1565b6084356001600160a01b038116919060443590602435908490036101375760008051602061136d833981519152549160ff8360401c16159367ffffffffffffffff84168015908161061c575b6001149081610612575b159081610609575b506105f857602080937f9d2a5010795914ccbdd5a4cdee6a9aa2addac5e44443b519897523b67ddfe9fc927fed04daa5d736fa43050f342c6ea11e6d6b9fd1382af2abd8a3d37dbdaef016fa9688600167ffffffffffffffff1983161760008051602061136d833981519152556105cb575b5061047f6111a5565b6104876111a5565b61049033611040565b6104986111a5565b6104a06111a5565b600160008051602061134d833981519152556001600160a01b0316906104c7821515610e1f565b6104d2891515610e9e565b816bffffffffffffffffffffffff60a01b60005416176000558060015584600455606435600355886bffffffffffffffffffffffff60a01b6002541617600255604051917fc1b5345cce283376356748dc57f2dfa7120431d016fc7ca9ba641bc65f91411d600080a28152a1604051908152a1604051917f3988ebfb0c33faf605fb350301ca0a21968c8582d29bcbc1fe992b21e81a8e90600080a261057457005b60207fc7f505b2f371ae2175ee4913f4499e1f2633a7b5936321eed1cdaeb6115181d29168ff00000000000000001960008051602061136d833981519152541660008051602061136d8339815191525560018152a1005b68ffffffffffffffffff1916680100000000000000011760008051602061136d8339815191525589610476565b63f92ee8a960e01b60005260046000fd5b90501587610404565b303b1591506103fc565b8691506103f2565b61062d36610d52565b61063a8385949394610e78565b90600260008051602061134d83398151915254146108185761068861068f91600260008051602061134d83398151915255670de0b6b3a764000061068060015486610d9d565b049586610f1b565b8094610e6b565b926106af81670de0b6b3a76400006106a960045486610d9d565b04610dc6565b6106c2816106bd8786610dc6565b610dc6565b34106107dc57600195868060a01b0316948560005260056020526040600020878060a01b03331660005260205260406000206106ff868254610dc6565b9055856000526006602052604060002061071a868254610dc6565b905561072f81888060a01b036000541661112b565b610739828761112b565b610747826106bd8387610dc6565b34116107b7575b85600052600660205260406000205493604051958652602086015260408501526060840152608083015260a08201527f9ce8a552d9a28a585b4d3bd87da383f1f7ee25a97365977f122cf1b2a1fcaa4660c03392a4600160008051602061134d83398151915255005b6107d76107d1836107cc846107cc8934610e6b565b610e6b565b3361112b565b61074e565b60405162461bcd60e51b8152602060048201526014602482015273125b9cdd59999a58da595b9d081c185e5b595b9d60621b6044820152606490fd5b633ee5aeb560e01b60005260046000fd5b34610137576000366003190112610137576000546040516001600160a01b039091168152602090f35b34610137576020366003190112610137577f9d2a5010795914ccbdd5a4cdee6a9aa2addac5e44443b519897523b67ddfe9fc60206004356108916110b6565b6108a5670de0b6b3a7640000821115610dd3565b80600155604051908152a1005b346101375760403660031901126101375760206102346003546024356004356110ec565b34610137576000366003190112610137576020600154604051908152f35b34610137576040366003190112610137576020610234610912610ca1565b60243590610e78565b346101375761092936610d52565b6109368385949395610eea565b90600260008051602061134d83398151915254146108185761098461098b91600260008051602061134d83398151915255670de0b6b3a764000061097c60015486610d9d565b049687610f1b565b8095610e6b565b936109a581670de0b6b3a76400006106a960045486610d9d565b6001600160a01b0390941660008181526005602090815260408083203384529091529020549094908411610ab25760009585875260056020526040872060018060a01b0333168852602052604087206109ff868254610e6b565b9055858752600660205260408720610a18868254610e6b565b9055610a2b6107d1836107cc8488610e6b565b8654610a419082906001600160a01b031661112b565b610a4b828761112b565b8587526006602052604087205493604051958652602086015260408501526060840152608083015260a08201527f9ce8a552d9a28a585b4d3bd87da383f1f7ee25a97365977f122cf1b2a1fcaa4660c03392a4600160008051602061134d83398151915255005b60405162461bcd60e51b8152602060048201526014602482015273496e73756666696369656e742062616c616e636560601b6044820152606490fd5b34610137576040366003190112610137576020610234610b0f6102e4610ca1565b6107cc670de0b6b3a7640000610b2760015484610d9d565b04670de0b6b3a7640000610b3d60045485610d9d565b0492610e6b565b3461013757602036600319011261013757610b5d610ca1565b610b656110b6565b6001600160a01b0316610b79811515610e1f565b600080546001600160a01b031916821781557fc1b5345cce283376356748dc57f2dfa7120431d016fc7ca9ba641bc65f91411d9080a2005b34610137576020366003190112610137577fed04daa5d736fa43050f342c6ea11e6d6b9fd1382af2abd8a3d37dbdaef016fa6020600435610bf06110b6565b610c04670de0b6b3a7640000821115610dd3565b80600455604051908152a1005b34610137576020366003190112610137576001600160a01b03610c32610ca1565b1660005260066020526020604060002054604051908152f35b34610137576040366003190112610137576020610234610c6c610912610ca1565b6106bd670de0b6b3a7640000610c8460015484610d9d565b04670de0b6b3a7640000610c9a60045485610d9d565b0492610dc6565b600435906001600160a01b038216820361013757565b90601f8019910116810190811067ffffffffffffffff821117610cd957604052565b634e487b7160e01b600052604160045260246000fd5b67ffffffffffffffff8111610cd957601f01601f191660200190565b81601f8201121561013757803590610d2282610cef565b92610d306040519485610cb7565b8284526020838301011161013757816000926020809301838601378301015290565b906080600319830112610137576004356001600160a01b0381168103610137579160243591604435916064359067ffffffffffffffff821161013757610d9a91600401610d0b565b90565b81810292918115918404141715610db057565b634e487b7160e01b600052601160045260246000fd5b91908201809211610db057565b15610dda57565b60405162461bcd60e51b815260206004820152601860248201527f46656520726174652065786365656473206d6178696d756d00000000000000006044820152606490fd5b15610e2657565b60405162461bcd60e51b815260206004820152601e60248201527f496e76616c69642070726f746f636f6c2066656520726563697069656e7400006044820152606490fd5b91908203918211610db057565b6001600160a01b0316600090815260066020526040902054600354610d9a9290916110ec565b15610ea557565b60405162461bcd60e51b815260206004820152601860248201527f496e76616c6964207665726966696572206164647265737300000000000000006044820152606490fd5b6001600160a01b0316600090815260066020526040902054600354610d9a929091610f16908290610e6b565b6110ec565b909180511561103857670de0b6b3a76400008311610ffb57610f8e610f9791604051602081019085825286604082015260408152610f5a606082610cb7565b5190207f19457468657265756d205369676e6564204d6573736167653a0a333200000000600052601c52603c6000206111d3565b9092919261120f565b6002546001600160a01b03908116911603610fc357670de0b6b3a764000091610fbf91610d9d565b0490565b60405162461bcd60e51b815260206004820152601060248201526f24b73b30b634b2103b32b934b334b2b960811b6044820152606490fd5b60405162461bcd60e51b81526020600482015260156024820152740a4caeec2e4c840e4c2e8d2de40e8dede40d0d2ced605b1b6044820152606490fd5b505050600090565b6001600160a01b031680156110a05760008051602061132d83398151915280546001600160a01b0319811683179091556001600160a01b03167f8be0079c531659141344cd1fd0a4f28419497f9722a3daafe3b4186f6b6457e0600080a3565b631e4fbdf760e01b600052600060045260246000fd5b60008051602061132d833981519152546001600160a01b031633036110d757565b63118cdaa760e01b6000523360045260246000fd5b6111239061111d610d9a9461111d816111188761111261110c8489610d9d565b84610dc6565b96610dc6565b610d9d565b90610dc6565b60011c610d9d565b81471061118c576000918291829182916001600160a01b03165af13d15611187573d61115681610cef565b906111646040519283610cb7565b8152600060203d92013e5b1561117657565b63d6bda27560e01b60005260046000fd5b61116f565b504763cf47918160e01b60005260045260245260446000fd5b60ff60008051602061136d8339815191525460401c16156111c257565b631afcd79f60e31b60005260046000fd5b8151919060418303611204576111fd92506020820151906060604084015193015160001a90611297565b9192909190565b505060009160029190565b9190916004811015611281578061122557509050565b6000600182036112405763f645eedf60e01b60005260046000fd5b506002810361125e578263fce698f760e01b60005260045260246000fd5b909160036000921461126e575050565b6335e2f38360e21b825260045260249150fd5b634e487b7160e01b600052602160045260246000fd5b91907f7fffffffffffffffffffffffffffffff5d576e7357a4501ddfe92f46681b20a08411611320579160209360809260ff60009560405194855216868401526040830152606082015282805260015afa15611314576000516001600160a01b038116156113085790600090600090565b50600090600190600090565b6040513d6000823e3d90fd5b5050506000916003919056fe9016d09d72d40fdae2fd8ceac6b6234c7706214fd39c1cd1e609a0528c1993009b779b17422d0df92223018b32b4d1fa46e071723d6817e2486d003becc55f00f0c57e16840df040f15088dc2f81fe391c3923bec73e23a9662efc9c229c6a00a2646970667358221220d562626bc817479df41d9f97e2271eb0f22a80e737cd8eb7cfbc23de0b31848d64736f6c634300081c0033",
  "linkReferences": {},
  "deployedLinkReferences": {}
}