{
  "_format": "hh-sol-artifact-1",
  "contractName": "ClanEmblems",
  "sourceName": "contracts/social/ClanEmblems.sol",
  "abi": [
    {
      "inputs": [],
      "name": "ECDSAInvalidSignature",
      "type": "error"
    },
    {
      "inputs": [
        {
          "internalType": "uint256",
          "name": "length",
          "type": "uint256"
        }
      ],
      "name": "ECDSAInvalidSignatureLength",
      "type": "error"
    },
    {
      "inputs": [
        {
          "internalType": "bytes32",
          "name": "s",
          "type": "bytes32"
        }
      ],
      "name": "ECDSAInvalidSignatureS",
      "type": "error"
    },
    {
      "inputs": [],
      "name": "FailedCall",
      "type": "error"
    },
    {
      "inputs": [
        {
          "internalType": "uint256",
          "name": "balance",
          "type": "uint256"
        },
        {
          "internalType": "uint256",
          "name": "needed",
          "type": "uint256"
        }
      ],
      "name": "InsufficientBalance",
      "type": "error"
    },
    {
      "inputs": [],
      "name": "InvalidInitialization",
      "type": "error"
    },
    {
      "inputs": [],
      "name": "NotInitializing",
      "type": "error"
    },
    {
      "inputs": [
        {
          "internalType": "address",
          "name": "owner",
          "type": "address"
        }
      ],
      "name": "OwnableInvalidOwner",
      "type": "error"
    },
    {
      "inputs": [
        {
          "internalType": "address",
          "name": "account",
          "type": "address"
        }
      ],
      "name": "OwnableUnauthorizedAccount",
      "type": "error"
    },
    {
      "inputs": [],
      "name": "ReentrancyGuardReentrantCall",
      "type": "error"
    },
    {
      "anonymous": false,
      "inputs": [
        {
          "indexed": true,
          "internalType": "address",
          "name": "clanOwner",
          "type": "address"
        },
        {
          "indexed": true,
          "internalType": "uint256",
          "name": "clanId",
          "type": "uint256"
        },
        {
          "indexed": false,
          "internalType": "bytes32",
          "name": "metadataHash",
          "type": "bytes32"
        }
      ],
      "name": "ClanCreated",
      "type": "event"
    },
    {
      "anonymous": false,
      "inputs": [
        {
          "indexed": true,
          "internalType": "uint256",
          "name": "clanId",
          "type": "uint256"
        }
      ],
      "name": "ClanDeleted",
      "type": "event"
    },
    {
      "anonymous": false,
      "inputs": [
        {
          "indexed": false,
          "internalType": "uint256",
          "name": "rate",
          "type": "uint256"
        }
      ],
      "name": "ClanFeeRateUpdated",
      "type": "event"
    },
    {
      "anonymous": false,
      "inputs": [
        {
          "indexed": true,
          "internalType": "uint256",
          "name": "clanId",
          "type": "uint256"
        },
        {
          "indexed": true,
          "internalType": "address",
          "name": "previousOwner",
          "type": "address"
        },
        {
          "indexed": true,
          "internalType": "address",
          "name": "newOwner",
          "type": "address"
        }
      ],
      "name": "ClanOwnershipTransferred",
      "type": "event"
    },
    {
      "anonymous": false,
      "inputs": [
        {
          "indexed": true,
          "internalType": "uint256",
          "name": "clanId",
          "type": "uint256"
        },
        {
          "indexed": false,
          "internalType": "uint256",
          "name": "amount",
          "type": "uint256"
        }
      ],
      "name": "FeesWithdrawn",
      "type": "event"
    },
    {
      "anonymous": false,
      "inputs": [
        {
          "indexed": true,
          "internalType": "address",
          "name": "verifier",
          "type": "address"
        }
      ],
      "name": "HoldingVerifierUpdated",
      "type": "event"
    },
    {
      "anonymous": false,
      "inputs": [
        {
          "indexed": false,
          "internalType": "uint64",
          "name": "version",
          "type": "uint64"
        }
      ],
      "name": "Initialized",
      "type": "event"
    },
    {
      "anonymous": false,
      "inputs": [
        {
          "indexed": true,
          "internalType": "address",
          "name": "previousOwner",
          "type": "address"
        },
        {
          "indexed": true,
          "internalType": "address",
          "name": "newOwner",
          "type": "address"
        }
      ],
      "name": "OwnershipTransferred",
      "type": "event"
    },
    {
      "anonymous": false,
      "inputs": [
        {
          "indexed": false,
          "internalType": "uint256",
          "name": "rate",
          "type": "uint256"
        }
      ],
      "name": "ProtocolFeeRateUpdated",
      "type": "event"
    },
    {
      "anonymous": false,
      "inputs": [
        {
          "indexed": true,
          "internalType": "address",
          "name": "protocolFeeRecipient",
          "type": "address"
        }
      ],
      "name": "ProtocolFeeRecipientUpdated",
      "type": "event"
    },
    {
      "anonymous": false,
      "inputs": [
        {
          "indexed": true,
          "internalType": "address",
          "name": "trader",
          "type": "address"
        },
        {
          "indexed": true,
          "internalType": "uint256",
          "name": "clanId",
          "type": "uint256"
        },
        {
          "indexed": true,
          "internalType": "bool",
          "name": "isBuy",
          "type": "bool"
        },
        {
          "indexed": false,
          "internalType": "uint256",
          "name": "amount",
          "type": "uint256"
        },
        {
          "indexed": false,
          "internalType": "uint256",
          "name": "price",
          "type": "uint256"
        },
        {
          "indexed": false,
          "internalType": "uint256",
          "name": "protocolFee",
          "type": "uint256"
        },
        {
          "indexed": false,
          "internalType": "uint256",
          "name": "clanFee",
          "type": "uint256"
        },
        {
          "indexed": false,
          "internalType": "uint256",
          "name": "holdingReward",
          "type": "uint256"
        },
        {
          "indexed": false,
          "internalType": "uint256",
          "name": "supply",
          "type": "uint256"
        }
      ],
      "name": "TradeExecuted",
      "type": "event"
    },
    {
      "inputs": [
        {
          "internalType": "uint256",
          "name": "",
          "type": "uint256"
        },
        {
          "internalType": "address",
          "name": "",
          "type": "address"
        }
      ],
      "name": "balance",
      "outputs": [
        {
          "internalType": "uint256",
          "name": "",
          "type": "uint256"
        }
      ],
      "stateMutability": "view",
      "type": "function"
    },
    {
      "inputs": [
        {
          "internalType": "uint256",
          "name": "clanId",
          "type": "uint256"
        },
        {
          "internalType": "uint256",
          "name": "amount",
          "type": "uint256"
        },
        {
          "internalType": "uint256",
          "name": "rewardRatio",
          "type": "uint256"
        },
        {
          "internalType": "bytes",
          "name": "holdingRewardSignature",
          "type": "bytes"
        }
      ],
      "name": "buy",
      "outputs": [],
      "stateMutability": "payable",
      "type": "function"
    },
    {
      "inputs": [
        {
          "internalType": "uint256",
          "name": "baseAmount",
          "type": "uint256"
        },
        {
          "internalType": "uint256",
          "name": "rewardRatio",
          "type": "uint256"
        },
        {
          "internalType": "bytes",
          "name": "signature",
          "type": "bytes"
        }
      ],
      "name": "calculateHoldingReward",
      "outputs": [
        {
          "internalType": "uint256",
          "name": "",
          "type": "uint256"
        }
      ],
      "stateMutability": "view",
      "type": "function"
    },
    {
      "inputs": [],
      "name": "clanFeeRate",
      "outputs": [
        {
          "internalType": "uint256",
          "name": "",
          "type": "uint256"
        }
      ],
      "stateMutability": "view",
      "type": "function"
    },
    {
      "inputs": [
        {
          "internalType": "uint256",
          "name": "",
          "type": "uint256"
        }
      ],
      "name": "clans",
      "outputs": [
        {
          "internalType": "address",
          "name": "owner",
          "type": "address"
        },
        {
          "internalType": "uint256",
          "name": "accumulatedFees",
          "type": "uint256"
        }
      ],
      "stateMutability": "view",
      "type": "function"
    },
    {
      "inputs": [
        {
          "internalType": "bytes32",
          "name": "metadataHash",
          "type": "bytes32"
        }
      ],
      "name": "createClan",
      "outputs": [
        {
          "internalType": "uint256",
          "name": "clanId",
          "type": "uint256"
        }
      ],
      "stateMutability": "nonpayable",
      "type": "function"
    },
    {
      "inputs": [
        {
          "internalType": "uint256",
          "name": "clanId",
          "type": "uint256"
        }
      ],
      "name": "deleteClan",
      "outputs": [],
      "stateMutability": "nonpayable",
      "type": "function"
    },
    {
      "inputs": [
        {
          "internalType": "uint256",
          "name": "clanId",
          "type": "uint256"
        },
        {
          "internalType": "uint256",
          "name": "amount",
          "type": "uint256"
        }
      ],
      "name": "getBuyPrice",
      "outputs": [
        {
          "internalType": "uint256",
          "name": "",
          "type": "uint256"
        }
      ],
      "stateMutability": "view",
      "type": "function"
    },
    {
      "inputs": [
        {
          "internalType": "uint256",
          "name": "clanId",
          "type": "uint256"
        },
        {
          "internalType": "uint256",
          "name": "amount",
          "type": "uint256"
        }
      ],
      "name": "getBuyPriceAfterFee",
      "outputs": [
        {
          "internalType": "uint256",
          "name": "",
          "type": "uint256"
        }
      ],
      "stateMutability": "view",
      "type": "function"
    },
    {
      "inputs": [
        {
          "internalType": "uint256",
          "name": "_supply",
          "type": "uint256"
        },
        {
          "internalType": "uint256",
          "name": "amount",
          "type": "uint256"
        }
      ],
      "name": "getPrice",
      "outputs": [
        {
          "internalType": "uint256",
          "name": "",
          "type": "uint256"
        }
      ],
      "stateMutability": "view",
      "type": "function"
    },
    {
      "inputs": [
        {
          "internalType": "uint256",
          "name": "clanId",
          "type": "uint256"
        },
        {
          "internalType": "uint256",
          "name": "amount",
          "type": "uint256"
        }
      ],
      "name": "getSellPrice",
      "outputs": [
        {
          "internalType": "uint256",
          "name": "",
          "type": "uint256"
        }
      ],
      "stateMutability": "view",
      "type": "function"
    },
    {
      "inputs": [
        {
          "internalType": "uint256",
          "name": "clanId",
          "type": "uint256"
        },
        {
          "internalType": "uint256",
          "name": "amount",
          "type": "uint256"
        }
      ],
      "name": "getSellPriceAfterFee",
      "outputs": [
        {
          "internalType": "uint256",
          "name": "",
          "type": "uint256"
        }
      ],
      "stateMutability": "view",
      "type": "function"
    },
    {
      "inputs": [],
      "name": "holdingVerifier",
      "outputs": [
        {
          "internalType": "address",
          "name": "",
          "type": "address"
        }
      ],
      "stateMutability": "view",
      "type": "function"
    },
    {
      "inputs": [
        {
          "internalType": "address payable",
          "name": "_protocolFeeRecipient",
          "type": "address"
        },
        {
          "internalType": "uint256",
          "name": "_protocolFeeRate",
          "type": "uint256"
        },
        {
          "internalType": "uint256",
          "name": "_clanFeeRate",
          "type": "uint256"
        },
        {
          "internalType": "uint256",
          "name": "_priceIncrementPerEmblem",
          "type": "uint256"
        },
        {
          "internalType": "address",
          "name": "_holdingVerifier",
          "type": "address"
        }
      ],
      "name": "initialize",
      "outputs": [],
      "stateMutability": "nonpayable",
      "type": "function"
    },
    {
      "inputs": [],
      "name": "nextClanId",
      "outputs": [
        {
          "internalType": "uint256",
          "name": "",
          "type": "uint256"
        }
      ],
      "stateMutability": "view",
      "type": "function"
    },
    {
      "inputs": [],
      "name": "owner",
      "outputs": [
        {
          "internalType": "address",
          "name": "",
          "type": "address"
        }
      ],
      "stateMutability": "view",
      "type": "function"
    },
    {
      "inputs": [],
      "name": "priceIncrementPerEmblem",
      "outputs": [
        {
          "internalType": "uint256",
          "name": "",
          "type": "uint256"
        }
      ],
      "stateMutability": "view",
      "type": "function"
    },
    {
      "inputs": [],
      "name": "protocolFeeRate",
      "outputs": [
        {
          "internalType": "uint256",
          "name": "",
          "type": "uint256"
        }
      ],
      "stateMutability": "view",
      "type": "function"
    },
    {
      "inputs": [],
      "name": "protocolFeeRecipient",
      "outputs": [
        {
          "internalType": "address payable",
          "name": "",
          "type": "address"
        }
      ],
      "stateMutability": "view",
      "type": "function"
    },
    {
      "inputs": [],
      "name": "renounceOwnership",
      "outputs": [],
      "stateMutability": "nonpayable",
      "type": "function"
    },
    {
      "inputs": [
        {
          "internalType": "uint256",
          "name": "clanId",
          "type": "uint256"
        },
        {
          "internalType": "uint256",
          "name": "amount",
          "type": "uint256"
        },
        {
          "internalType": "uint256",
          "name": "rewardRatio",
          "type": "uint256"
        },
        {
          "internalType": "bytes",
          "name": "holdingRewardSignature",
          "type": "bytes"
        }
      ],
      "name": "sell",
      "outputs": [],
      "stateMutability": "nonpayable",
      "type": "function"
    },
    {
      "inputs": [
        {
          "internalType": "uint256",
          "name": "_rate",
          "type": "uint256"
        }
      ],
      "name": "setClanFeeRate",
      "outputs": [],
      "stateMutability": "nonpayable",
      "type": "function"
    },
    {
      "inputs": [
        {
          "internalType": "uint256",
          "name": "",
          "type": "uint256"
        }
      ],
      "name": "supply",
      "outputs": [
        {
          "internalType": "uint256",
          "name": "",
          "type": "uint256"
        }
      ],
      "stateMutability": "view",
      "type": "function"
    },
    {
      "inputs": [
        {
          "internalType": "uint256",
          "name": "clanId",
          "type": "uint256"
        },
        {
          "internalType": "address",
          "name": "newOwner",
          "type": "address"
        }
      ],
      "name": "transferClanOwnership",
      "outputs": [],
      "stateMutability": "nonpayable",
      "type": "function"
    },
    {
      "inputs": [
        {
          "internalType": "address",
          "name": "newOwner",
          "type": "address"
        }
      ],
      "name": "transferOwnership",
      "outputs": [],
      "stateMutability": "nonpayable",
      "type": "function"
    },
    {
      "inputs": [
        {
          "internalType": "address",
          "name": "_verifier",
          "type": "address"
        }
      ],
      "name": "updateHoldingVerifier",
      "outputs": [],
      "stateMutability": "nonpayable",
      "type": "function"
    },
    {
      "inputs": [
        {
          "internalType": "uint256",
          "name": "_rate",
          "type": "uint256"
        }
      ],
      "name": "updateProtocolFeeRate",
      "outputs": [],
      "stateMutability": "nonpayable",
      "type": "function"
    },
    {
      "inputs": [
        {
          "internalType": "address payable",
          "name": "_protocolFeeRecipient",
          "type": "address"
        }
      ],
      "name": "updateProtocolFeeRecipient",
      "outputs": [],
      "stateMutability": "nonpayable",
      "type": "function"
    },
    {
      "inputs": [
        {
          "internalType": "uint256",
          "name": "clanId",
          "type": "uint256"
        }
      ],
      "name": "withdrawFees",
      "outputs": [],
      "stateMutability": "nonpayable",
      "type": "function"
    }
  ],
  "bytecode": "0x608080604052346015576117f4908161001b8239f35b600080fdfe6080604052600436101561001257600080fd5b60003560e01c8063061399341461105c578063063a741f146110115780630aa96c7414610ff35780631df47f8014610f86578063210f32ce14610e6b5780633540302314610e3f5780633c4f8ed214610da557806358f8588014610d875780635cf4ee9114610d6b5780635e318e0714610c9a5780636340d55c14610c3a57806364df049e14610c1157806366469a3a14610bd55780636c28e34914610948578063715018a6146108de578063741e4395146108c0578063757b81ef146108a25780638da5cb5b1461086c5780639477d85d146108595780639dc446d114610830578063bababbb8146107ef578063bf31b5e514610718578063bfc78b2d1461051c578063c157253d14610503578063cd9c7121146104aa578063d0796bc11461043c578063df1be920146103dc578063e940bd271461018b5763f2fde38b1461015b57600080fd5b34610186576020366003190112610186576101846101776110ba565b61017f6114e8565b611472565b005b600080fd5b346101865761019936611181565b6101a683859493956112fd565b90600260008051602061177f83398151915254146103cb57600260008051602061177f833981519152556000848152600660205260409020546001600160a01b0316156103905761021161021891670de0b6b3a7640000610209600154866111bc565b049687611323565b8095611465565b9361023881670de0b6b3a7640000610232600454866111bc565b046111cf565b600085815260076020908152604080832033845290915290205484116103545760009585875260076020526040872060018060a01b033316885260205260408720610284868254611465565b905585875260086020526040872061029d868254611465565b90556102bb6102b5836102b08488611465565b611465565b3361155d565b86546102d19082906001600160a01b031661155d565b8587526006602052600160408820016102eb8382546111cf565b90558587526008602052604087205493604051958652602086015260408501526060840152608083015260a08201527fdb3ff692232d73122ec4c7169025ae5840570be57eef95c72decce36863418b060c03392a4600160008051602061177f83398151915255005b60405162461bcd60e51b8152602060048201526014602482015273496e73756666696369656e742062616c616e636560601b6044820152606490fd5b60405162461bcd60e51b815260206004820152601360248201527210db185b88191bd95cc81b9bdd08195e1a5cdd606a1b6044820152606490fd5b633ee5aeb560e01b60005260046000fd5b34610186576020366003190112610186577f2bd6994425f2df3f5de2d7a7102cff3e7699e4fbe9d04dc886275d06a8997c74602060043561041b6114e8565b61042f670de0b6b3a7640000821115611265565b80600455604051908152a1005b34610186576020366003190112610186576104556110ba565b61045d6114e8565b6001600160a01b03166104718115156112b1565b600280546001600160a01b031916821790557f3988ebfb0c33faf605fb350301ca0a21968c8582d29bcbc1fe992b21e81a8e90600080a2005b346101865760206104fb6104c66104c0366110d0565b906112fd565b6102b0670de0b6b3a76400006104de600154846111bc565b04670de0b6b3a76400006104f4600454856111bc565b0492611465565b604051908152f35b346101865760206104fb610516366110d0565b90611448565b61052536611181565b6105328385949395611448565b90600260008051602061177f83398151915254146103cb57600260008051602061177f833981519152556000848152600660205260409020546001600160a01b0316156103905761021161059591670de0b6b3a7640000610209600154866111bc565b936105af81670de0b6b3a7640000610232600454866111bc565b6105c2816105bd88866111cf565b6111cf565b34106106dc576001958560005260076020526040600020878060a01b03331660005260205260406000206105f78682546111cf565b905585600052600860205260406000206106128682546111cf565b905561062781888060a01b036000541661155d565b856000526006602052866040600020016106428382546111cf565b9055610652826105bd83876111cf565b34116106c2575b85600052600860205260406000205493604051958652602086015260408501526060840152608083015260a08201527fdb3ff692232d73122ec4c7169025ae5840570be57eef95c72decce36863418b060c03392a4600160008051602061177f83398151915255005b6106d76102b5836102b0846102b08934611465565b610659565b60405162461bcd60e51b8152602060048201526014602482015273125b9cdd59999a58da595b9d081c185e5b595b9d60621b6044820152606490fd5b34610186576040366003190112610186576004356107346110a4565b81600052600660205261075560018060a01b03604060002054163314611228565b6001600160a01b03169081156107b657600081815260066020526040812080546001600160a01b0319811685179091556001600160a01b031691907f4d0fd2dd543382b617f686701ffce190e9fcf50af0d3ae941459f3809ef81e689080a4005b60405162461bcd60e51b815260206004820152601160248201527024b73b30b634b2103732bb9037bbb732b960791b6044820152606490fd5b346101865760603660031901126101865760443567ffffffffffffffff8111610186576104fb610825602092369060040161113a565b602435600435611323565b34610186576000366003190112610186576002546040516001600160a01b039091168152602090f35b346101865760206104fb6104c0366110d0565b346101865760003660031901126101865760008051602061175f833981519152546040516001600160a01b039091168152602090f35b34610186576000366003190112610186576020600554604051908152f35b34610186576000366003190112610186576020600354604051908152f35b34610186576000366003190112610186576108f76114e8565b60008051602061175f83398151915280546001600160a01b031981169091556000906001600160a01b03167f8be0079c531659141344cd1fd0a4f28419497f9722a3daafe3b4186f6b6457e08280a3005b346101865760a0366003190112610186576109616110ba565b6084356001600160a01b038116919060443590602435908490036101865760008051602061179f833981519152549160ff8360401c16159367ffffffffffffffff841680159081610bcd575b6001149081610bc3575b159081610bba575b50610ba957602080937f9d2a5010795914ccbdd5a4cdee6a9aa2addac5e44443b519897523b67ddfe9fc927f2bd6994425f2df3f5de2d7a7102cff3e7699e4fbe9d04dc886275d06a8997c749688600167ffffffffffffffff1983161760008051602061179f83398151915255610b7c575b50610a3a6115d7565b610a426115d7565b610a4b33611472565b610a536115d7565b610a5b6115d7565b600160008051602061177f833981519152556001600160a01b031690610a828215156111dc565b610a8d8915156112b1565b816001600160601b0360a01b60005416176000558060015584600455606435600355886001600160601b0360a01b6002541617600255604051917fc1b5345cce283376356748dc57f2dfa7120431d016fc7ca9ba641bc65f91411d600080a28152a1604051908152a1604051917f3988ebfb0c33faf605fb350301ca0a21968c8582d29bcbc1fe992b21e81a8e90600080a2610b2557005b60207fc7f505b2f371ae2175ee4913f4499e1f2633a7b5936321eed1cdaeb6115181d29168ff00000000000000001960008051602061179f833981519152541660008051602061179f8339815191525560018152a1005b68ffffffffffffffffff1916680100000000000000011760008051602061179f8339815191525589610a31565b63f92ee8a960e01b60005260046000fd5b905015876109bf565b303b1591506109b7565b8691506109ad565b346101865760203660031901126101865760043560005260066020526040806000206001808060a01b0382541691015482519182526020820152f35b34610186576000366003190112610186576000546040516001600160a01b039091168152602090f35b34610186576020366003190112610186577f9d2a5010795914ccbdd5a4cdee6a9aa2addac5e44443b519897523b67ddfe9fc6020600435610c796114e8565b610c8d670de0b6b3a7640000821115611265565b80600155604051908152a1005b3461018657602036600319011261018657600435806000526006602052610ccf60018060a01b03604060002054163314611228565b8060005260066020526001604060002001548015610d305760207fd9787bf70d3926a4a81c52cba8799d18903ce0132aaa4b7de9e92dc893303a7f91836000526006825260006001604082200155610d27813361155d565b604051908152a2005b60405162461bcd60e51b81526020600482015260136024820152724e6f206665657320746f20776974686472617760681b6044820152606490fd5b346101865760206104fb610d7e366110d0565b6003549161151e565b34610186576000366003190112610186576020600154604051908152f35b34610186576020366003190112610186576005546000198114610e2957806001602092016005558060005260068252604060002060018060a01b0333166001600160601b0360a01b8254161790558060405160043581527f08dac87b2deb51638131c40c51b8e21ffdb412716195978d2c22798bd2c50e5f843392a3604051908152f35b634e487b7160e01b600052601160045260246000fd5b346101865760203660031901126101865760043560005260086020526020604060002054604051908152f35b3461018657602036600319011261018657600435806000526006602052610ea060018060a01b03604060002054163314611228565b806000526008602052604060002054610f4b57806000526006602052600160406000200154610f0657806000526006602052600060016040822082815501557f9e48fdefe80cf4cfb07116358f0025cad1acef007d63b4fa71f7d7eeb9085da4600080a2005b60405162461bcd60e51b815260206004820152601860248201527f4d757374207769746864726177206665657320666972737400000000000000006044820152606490fd5b60405162461bcd60e51b8152602060048201526013602482015272537570706c79206d757374206265207a65726f60681b6044820152606490fd5b3461018657602036600319011261018657610f9f6110ba565b610fa76114e8565b6001600160a01b0316610fbb8115156111dc565b600080546001600160a01b031916821781557fc1b5345cce283376356748dc57f2dfa7120431d016fc7ca9ba641bc65f91411d9080a2005b34610186576000366003190112610186576020600454604051908152f35b346101865760206104fb611027610516366110d0565b6105bd670de0b6b3a764000061103f600154846111bc565b04670de0b6b3a7640000611055600454856111bc565b04926111cf565b34610186576040366003190112610186576110756110a4565b600435600052600760205260406000209060018060a01b03166000526020526020604060002054604051908152f35b602435906001600160a01b038216820361018657565b600435906001600160a01b038216820361018657565b6040906003190112610186576004359060243590565b90601f8019910116810190811067ffffffffffffffff82111761110857604052565b634e487b7160e01b600052604160045260246000fd5b67ffffffffffffffff811161110857601f01601f191660200190565b81601f82011215610186578035906111518261111e565b9261115f60405194856110e6565b8284526020838301011161018657816000926020809301838601378301015290565b906080600319830112610186576004359160243591604435916064359067ffffffffffffffff8211610186576111b99160040161113a565b90565b81810292918115918404141715610e2957565b91908201809211610e2957565b156111e357565b60405162461bcd60e51b815260206004820152601e60248201527f496e76616c69642070726f746f636f6c2066656520726563697069656e7400006044820152606490fd5b1561122f57565b60405162461bcd60e51b815260206004820152600e60248201526d2737ba1031b630b71037bbb732b960911b6044820152606490fd5b1561126c57565b60405162461bcd60e51b815260206004820152601860248201527f46656520726174652065786365656473206d6178696d756d00000000000000006044820152606490fd5b156112b857565b60405162461bcd60e51b815260206004820152601860248201527f496e76616c6964207665726966696572206164647265737300000000000000006044820152606490fd5b906111b99160005260086020526040600020549061131e8160035493611465565b61151e565b909180511561144057670de0b6b3a764000083116114035761139661139f916040516020810190858252866040820152604081526113626060826110e6565b5190207f19457468657265756d205369676e6564204d6573736167653a0a333200000000600052601c52603c600020611605565b90929192611641565b6002546001600160a01b039081169116036113cb57670de0b6b3a7640000916113c7916111bc565b0490565b60405162461bcd60e51b815260206004820152601060248201526f24b73b30b634b2103b32b934b334b2b960811b6044820152606490fd5b60405162461bcd60e51b81526020600482015260156024820152740a4caeec2e4c840e4c2e8d2de40e8dede40d0d2ced605b1b6044820152606490fd5b505050600090565b906111b9916000526008602052604060002054906003549161151e565b91908203918211610e2957565b6001600160a01b031680156114d25760008051602061175f83398151915280546001600160a01b0319811683179091556001600160a01b03167f8be0079c531659141344cd1fd0a4f28419497f9722a3daafe3b4186f6b6457e0600080a3565b631e4fbdf760e01b600052600060045260246000fd5b60008051602061175f833981519152546001600160a01b0316330361150957565b63118cdaa760e01b6000523360045260246000fd5b6115559061154f6111b99461154f8161154a8761154461153e84896111bc565b846111cf565b966111cf565b6111bc565b906111cf565b60011c6111bc565b8147106115be576000918291829182916001600160a01b03165af13d156115b9573d6115888161111e565b9061159660405192836110e6565b8152600060203d92013e5b156115a857565b63d6bda27560e01b60005260046000fd5b6115a1565b504763cf47918160e01b60005260045260245260446000fd5b60ff60008051602061179f8339815191525460401c16156115f457565b631afcd79f60e31b60005260046000fd5b81519190604183036116365761162f92506020820151906060604084015193015160001a906116c9565b9192909190565b505060009160029190565b91909160048110156116b3578061165757509050565b6000600182036116725763f645eedf60e01b60005260046000fd5b5060028103611690578263fce698f760e01b60005260045260246000fd5b90916003600092146116a0575050565b6335e2f38360e21b825260045260249150fd5b634e487b7160e01b600052602160045260246000fd5b91907f7fffffffffffffffffffffffffffffff5d576e7357a4501ddfe92f46681b20a08411611752579160209360809260ff60009560405194855216868401526040830152606082015282805260015afa15611746576000516001600160a01b0381161561173a5790600090600090565b50600090600190600090565b6040513d6000823e3d90fd5b5050506000916003919056fe9016d09d72d40fdae2fd8ceac6b6234c7706214fd39c1cd1e609a0528c1993009b779b17422d0df92223018b32b4d1fa46e071723d6817e2486d003becc55f00f0c57e16840df040f15088dc2f81fe391c3923bec73e23a9662efc9c229c6a00a26469706673582212209849bba57e4c25048bdea94351887fb49e8efed3046069d6045087784bd59c6864736f6c634300081c0033",
  "linkReferences": {},
  "deployedLinkReferences": {}
}