{
  "_format": "hh-sol-artifact-1",
  "contractName": "Material",
  "sourceName": "contracts/gaming/Material.sol",
  "abi": [
    {
      "inputs": [
        {
          "internalType": "address",
          "name": "owner_",
          "type": "address"
        },
        {
          "internalType": "string",
          "name": "name_",
          "type": "string"
        },
        {
          "internalType": "string",
          "name": "symbol_",
          "type": "string"
        }
      ],
      "stateMutability": "nonpayable",
      "type": "constructor"
    },
    {
      "inputs": [],
      "name": "ECDSAInvalidSignature",
      "type": "error"
    },
    {
      "inputs": [
        {
          "internalType": "uint256",
          "name": "length",
          "type": "uint256"
        }
      ],
      "name": "ECDSAInvalidSignatureLength",
      "type": "error"
    },
    {
      "inputs": [
        {
          "internalType": "bytes32",
          "name": "s",
          "type": "bytes32"
        }
      ],
      "name": "ECDSAInvalidSignatureS",
      "type": "error"
    },
    {
      "inputs": [
        {
          "internalType": "address",
          "name": "spender",
          "type": "address"
        },
        {
          "internalType": "uint256",
          "name": "allowance",
          "type": "uint256"
        },
        {
          "internalType": "uint256",
          "name": "needed",
          "type": "uint256"
        }
      ],
      "name": "ERC20InsufficientAllowance",
      "type": "error"
    },
    {
      "inputs": [
        {
          "internalType": "address",
          "name": "sender",
          "type": "address"
        },
        {
          "internalType": "uint256",
          "name": "balance",
          "type": "uint256"
        },
        {
          "internalType": "uint256",
          "name": "needed",
          "type": "uint256"
        }
      ],
      "name": "ERC20InsufficientBalance",
      "type": "error"
    },
    {
      "inputs": [
        {
          "internalType": "address",
          "name": "approver",
          "type": "address"
        }
      ],
      "name": "ERC20InvalidApprover",
      "type": "error"
    },
    {
      "inputs": [
        {
          "internalType": "address",
          "name": "receiver",
          "type": "address"
        }
      ],
      "name": "ERC20InvalidReceiver",
      "type": "error"
    },
    {
      "inputs": [
        {
          "internalType": "address",
          "name": "sender",
          "type": "address"
        }
      ],
      "name": "ERC20InvalidSender",
      "type": "error"
    },
    {
      "inputs": [
        {
          "internalType": "address",
          "name": "spender",
          "type": "address"
        }
      ],
      "name": "ERC20InvalidSpender",
      "type": "error"
    },
    {
      "inputs": [
        {
          "internalType": "uint256",
          "name": "deadline",
          "type": "uint256"
        }
      ],
      "name": "ERC2612ExpiredSignature",
      "type": "error"
    },
    {
      "inputs": [
        {
          "internalType": "address",
          "name": "signer",
          "type": "address"
        },
        {
          "internalType": "address",
          "name": "owner",
          "type": "address"
        }
      ],
      "name": "ERC2612InvalidSigner",
      "type": "error"
    },
    {
      "inputs": [
        {
          "internalType": "address",
          "name": "account",
          "type": "address"
        },
        {
          "internalType": "uint256",
          "name": "currentNonce",
          "type": "uint256"
        }
      ],
      "name": "InvalidAccountNonce",
      "type": "error"
    },
    {
      "inputs": [],
      "name": "InvalidShortString",
      "type": "error"
    },
    {
      "inputs": [
        {
          "internalType": "address",
          "name": "owner",
          "type": "address"
        }
      ],
      "name": "OwnableInvalidOwner",
      "type": "error"
    },
    {
      "inputs": [
        {
          "internalType": "address",
          "name": "account",
          "type": "address"
        }
      ],
      "name": "OwnableUnauthorizedAccount",
      "type": "error"
    },
    {
      "inputs": [
        {
          "internalType": "string",
          "name": "str",
          "type": "string"
        }
      ],
      "name": "StringTooLong",
      "type": "error"
    },
    {
      "anonymous": false,
      "inputs": [
        {
          "indexed": true,
          "internalType": "address",
          "name": "owner",
          "type": "address"
        },
        {
          "indexed": true,
          "internalType": "address",
          "name": "spender",
          "type": "address"
        },
        {
          "indexed": false,
          "internalType": "uint256",
          "name": "value",
          "type": "uint256"
        }
      ],
      "name": "Approval",
      "type": "event"
    },
    {
      "anonymous": false,
      "inputs": [],
      "name": "EIP712DomainChanged",
      "type": "event"
    },
    {
      "anonymous": false,
      "inputs": [
        {
          "indexed": false,
          "internalType": "string",
          "name": "name",
          "type": "string"
        }
      ],
      "name": "NameUpdated",
      "type": "event"
    },
    {
      "anonymous": false,
      "inputs": [
        {
          "indexed": true,
          "internalType": "address",
          "name": "previousOwner",
          "type": "address"
        },
        {
          "indexed": true,
          "internalType": "address",
          "name": "newOwner",
          "type": "address"
        }
      ],
      "name": "OwnershipTransferStarted",
      "type": "event"
    },
    {
      "anonymous": false,
      "inputs": [
        {
          "indexed": true,
          "internalType": "address",
          "name": "previousOwner",
          "type": "address"
        },
        {
          "indexed": true,
          "internalType": "address",
          "name": "newOwner",
          "type": "address"
        }
      ],
      "name": "OwnershipTransferred",
      "type": "event"
    },
    {
      "anonymous": false,
      "inputs": [
        {
          "indexed": false,
          "internalType": "string",
          "name": "symbol",
          "type": "string"
        }
      ],
      "name": "SymbolUpdated",
      "type": "event"
    },
    {
      "anonymous": false,
      "inputs": [
        {
          "indexed": true,
          "internalType": "address",
          "name": "from",
          "type": "address"
        },
        {
          "indexed": true,
          "internalType": "address",
          "name": "to",
          "type": "address"
        },
        {
          "indexed": false,
          "internalType": "uint256",
          "name": "value",
          "type": "uint256"
        }
      ],
      "name": "Transfer",
      "type": "event"
    },
    {
      "anonymous": false,
      "inputs": [
        {
          "indexed": true,
          "internalType": "address",
          "name": "account",
          "type": "address"
        }
      ],
      "name": "WhitelistAdded",
      "type": "event"
    },
    {
      "anonymous": false,
      "inputs": [
        {
          "indexed": true,
          "internalType": "address",
          "name": "account",
          "type": "address"
        }
      ],
      "name": "WhitelistRemoved",
      "type": "event"
    },
    {
      "inputs": [],
      "name": "DOMAIN_SEPARATOR",
      "outputs": [
        {
          "internalType": "bytes32",
          "name": "",
          "type": "bytes32"
        }
      ],
      "stateMutability": "view",
      "type": "function"
    },
    {
      "inputs": [],
      "name": "acceptOwnership",
      "outputs": [],
      "stateMutability": "nonpayable",
      "type": "function"
    },
    {
      "inputs": [
        {
          "internalType": "address[]",
          "name": "_addresses",
          "type": "address[]"
        }
      ],
      "name": "addToWhitelist",
      "outputs": [],
      "stateMutability": "nonpayable",
      "type": "function"
    },
    {
      "inputs": [
        {
          "internalType": "address",
          "name": "owner",
          "type": "address"
        },
        {
          "internalType": "address",
          "name": "spender",
          "type": "address"
        }
      ],
      "name": "allowance",
      "outputs": [
        {
          "internalType": "uint256",
          "name": "",
          "type": "uint256"
        }
      ],
      "stateMutability": "view",
      "type": "function"
    },
    {
      "inputs": [
        {
          "internalType": "address",
          "name": "spender",
          "type": "address"
        },
        {
          "internalType": "uint256",
          "name": "value",
          "type": "uint256"
        }
      ],
      "name": "approve",
      "outputs": [
        {
          "internalType": "bool",
          "name": "",
          "type": "bool"
        }
      ],
      "stateMutability": "nonpayable",
      "type": "function"
    },
    {
      "inputs": [
        {
          "internalType": "address",
          "name": "account",
          "type": "address"
        }
      ],
      "name": "balanceOf",
      "outputs": [
        {
          "internalType": "uint256",
          "name": "",
          "type": "uint256"
        }
      ],
      "stateMutability": "view",
      "type": "function"
    },
    {
      "inputs": [
        {
          "internalType": "address",
          "name": "from",
          "type": "address"
        },
        {
          "internalType": "uint256",
          "name": "amount",
          "type": "uint256"
        }
      ],
      "name": "burn",
      "outputs": [],
      "stateMutability": "nonpayable",
      "type": "function"
    },
    {
      "inputs": [],
      "name": "decimals",
      "outputs": [
        {
          "internalType": "uint8",
          "name": "",
          "type": "uint8"
        }
      ],
      "stateMutability": "view",
      "type": "function"
    },
    {
      "inputs": [],
      "name": "eip712Domain",
      "outputs": [
        {
          "internalType": "bytes1",
          "name": "fields",
          "type": "bytes1"
        },
        {
          "internalType": "string",
          "name": "name",
          "type": "string"
        },
        {
          "internalType": "string",
          "name": "version",
          "type": "string"
        },
        {
          "internalType": "uint256",
          "name": "chainId",
          "type": "uint256"
        },
        {
          "internalType": "address",
          "name": "verifyingContract",
          "type": "address"
        },
        {
          "internalType": "bytes32",
          "name": "salt",
          "type": "bytes32"
        },
        {
          "internalType": "uint256[]",
          "name": "extensions",
          "type": "uint256[]"
        }
      ],
      "stateMutability": "view",
      "type": "function"
    },
    {
      "inputs": [],
      "name": "factory",
      "outputs": [
        {
          "internalType": "address",
          "name": "",
          "type": "address"
        }
      ],
      "stateMutability": "view",
      "type": "function"
    },
    {
      "inputs": [
        {
          "internalType": "address",
          "name": "_address",
          "type": "address"
        }
      ],
      "name": "isWhitelisted",
      "outputs": [
        {
          "internalType": "bool",
          "name": "",
          "type": "bool"
        }
      ],
      "stateMutability": "view",
      "type": "function"
    },
    {
      "inputs": [
        {
          "internalType": "address",
          "name": "to",
          "type": "address"
        },
        {
          "internalType": "uint256",
          "name": "amount",
          "type": "uint256"
        }
      ],
      "name": "mint",
      "outputs": [],
      "stateMutability": "nonpayable",
      "type": "function"
    },
    {
      "inputs": [],
      "name": "name",
      "outputs": [
        {
          "internalType": "string",
          "name": "",
          "type": "string"
        }
      ],
      "stateMutability": "view",
      "type": "function"
    },
    {
      "inputs": [
        {
          "internalType": "address",
          "name": "owner",
          "type": "address"
        }
      ],
      "name": "nonces",
      "outputs": [
        {
          "internalType": "uint256",
          "name": "",
          "type": "uint256"
        }
      ],
      "stateMutability": "view",
      "type": "function"
    },
    {
      "inputs": [],
      "name": "owner",
      "outputs": [
        {
          "internalType": "address",
          "name": "",
          "type": "address"
        }
      ],
      "stateMutability": "view",
      "type": "function"
    },
    {
      "inputs": [],
      "name": "pendingOwner",
      "outputs": [
        {
          "internalType": "address",
          "name": "",
          "type": "address"
        }
      ],
      "stateMutability": "view",
      "type": "function"
    },
    {
      "inputs": [
        {
          "internalType": "address",
          "name": "owner",
          "type": "address"
        },
        {
          "internalType": "address",
          "name": "spender",
          "type": "address"
        },
        {
          "internalType": "uint256",
          "name": "value",
          "type": "uint256"
        },
        {
          "internalType": "uint256",
          "name": "deadline",
          "type": "uint256"
        },
        {
          "internalType": "uint8",
          "name": "v",
          "type": "uint8"
        },
        {
          "internalType": "bytes32",
          "name": "r",
          "type": "bytes32"
        },
        {
          "internalType": "bytes32",
          "name": "s",
          "type": "bytes32"
        }
      ],
      "name": "permit",
      "outputs": [],
      "stateMutability": "nonpayable",
      "type": "function"
    },
    {
      "inputs": [
        {
          "internalType": "address[]",
          "name": "_addresses",
          "type": "address[]"
        }
      ],
      "name": "removeFromWhitelist",
      "outputs": [],
      "stateMutability": "nonpayable",
      "type": "function"
    },
    {
      "inputs": [],
      "name": "renounceOwnership",
      "outputs": [],
      "stateMutability": "nonpayable",
      "type": "function"
    },
    {
      "inputs": [],
      "name": "symbol",
      "outputs": [
        {
          "internalType": "string",
          "name": "",
          "type": "string"
        }
      ],
      "stateMutability": "view",
      "type": "function"
    },
    {
      "inputs": [],
      "name": "totalSupply",
      "outputs": [
        {
          "internalType": "uint256",
          "name": "",
          "type": "uint256"
        }
      ],
      "stateMutability": "view",
      "type": "function"
    },
    {
      "inputs": [
        {
          "internalType": "address",
          "name": "to",
          "type": "address"
        },
        {
          "internalType": "uint256",
          "name": "value",
          "type": "uint256"
        }
      ],
      "name": "transfer",
      "outputs": [
        {
          "internalType": "bool",
          "name": "",
          "type": "bool"
        }
      ],
      "stateMutability": "nonpayable",
      "type": "function"
    },
    {
      "inputs": [
        {
          "internalType": "address",
          "name": "sender",
          "type": "address"
        },
        {
          "internalType": "address",
          "name": "recipient",
          "type": "address"
        },
        {
          "internalType": "uint256",
          "name": "amount",
          "type": "uint256"
        }
      ],
      "name": "transferFrom",
      "outputs": [
        {
          "internalType": "bool",
          "name": "",
          "type": "bool"
        }
      ],
      "stateMutability": "nonpayable",
      "type": "function"
    },
    {
      "inputs": [
        {
          "internalType": "address",
          "name": "newOwner",
          "type": "address"
        }
      ],
      "name": "transferOwnership",
      "outputs": [],
      "stateMutability": "nonpayable",
      "type": "function"
    },
    {
      "inputs": [
        {
          "internalType": "string",
          "name": "name_",
          "type": "string"
        }
      ],
      "name": "updateName",
      "outputs": [],
      "stateMutability": "nonpayable",
      "type": "function"
    },
    {
      "inputs": [
        {
          "internalType": "string",
          "name": "symbol_",
          "type": "string"
        }
      ],
      "name": "updateSymbol",
      "outputs": [],
      "stateMutability": "nonpayable",
      "type": "function"
    },
    {
      "inputs": [
        {
          "internalType": "address",
          "name": "",
          "type": "address"
        }
      ],
      "name": "whitelist",
      "outputs": [
        {
          "internalType": "bool",
          "name": "",
          "type": "bool"
        }
      ],
      "stateMutability": "view",
      "type": "function"
    }
  ],
  "bytecode": "0x61018080604052346107a357612370803803809161001d82856107a8565b83398101906060818303126107a35780516001600160a01b03811691908290036107a35760208101516001600160401b0381116107a357836100609183016107ee565b60408201519093906001600160401b0381116107a35761008092016107ee565b60409182519061009084836107a8565b6008825260208201916713585d195c9a585b60c21b83526020928551906100b785836107a8565b600082528651926100c886856107a8565b600084528751936100d989866107a8565b60018552603160f81b878601908152845190946001600160401b0382116105175760035490600182811c92168015610799575b8a8310146104f75781601f849311610747575b508990601f83116001146106df576000926106d4575b50508160011b916000199060031b1c1916176003555b8051906001600160401b0382116105175760045490600182811c921680156106ca575b898310146104f75781601f849311610678575b508890601f831160011461061057600092610605575b50508160011b916000199060031b1c1916176004555b6101b68161086e565b610120526101c3846109e1565b61014052519020918260e05251902080610100524660a052855190848201927f8b73c3c69bb8fe3d512ecc4cf759cc79239f7b179b0ffacaa9a75d522b39400f84528783015260608201524660808201523060a082015260a0815261022960c0826107a8565b5190206080523060c05280156105ef57600980546001600160a01b031990811690915560088054918216831790556001600160a01b03167f8be0079c531659141344cd1fd0a4f28419497f9722a3daafe3b4186f6b6457e0600080a3336101605283516001600160401b03811161051757600a54600181811c911680156105e5575b838210146104f757601f811161059e575b508082601f82116001146105385760009161052d575b508160011b916000199060031b1c191617600a555b8151906001600160401b03821161051757600b54600181811c9116801561050d575b828210146104f757601f81116104b0575b5080601f831160011461040f575061038c7fee007fd2e1891a2f6c8408b57ade5b0550dea71a5a06cc4df7ded4646a4584a594958361039a959460008051602061235083398151915294600091610404575b508160011b916000199060031b1c191617600b555b865191829182610842565b0390a1835191829182610842565b0390a15161182c9081610b2482396080518161149d015260a0518161155a015260c05181611467015260e051816114ec01526101005181611512015261012051816107fe01526101405181610827015261016051818181610395015281816104180152610e270152f35b90508501513861036c565b90601f198316600b60005282600020926000905b828210610498575050956001846000805160206123508339815191529461038c9461039a98977fee007fd2e1891a2f6c8408b57ade5b0550dea71a5a06cc4df7ded4646a4584a59a9b1061047f575b5050811b01600b55610381565b87015160001960f88460031b161c191690553880610472565b80600185968294968a01518155019501930190610423565b600b60005281600020601f840160051c8101918385106104ed575b601f0160051c01905b8181106104e1575061031a565b600081556001016104d4565b90915081906104cb565b634e487b7160e01b600052602260045260246000fd5b90607f1690610309565b634e487b7160e01b600052604160045260246000fd5b9050850151386102d2565b600a60009081528481209250601f198416905b85828210610588575050908360019493921061056f575b5050811b01600a556102e7565b87015160001960f88460031b161c191690553880610562565b600184958293958c01518155019401920161054b565b600a60005282600020601f830160051c8101918484106105db575b601f0160051c01905b8181106105cf57506102bc565b600081556001016105c2565b90915081906105b9565b90607f16906102ab565b631e4fbdf760e01b600052600060045260246000fd5b015190503880610197565b600460009081528a81209350601f198516905b8b828210610662575050908460019594939210610649575b505050811b016004556101ad565b015160001960f88460031b161c1916905538808061063b565b6001859682939686015181550195019301610623565b909150600460005288600020601f840160051c8101918a85106106c0575b90601f859493920160051c01905b8181106106b15750610181565b600081558493506001016106a4565b9091508190610696565b91607f169161016e565b015190503880610135565b600360009081528b81209350601f198516905b8c828210610731575050908460019594939210610718575b505050811b0160035561014b565b015160001960f88460031b161c1916905538808061070a565b60018596829396860151815501950193016106f2565b909150600360005289600020601f840160051c8101918b851061078f575b90601f859493920160051c01905b818110610780575061011f565b60008155849350600101610773565b9091508190610765565b91607f169161010c565b600080fd5b601f909101601f19168101906001600160401b0382119082101761051757604052565b60005b8381106107de5750506000910152565b81810151838201526020016107ce565b81601f820112156107a35780516001600160401b0381116105175760405192610821601f8301601f1916602001856107a8565b818452602082840101116107a35761083f91602080850191016107cb565b90565b6040916020825261086281518092816020860152602086860191016107cb565b601f01601f1916010190565b908151602081106000146108cb575090601f8151116108aa57602081519101516020821061089a571790565b6000198260200360031b1b161790565b60405163305a27a960e01b81529081906108c79060048301610842565b0390fd5b6001600160401b03811161051757600554600181811c911680156109d7575b60208210146104f757601f81116109a1575b50602092601f821160011461093c5792819293600092610931575b50508160011b916000199060031b1c19161760055560ff90565b015190503880610917565b601f198216936005600052806000209160005b8681106109895750836001959610610970575b505050811b0160055560ff90565b015160001960f88460031b161c19169055388080610962565b9192602060018192868501518155019401920161094f565b6005600052601f6020600020910160051c810190601f830160051c015b8181106109cb57506108fc565b600081556001016109be565b90607f16906108ea565b90815160208110600014610a0d575090601f8151116108aa57602081519101516020821061089a571790565b6001600160401b03811161051757600654600181811c91168015610b19575b60208210146104f757601f8111610ae3575b50602092601f8211600114610a7e5792819293600092610a73575b50508160011b916000199060031b1c19161760065560ff90565b015190503880610a59565b601f198216936006600052806000209160005b868110610acb5750836001959610610ab2575b505050811b0160065560ff90565b015160001960f88460031b161c19169055388080610aa4565b91926020600181928685015181550194019201610a91565b6006600052601f6020600020910160051c810190601f830160051c015b818110610b0d5750610a3e565b60008155600101610b00565b90607f1690610a2c56fe608080604052600436101561001357600080fd5b60003560e01c90816306fdde0314610fa057508063095ea7b314610f7a57806318160ddd14610f5c57806323b872dd14610f23578063313ce56714610f075780633644e51514610ee45780633af32abf146104e057806340c10f1914610e04578063537f531214610c55578063548db17414610b5157806370a0823114610b17578063715018a614610ab057806379ba509714610a265780637ecebe00146109ec5780637f649783146108e257806384b0196e146107e557806384da92a71461061b5780638da5cb5b146105f257806395d89b411461051f5780639b19251a146104e05780639dc29fac146103f5578063a9059cbb146103c4578063c45a01551461037f578063d505accf14610234578063dd62ed3e146101e3578063e30c3978146101ba5763f2fde38b1461014857600080fd5b346101b55760203660031901126101b557610161611074565b610169611580565b600980546001600160a01b0319166001600160a01b039283169081179091556008549091167f38d16b8cac22d99fc7c124b9cd0de2d3fa1faef420bfe791d8c362d765e22700600080a3005b600080fd5b346101b55760003660031901126101b5576009546040516001600160a01b039091168152602090f35b346101b55760403660031901126101b5576101fc611074565b61020461108a565b6001600160a01b039182166000908152600160209081526040808320949093168252928352819020549051908152f35b346101b55760e03660031901126101b55761024d611074565b61025561108a565b604435906064359260843560ff811681036101b55784421161036a5761032b6103349160018060a01b038416968760005260076020526040600020908154916001830190556040519060208201927f6e71edae12b1b97f4d1f60370fef10105fa2faae0126114a169c64845d6126c984528a604084015260018060a01b038916606084015289608084015260a083015260c082015260c081526102f960e0826110a0565b519020610304611464565b906040519161190160f01b83526002830152602282015260c43591604260a4359220611699565b9092919261172e565b6001600160a01b0316848103610351575061034f9350611594565b005b84906325c0072360e11b60005260045260245260446000fd5b8463313c898160e11b60005260045260246000fd5b346101b55760003660031901126101b5576040517f00000000000000000000000000000000000000000000000000000000000000006001600160a01b03168152602090f35b346101b55760403660031901126101b5576103ea6103e0611074565b60243590336113cb565b602060405160018152f35b346101b55760403660031901126101b55761040e611074565b60243590610446337f00000000000000000000000000000000000000000000000000000000000000006001600160a01b031614611339565b6001600160a01b03169081156104ca576000908282528160205260408220548181106104b25760208285937fddf252ad1be2c89b69c2b068fc378daa952ba7f163c4a11628f55a4df523b3ef93869787528684520360408620558060025403600255604051908152a380f35b60649363391434e360e21b8452600452602452604452fd5b634b637e8f60e11b600052600060045260246000fd5b346101b55760203660031901126101b5576001600160a01b03610501611074565b16600052600c602052602060ff604060002054166040519015158152f35b346101b55760003660031901126101b5576040516000600b546105418161118f565b80845290600181169081156105ce5750600114610581575b61057d83610569818503826110a0565b604051918291602083526020830190611033565b0390f35b600b60009081526000805160206117d7833981519152939250905b8082106105b457509091508101602001610569610559565b91926001816020925483858801015201910190929161059c565b60ff191660208086019190915291151560051b840190910191506105699050610559565b346101b55760003660031901126101b5576008546040516001600160a01b039091168152602090f35b346101b557610629366110c2565b610631611580565b805167ffffffffffffffff81116107cf5761064d600a5461118f565b601f8111610762575b506020601f82116001146106cc5791816106bc927f9f7688a97f1ac51fe03bac18af18d6810f9f11f0db08c59b1938a9ac825ef744946000916106c1575b508160011b916000199060031b1c191617600a55604051918291602083526020830190611033565b0390a1005b905082015185610694565b601f19821690600a6000526000805160206117b78339815191529160005b81811061074a5750927f9f7688a97f1ac51fe03bac18af18d6810f9f11f0db08c59b1938a9ac825ef7449492600192826106bc9610610731575b5050811b01600a55610569565b84015160001960f88460031b161c191690558580610724565b919260206001819286890151815501940192016106ea565b600a600052601f820160051c6000805160206117b78339815191520190602083106107b9575b601f0160051c6000805160206117b783398151915201905b8181106107ad5750610656565b600081556001016107a0565b6000805160206117b78339815191529150610788565b634e487b7160e01b600052604160045260246000fd5b346101b55760003660031901126101b5576108846108227f00000000000000000000000000000000000000000000000000000000000000006115fb565b61084b7f0000000000000000000000000000000000000000000000000000000000000000611662565b60206108926040519261085e83856110a0565b600084526000368137604051958695600f60f81b875260e08588015260e0870190611033565b908582036040870152611033565b466060850152306080850152600060a085015283810360c085015281808451928381520193019160005b8281106108cb57505050500390f35b8351855286955093810193928101926001016108bc565b346101b5576108f03661113b565b906108f9611580565b60005b82811061090557005b6001600160a01b0361092061091b838686611391565b6113b7565b16600052600c60205260ff604060002054166109a7576001906001600160a01b0361094f61091b838787611391565b16600052600c60205260406000208260ff19825416179055818060a01b0361097b61091b838787611391565b167f4790a4adb426ca2345bb5108f6e454eae852a7bf687544cd66a7270dff3a41d6600080a2016108fc565b60405162461bcd60e51b815260206004820152601e60248201527f4164647265737320697320616c72656164792077686974656c697374656400006044820152606490fd5b346101b55760203660031901126101b5576001600160a01b03610a0d611074565b1660005260076020526020604060002054604051908152f35b346101b55760003660031901126101b557600954336001600160a01b0390911603610a9b57600980546001600160a01b0319908116909155600880543392811683179091556001600160a01b03167f8be0079c531659141344cd1fd0a4f28419497f9722a3daafe3b4186f6b6457e0600080a3005b63118cdaa760e01b6000523360045260246000fd5b346101b55760003660031901126101b557610ac9611580565b600980546001600160a01b03199081169091556008805491821690556000906001600160a01b03167f8be0079c531659141344cd1fd0a4f28419497f9722a3daafe3b4186f6b6457e08280a3005b346101b55760203660031901126101b5576001600160a01b03610b38611074565b1660005260006020526020604060002054604051908152f35b346101b557610b5f3661113b565b90610b68611580565b60005b828110610b7457005b6001600160a01b03610b8a61091b838686611391565b16600052600c60205260ff6040600020541615610c10576001906001600160a01b03610bba61091b838787611391565b16600052600c602052604060002060ff198154169055818060a01b03610be461091b838787611391565b167fde8cf212af7ce38b2840785a2768d97ff2dbf3c21b516961cec0061e134c2a1e600080a201610b6b565b60405162461bcd60e51b815260206004820152601a60248201527f41646472657373206973206e6f742077686974656c69737465640000000000006044820152606490fd5b346101b557610c63366110c2565b610c6b611580565b805167ffffffffffffffff81116107cf57610c87600b5461118f565b601f8111610d97575b506020601f8211600114610d015791816106bc927fee007fd2e1891a2f6c8408b57ade5b0550dea71a5a06cc4df7ded4646a4584a594600091610cf6575b508160011b916000199060031b1c191617600b55604051918291602083526020830190611033565b905082015185610cce565b601f19821690600b6000526000805160206117d78339815191529160005b818110610d7f5750927fee007fd2e1891a2f6c8408b57ade5b0550dea71a5a06cc4df7ded4646a4584a59492600192826106bc9610610d66575b5050811b01600b55610569565b84015160001960f88460031b161c191690558580610d59565b91926020600181928689015181550194019201610d1f565b600b600052601f820160051c6000805160206117d7833981519152019060208310610dee575b601f0160051c6000805160206117d783398151915201905b818110610de25750610c90565b60008155600101610dd5565b6000805160206117d78339815191529150610dbd565b346101b55760403660031901126101b557610e1d611074565b60243590610e55337f00000000000000000000000000000000000000000000000000000000000000006001600160a01b031614611339565b6001600160a01b03168015610ece5760025491808301809311610eb8576020926002557fddf252ad1be2c89b69c2b068fc378daa952ba7f163c4a11628f55a4df523b3ef600093849284845283825260408420818154019055604051908152a380f35b634e487b7160e01b600052601160045260246000fd5b63ec442f0560e01b600052600060045260246000fd5b346101b55760003660031901126101b5576020610eff611464565b604051908152f35b346101b55760003660031901126101b557602060405160128152f35b346101b55760603660031901126101b5576020610f52610f41611074565b610f4961108a565b6044359161124c565b6040519015158152f35b346101b55760003660031901126101b5576020600254604051908152f35b346101b55760403660031901126101b5576103ea610f96611074565b6024359033611594565b346101b55760003660031901126101b5576000600a54610fbf8161118f565b80845290600181169081156105ce5750600114610fe65761057d83610569818503826110a0565b600a60009081526000805160206117b7833981519152939250905b80821061101957509091508101602001610569610559565b919260018160209254838588010152019101909291611001565b919082519283825260005b84811061105f575050826000602080949584010152601f8019910116010190565b8060208092840101518282860101520161103e565b600435906001600160a01b03821682036101b557565b602435906001600160a01b03821682036101b557565b90601f8019910116810190811067ffffffffffffffff8211176107cf57604052565b60206003198201126101b55760043567ffffffffffffffff81116101b557816023820112156101b55780600401359067ffffffffffffffff82116107cf5760405192611118601f8401601f1916602001856110a0565b828452602483830101116101b55781600092602460209301838601378301015290565b9060206003198301126101b55760043567ffffffffffffffff81116101b557826023820112156101b55780600401359267ffffffffffffffff84116101b55760248460051b830101116101b5576024019190565b90600182811c921680156111bf575b60208310146111a957565b634e487b7160e01b600052602260045260246000fd5b91607f169161119e565b600092918154916111d98361118f565b808352926001811690811561122f57506001146111f557505050565b60009081526020812093945091925b838310611215575060209250010190565b600181602092949394548385870101520191019190611204565b915050602093945060ff929192191683830152151560051b010190565b919033600052600c60205260ff60406000205416611330576001600160a01b0383166000818152600160208181526040808420338552909152909120549194919081016112a4575b5061129f93506113cb565b600190565b8381106113135784156112fd5733156112e75761129f946000526001602052604060002060018060a01b0333166000526020528360406000209103905538611294565b634a1406b160e11b600052600060045260246000fd5b63e602df0560e01b600052600060045260246000fd5b8390637dc7a0d960e11b6000523360045260245260445260646000fd5b61129f926113cb565b1561134057565b60405162461bcd60e51b815260206004820152602360248201527f4d6174657269616c3a2063616c6c6572206973206e6f742074686520666163746044820152626f727960e81b6064820152608490fd5b91908110156113a15760051b0190565b634e487b7160e01b600052603260045260246000fd5b356001600160a01b03811681036101b55790565b6001600160a01b03169081156104ca576001600160a01b0316918215610ece57600082815280602052604081205482811061144a5791604082827fddf252ad1be2c89b69c2b068fc378daa952ba7f163c4a11628f55a4df523b3ef958760209652828652038282205586815280845220818154019055604051908152a3565b916064928463391434e360e21b8452600452602452604452fd5b307f00000000000000000000000000000000000000000000000000000000000000006001600160a01b03161480611557575b156114bf577f000000000000000000000000000000000000000000000000000000000000000090565b60405160208101907f8b73c3c69bb8fe3d512ecc4cf759cc79239f7b179b0ffacaa9a75d522b39400f82527f000000000000000000000000000000000000000000000000000000000000000060408201527f000000000000000000000000000000000000000000000000000000000000000060608201524660808201523060a082015260a0815261155160c0826110a0565b51902090565b507f00000000000000000000000000000000000000000000000000000000000000004614611496565b6008546001600160a01b03163303610a9b57565b6001600160a01b03169081156112fd576001600160a01b03169182156112e75760207f8c5be1e5ebec7d5bd14f71427d1e84f3dd0314c0f7b2291e5b200ac8c7c3b925918360005260018252604060002085600052825280604060002055604051908152a3565b60ff81146116455760ff811690601f821161163457604080519261161f82856110a0565b6020808552840191601f190136833783525290565b632cd44ac360e21b60005260046000fd5b5060405161165f816116588160056111c9565b03826110a0565b90565b60ff81146116865760ff811690601f821161163457604080519261161f82856110a0565b5060405161165f816116588160066111c9565b91907f7fffffffffffffffffffffffffffffff5d576e7357a4501ddfe92f46681b20a08411611722579160209360809260ff60009560405194855216868401526040830152606082015282805260015afa15611716576000516001600160a01b0381161561170a5790600090600090565b50600090600190600090565b6040513d6000823e3d90fd5b50505060009160039190565b91909160048110156117a0578061174457509050565b60006001820361175f5763f645eedf60e01b60005260046000fd5b506002810361177d578263fce698f760e01b60005260045260246000fd5b909160036000921461178d575050565b6335e2f38360e21b825260045260249150fd5b634e487b7160e01b600052602160045260246000fdfec65a7bb8d6351c1cf70c95a316cc6a92839c986682d98bc35f958f4883f9d2a80175b7a638427703f0dbe7bb9bbf987a2551717b34e79f33b5b1008d1fa01db9a2646970667358221220d0423bfd37b7aabc33b2ade73d5223ebd4c2df553c84b61dc7f96d2f0fab257364736f6c634300081c00339f7688a97f1ac51fe03bac18af18d6810f9f11f0db08c59b1938a9ac825ef744",
  "linkReferences": {},
  "deployedLinkReferences": {}
}