{
  "_format": "hh-sol-artifact-1",
  "contractName": "MaterialFactory",
  "sourceName": "contracts/gaming/MaterialFactory.sol",
  "abi": [
    {
      "inputs": [],
      "name": "FailedCall",
      "type": "error"
    },
    {
      "inputs": [
        {
          "internalType": "uint256",
          "name": "balance",
          "type": "uint256"
        },
        {
          "internalType": "uint256",
          "name": "needed",
          "type": "uint256"
        }
      ],
      "name": "InsufficientBalance",
      "type": "error"
    },
    {
      "inputs": [],
      "name": "InvalidInitialization",
      "type": "error"
    },
    {
      "inputs": [],
      "name": "NotInitializing",
      "type": "error"
    },
    {
      "inputs": [
        {
          "internalType": "address",
          "name": "owner",
          "type": "address"
        }
      ],
      "name": "OwnableInvalidOwner",
      "type": "error"
    },
    {
      "inputs": [
        {
          "internalType": "address",
          "name": "account",
          "type": "address"
        }
      ],
      "name": "OwnableUnauthorizedAccount",
      "type": "error"
    },
    {
      "inputs": [],
      "name": "ReentrancyGuardReentrantCall",
      "type": "error"
    },
    {
      "anonymous": false,
      "inputs": [
        {
          "indexed": false,
          "internalType": "uint64",
          "name": "version",
          "type": "uint64"
        }
      ],
      "name": "Initialized",
      "type": "event"
    },
    {
      "anonymous": false,
      "inputs": [
        {
          "indexed": true,
          "internalType": "address",
          "name": "materialOwner",
          "type": "address"
        },
        {
          "indexed": true,
          "internalType": "address",
          "name": "materialAddress",
          "type": "address"
        },
        {
          "indexed": false,
          "internalType": "string",
          "name": "name",
          "type": "string"
        },
        {
          "indexed": false,
          "internalType": "string",
          "name": "symbol",
          "type": "string"
        },
        {
          "indexed": false,
          "internalType": "bytes32",
          "name": "metadataHash",
          "type": "bytes32"
        }
      ],
      "name": "MaterialCreated",
      "type": "event"
    },
    {
      "anonymous": false,
      "inputs": [
        {
          "indexed": true,
          "internalType": "address",
          "name": "materialAddress",
          "type": "address"
        }
      ],
      "name": "MaterialDeleted",
      "type": "event"
    },
    {
      "anonymous": false,
      "inputs": [
        {
          "indexed": false,
          "internalType": "uint256",
          "name": "rate",
          "type": "uint256"
        }
      ],
      "name": "MaterialOwnerFeeRateUpdated",
      "type": "event"
    },
    {
      "anonymous": false,
      "inputs": [
        {
          "indexed": true,
          "internalType": "address",
          "name": "previousOwner",
          "type": "address"
        },
        {
          "indexed": true,
          "internalType": "address",
          "name": "newOwner",
          "type": "address"
        }
      ],
      "name": "OwnershipTransferred",
      "type": "event"
    },
    {
      "anonymous": false,
      "inputs": [
        {
          "indexed": false,
          "internalType": "uint256",
          "name": "rate",
          "type": "uint256"
        }
      ],
      "name": "ProtocolFeeRateUpdated",
      "type": "event"
    },
    {
      "anonymous": false,
      "inputs": [
        {
          "indexed": true,
          "internalType": "address",
          "name": "protocolFeeRecipient",
          "type": "address"
        }
      ],
      "name": "ProtocolFeeRecipientUpdated",
      "type": "event"
    },
    {
      "anonymous": false,
      "inputs": [
        {
          "indexed": true,
          "internalType": "address",
          "name": "trader",
          "type": "address"
        },
        {
          "indexed": true,
          "internalType": "address",
          "name": "materialAddress",
          "type": "address"
        },
        {
          "indexed": true,
          "internalType": "bool",
          "name": "isBuy",
          "type": "bool"
        },
        {
          "indexed": false,
          "internalType": "uint256",
          "name": "amount",
          "type": "uint256"
        },
        {
          "indexed": false,
          "internalType": "uint256",
          "name": "price",
          "type": "uint256"
        },
        {
          "indexed": false,
          "internalType": "uint256",
          "name": "protocolFee",
          "type": "uint256"
        },
        {
          "indexed": false,
          "internalType": "uint256",
          "name": "materialOwnerFee",
          "type": "uint256"
        },
        {
          "indexed": false,
          "internalType": "uint256",
          "name": "supply",
          "type": "uint256"
        }
      ],
      "name": "TradeExecuted",
      "type": "event"
    },
    {
      "inputs": [
        {
          "internalType": "address",
          "name": "materialAddress",
          "type": "address"
        },
        {
          "internalType": "uint256",
          "name": "amount",
          "type": "uint256"
        }
      ],
      "name": "buy",
      "outputs": [],
      "stateMutability": "payable",
      "type": "function"
    },
    {
      "inputs": [
        {
          "internalType": "string",
          "name": "name",
          "type": "string"
        },
        {
          "internalType": "string",
          "name": "symbol",
          "type": "string"
        },
        {
          "internalType": "bytes32",
          "name": "metadataHash",
          "type": "bytes32"
        }
      ],
      "name": "createMaterial",
      "outputs": [
        {
          "internalType": "address",
          "name": "",
          "type": "address"
        }
      ],
      "stateMutability": "nonpayable",
      "type": "function"
    },
    {
      "inputs": [
        {
          "internalType": "address",
          "name": "materialAddress",
          "type": "address"
        }
      ],
      "name": "deleteMaterial",
      "outputs": [],
      "stateMutability": "nonpayable",
      "type": "function"
    },
    {
      "inputs": [
        {
          "internalType": "address",
          "name": "materialAddress",
          "type": "address"
        },
        {
          "internalType": "uint256",
          "name": "amount",
          "type": "uint256"
        }
      ],
      "name": "getBuyPrice",
      "outputs": [
        {
          "internalType": "uint256",
          "name": "",
          "type": "uint256"
        }
      ],
      "stateMutability": "view",
      "type": "function"
    },
    {
      "inputs": [
        {
          "internalType": "address",
          "name": "materialAddress",
          "type": "address"
        },
        {
          "internalType": "uint256",
          "name": "amount",
          "type": "uint256"
        }
      ],
      "name": "getBuyPriceAfterFee",
      "outputs": [
        {
          "internalType": "uint256",
          "name": "",
          "type": "uint256"
        }
      ],
      "stateMutability": "view",
      "type": "function"
    },
    {
      "inputs": [
        {
          "internalType": "uint256",
          "name": "supply",
          "type": "uint256"
        },
        {
          "internalType": "uint256",
          "name": "amount",
          "type": "uint256"
        }
      ],
      "name": "getPrice",
      "outputs": [
        {
          "internalType": "uint256",
          "name": "",
          "type": "uint256"
        }
      ],
      "stateMutability": "view",
      "type": "function"
    },
    {
      "inputs": [
        {
          "internalType": "address",
          "name": "materialAddress",
          "type": "address"
        },
        {
          "internalType": "uint256",
          "name": "amount",
          "type": "uint256"
        }
      ],
      "name": "getSellPrice",
      "outputs": [
        {
          "internalType": "uint256",
          "name": "",
          "type": "uint256"
        }
      ],
      "stateMutability": "view",
      "type": "function"
    },
    {
      "inputs": [
        {
          "internalType": "address",
          "name": "materialAddress",
          "type": "address"
        },
        {
          "internalType": "uint256",
          "name": "amount",
          "type": "uint256"
        }
      ],
      "name": "getSellPriceAfterFee",
      "outputs": [
        {
          "internalType": "uint256",
          "name": "",
          "type": "uint256"
        }
      ],
      "stateMutability": "view",
      "type": "function"
    },
    {
      "inputs": [
        {
          "internalType": "address payable",
          "name": "_protocolFeeRecipient",
          "type": "address"
        },
        {
          "internalType": "uint256",
          "name": "_protocolFeeRate",
          "type": "uint256"
        },
        {
          "internalType": "uint256",
          "name": "_materialOwnerFeeRate",
          "type": "uint256"
        },
        {
          "internalType": "uint256",
          "name": "_priceIncrement",
          "type": "uint256"
        }
      ],
      "name": "initialize",
      "outputs": [],
      "stateMutability": "nonpayable",
      "type": "function"
    },
    {
      "inputs": [],
      "name": "materialOwnerFeeRate",
      "outputs": [
        {
          "internalType": "uint256",
          "name": "",
          "type": "uint256"
        }
      ],
      "stateMutability": "view",
      "type": "function"
    },
    {
      "inputs": [],
      "name": "owner",
      "outputs": [
        {
          "internalType": "address",
          "name": "",
          "type": "address"
        }
      ],
      "stateMutability": "view",
      "type": "function"
    },
    {
      "inputs": [],
      "name": "priceIncrement",
      "outputs": [
        {
          "internalType": "uint256",
          "name": "",
          "type": "uint256"
        }
      ],
      "stateMutability": "view",
      "type": "function"
    },
    {
      "inputs": [],
      "name": "protocolFeeRate",
      "outputs": [
        {
          "internalType": "uint256",
          "name": "",
          "type": "uint256"
        }
      ],
      "stateMutability": "view",
      "type": "function"
    },
    {
      "inputs": [],
      "name": "protocolFeeRecipient",
      "outputs": [
        {
          "internalType": "address payable",
          "name": "",
          "type": "address"
        }
      ],
      "stateMutability": "view",
      "type": "function"
    },
    {
      "inputs": [],
      "name": "renounceOwnership",
      "outputs": [],
      "stateMutability": "nonpayable",
      "type": "function"
    },
    {
      "inputs": [
        {
          "internalType": "address",
          "name": "materialAddress",
          "type": "address"
        },
        {
          "internalType": "uint256",
          "name": "amount",
          "type": "uint256"
        }
      ],
      "name": "sell",
      "outputs": [],
      "stateMutability": "nonpayable",
      "type": "function"
    },
    {
      "inputs": [
        {
          "internalType": "address",
          "name": "newOwner",
          "type": "address"
        }
      ],
      "name": "transferOwnership",
      "outputs": [],
      "stateMutability": "nonpayable",
      "type": "function"
    },
    {
      "inputs": [
        {
          "internalType": "uint256",
          "name": "_rate",
          "type": "uint256"
        }
      ],
      "name": "updateMaterialOwnerFeeRate",
      "outputs": [],
      "stateMutability": "nonpayable",
      "type": "function"
    },
    {
      "inputs": [
        {
          "internalType": "uint256",
          "name": "_rate",
          "type": "uint256"
        }
      ],
      "name": "updateProtocolFeeRate",
      "outputs": [],
      "stateMutability": "nonpayable",
      "type": "function"
    },
    {
      "inputs": [
        {
          "internalType": "address payable",
          "name": "_protocolFeeRecipient",
          "type": "address"
        }
      ],
      "name": "updateProtocolFeeRecipient",
      "outputs": [],
      "stateMutability": "nonpayable",
      "type": "function"
    }
  ],
  "bytecode": "0x608080604052346015576137ac908161001b8239f35b600080fdfe6080604052600436101561001257600080fd5b6000803560e01c80630f026f6d14610efe5780631df47f8014610e405780632267a89c14610de9578063280d62ac14610dcc57806336b7881f14610d6a5780634635256e14610d425780634ec81af114610b19578063525adb511461096f57806358f85880146109515780635cf4ee911461092d5780636340d55c146108cb57806364df049e146108a25780636c197ff514610616578063715018a6146105ac5780638da5cb5b146105765780639347e2de146105585780639ae7178114610528578063c3e43a67146103e7578063cce7ec13146101285763f2fde38b146100f957600080fd5b3461012557602036600319011261012557610122610115610f55565b61011d611271565b6111fb565b80f35b80fd5b5060403660031901126101255761013d610f55565b60243561014a8183611095565b91600260008051602061373783398151915254146103d85760026000805160206137378339815191525560018060a01b031690670de0b6b3a764000061019260025485611006565b0492670de0b6b3a76400006101a960035483611006565b046101bd816101b8878561102f565b61102f565b341061039c57833b1561038d576040516340c10f1960e01b81523360048201526024810184905286908181604481838a5af1801561039157610378575b50506001546102139086906001600160a01b031661132c565b604051638da5cb5b60e01b8152602081600481885afa9081156103195761024c9183918991610349575b506001600160a01b031661132c565b61025a816101b8878561102f565b3411610324575b6040516318160ddd60e01b815294602086600481885afa9283156103195787936102df575b6001965060405194855260208501526040840152606083015260808201527f169faac58945d512927afd5280b2fccc945ea80f2c7a93355f39e227e3f97ce660a03392a460016000805160206137378339815191525580f35b92506020863d602011610311575b816102fa60209383610f6b565b8101031261030c576001955192610286565b600080fd5b3d91506102ed565b6040513d89823e3d90fd5b61034461033e8261033988610339873461103c565b61103c565b3361132c565b610261565b61036b915060203d602011610371575b6103638183610f6b565b81019061111b565b3861023d565b503d610359565b8161038291610f6b565b61038d5785386101fa565b8580fd5b6040513d84823e3d90fd5b60405162461bcd60e51b8152602060048201526014602482015273125b9cdd59999a58da595b9d081c185e5b595b9d60621b6044820152606490fd5b633ee5aeb560e01b8452600484fd5b50346101255760603660031901126101255760043567ffffffffffffffff811161052457610419903690600401610fbf565b60243567ffffffffffffffff811161052057610439903690600401610fbf565b916040516123708082019082821067ffffffffffffffff83111761050c578291610488916113a784393381526060602082015261047960608201876111ba565b906040818303910152866111ba565b039082f09081156105005760206104e985857f06d8add2cd66332e29a7c84dcdcc415bc1fa26e5e625539ce94861cb00b2e16d8660018060a01b03169384936104dc604051946060865260608601906111ba565b90848203888601526111ba565b9160443560408201528033930390a3604051908152f35b604051903d90823e3d90fd5b634e487b7160e01b84526041600452602484fd5b8280fd5b5080fd5b5034610125576040366003190112610125576020610550610547610f55565b6024359061113a565b604051908152f35b50346101255780600319360112610125576020600354604051908152f35b5034610125578060031936011261012557600080516020613717833981519152546040516001600160a01b039091168152602090f35b50346101255780600319360112610125576105c5611271565b60008051602061371783398151915280546001600160a01b0319811690915581906001600160a01b03167f8be0079c531659141344cd1fd0a4f28419497f9722a3daafe3b4186f6b6457e08280a380f35b503461012557604036600319011261012557610630610f55565b60243561063d818361113a565b91600260008051602061373783398151915254146103d85760026000805160206137378339815191525560018060a01b031690670de0b6b3a764000061068560025485611006565b0492670de0b6b3a764000061069c60035483611006565b046040516370a0823160e01b8152336004820152602081602481885afa8015610319578491889161086d575b5010610831578594843b1561038d57604051632770a7eb60e21b8152336004820152602481018590528681604481838a5af190811561031957879161081c575b505061071b61033e83610339848761103c565b6001546107329082906001600160a01b031661132c565b604051638da5cb5b60e01b8152602081600481895afa9081156103195761076a918491899161034957506001600160a01b031661132c565b6040516318160ddd60e01b815292602084600481895afa9384156103195787946107e5575b5060405194855260208501526040840152606083015260808201527f169faac58945d512927afd5280b2fccc945ea80f2c7a93355f39e227e3f97ce660a03392a460016000805160206137378339815191525580f35b965092506020863d602011610814575b8161080260209383610f6b565b8101031261030c57869551923861078f565b3d91506107f5565b8161082691610f6b565b61038d578538610708565b60405162461bcd60e51b8152602060048201526014602482015273496e73756666696369656e742062616c616e636560601b6044820152606490fd5b9150506020813d60201161089a575b8161088960209383610f6b565b8101031261030c57839051386106c8565b3d915061087c565b50346101255780600319360112610125576001546040516001600160a01b039091168152602090f35b5034610125576020366003190112610125577f9d2a5010795914ccbdd5a4cdee6a9aa2addac5e44443b519897523b67ddfe9fc602060043561090b611271565b61091f670de0b6b3a7640000821115611049565b80600255604051908152a180f35b503461012557604036600319011261012557610550602091546024356004356112a7565b50346101255780600319360112610125576020600254604051908152f35b5034610125576020366003190112610125576001600160a01b03610991610f55565b1690604051638da5cb5b60e01b8152602081600481865afa908115610391578291610afa575b50336001600160a01b0390911603610ac0576040516318160ddd60e01b8152602081600481865afa908115610391578291610a8e575b50610a5357813b15610125576040516338a80c5360e11b8152818160048183875af1801561039157610a43575b50907fbc26894f6af59ee94982ca80f417b3ee055d89d1655018568c1dd243a2f1c6798280a280f35b81610a4d91610f6b565b38610a1a565b60405162461bcd60e51b8152602060048201526013602482015272537570706c79206d757374206265207a65726f60681b6044820152606490fd5b90506020813d602011610ab8575b81610aa960209383610f6b565b810103126105245751386109ed565b3d9150610a9c565b60405162461bcd60e51b81526020600482015260126024820152712737ba1036b0ba32b934b0b61037bbb732b960711b6044820152606490fd5b610b13915060203d602011610371576103638183610f6b565b386109b7565b503461012557608036600319011261012557610b33610f55565b60243560443590600080516020613757833981519152549260ff8460401c16159367ffffffffffffffff811680159081610d3a575b6001149081610d30575b159081610d27575b50610d1857602080937faed37fa6b7b9ef72d8ea084d180aa2fca9107567bd2f9156f37d92f36e0683dc95937f9d2a5010795914ccbdd5a4cdee6a9aa2addac5e44443b519897523b67ddfe9fc9388600167ffffffffffffffff1983161760008051602061375783398151915255610ceb575b50610bf66112fe565b610bfe6112fe565b610c07336111fb565b610c0f6112fe565b610c176112fe565b60016000805160206137378339815191525560018060a01b031690816bffffffffffffffffffffffff60a01b600154161760015580600255846003556064358955604051917fc1b5345cce283376356748dc57f2dfa7120431d016fc7ca9ba641bc65f91411d8a80a28152a1604051908152a1610c915780f35b68ff0000000000000000196000805160206137578339815191525416600080516020613757833981519152557fc7f505b2f371ae2175ee4913f4499e1f2633a7b5936321eed1cdaeb6115181d2602060405160018152a180f35b68ffffffffffffffffff191668010000000000000001176000805160206137578339815191525538610bed565b63f92ee8a960e01b8652600486fd5b90501538610b7a565b303b159150610b72565b869150610b68565b5034610125576040366003190112610125576020610550610d61610f55565b60243590611095565b5034610125576020366003190112610125577faed37fa6b7b9ef72d8ea084d180aa2fca9107567bd2f9156f37d92f36e0683dc6020600435610daa611271565b610dbe670de0b6b3a7640000821115611049565b80600355604051908152a180f35b503461012557806003193601126101255760209054604051908152f35b5034610125576040366003190112610125576020610550610e0b610547610f55565b610339670de0b6b3a7640000610e2360025484611006565b04670de0b6b3a7640000610e3960035485611006565b049261103c565b503461012557602036600319011261012557610e5a610f55565b610e62611271565b6001600160a01b03168015610eaa57600180546001600160a01b031916821790557fc1b5345cce283376356748dc57f2dfa7120431d016fc7ca9ba641bc65f91411d8280a280f35b60405162461bcd60e51b815260206004820152602660248201527f496e76616c69642070726f746f636f6c2066656520726563697069656e74206160448201526564647265737360d01b6064820152608490fd5b5034610125576040366003190112610125576020610550610f20610d61610f55565b6101b8670de0b6b3a7640000610f3860025484611006565b04670de0b6b3a7640000610f4e60035485611006565b049261102f565b600435906001600160a01b038216820361030c57565b90601f8019910116810190811067ffffffffffffffff821117610f8d57604052565b634e487b7160e01b600052604160045260246000fd5b67ffffffffffffffff8111610f8d57601f01601f191660200190565b81601f8201121561030c57803590610fd682610fa3565b92610fe46040519485610f6b565b8284526020838301011161030c57816000926020809301838601378301015290565b8181029291811591840414171561101957565b634e487b7160e01b600052601160045260246000fd5b9190820180921161101957565b9190820391821161101957565b1561105057565b60405162461bcd60e51b815260206004820152601860248201527f46656520726174652065786365656473206d6178696d756d00000000000000006044820152606490fd5b6040516318160ddd60e01b81529190602090839060049082906001600160a01b03165afa90811561110f576000916110d9575b6110d69250600054916112a7565b90565b90506020823d602011611107575b816110f460209383610f6b565b8101031261030c576110d69151906110c8565b3d91506110e7565b6040513d6000823e3d90fd5b9081602091031261030c57516001600160a01b038116810361030c5790565b6040516318160ddd60e01b81529190602090839060049082906001600160a01b03165afa90811561110f57600091611184575b6110d6925061117f816000549361103c565b6112a7565b90506020823d6020116111b2575b8161119f60209383610f6b565b8101031261030c576110d691519061116d565b3d9150611192565b919082519283825260005b8481106111e6575050826000602080949584010152601f8019910116010190565b806020809284010151828286010152016111c5565b6001600160a01b0316801561125b5760008051602061371783398151915280546001600160a01b0319811683179091556001600160a01b03167f8be0079c531659141344cd1fd0a4f28419497f9722a3daafe3b4186f6b6457e0600080a3565b631e4fbdf760e01b600052600060045260246000fd5b600080516020613717833981519152546001600160a01b0316330361129257565b63118cdaa760e01b6000523360045260246000fd5b906112f26112fa926112ec670de0b6b3a764000095866112e5826112e0886112da856112d3858b611006565b048461102f565b9761102f565b611006565b049061102f565b9061102f565b60011c611006565b0490565b60ff6000805160206137578339815191525460401c161561131b57565b631afcd79f60e31b60005260046000fd5b81471061138d576000918291829182916001600160a01b03165af13d15611388573d61135781610fa3565b906113656040519283610f6b565b8152600060203d92013e5b1561137757565b63d6bda27560e01b60005260046000fd5b611370565b504763cf47918160e01b60005260045260245260446000fdfe61018080604052346107a357612370803803809161001d82856107a8565b83398101906060818303126107a35780516001600160a01b03811691908290036107a35760208101516001600160401b0381116107a357836100609183016107ee565b60408201519093906001600160401b0381116107a35761008092016107ee565b60409182519061009084836107a8565b6008825260208201916713585d195c9a585b60c21b83526020928551906100b785836107a8565b600082528651926100c886856107a8565b600084528751936100d989866107a8565b60018552603160f81b878601908152845190946001600160401b0382116105175760035490600182811c92168015610799575b8a8310146104f75781601f849311610747575b508990601f83116001146106df576000926106d4575b50508160011b916000199060031b1c1916176003555b8051906001600160401b0382116105175760045490600182811c921680156106ca575b898310146104f75781601f849311610678575b508890601f831160011461061057600092610605575b50508160011b916000199060031b1c1916176004555b6101b68161086e565b610120526101c3846109e1565b61014052519020918260e05251902080610100524660a052855190848201927f8b73c3c69bb8fe3d512ecc4cf759cc79239f7b179b0ffacaa9a75d522b39400f84528783015260608201524660808201523060a082015260a0815261022960c0826107a8565b5190206080523060c05280156105ef57600980546001600160a01b031990811690915560088054918216831790556001600160a01b03167f8be0079c531659141344cd1fd0a4f28419497f9722a3daafe3b4186f6b6457e0600080a3336101605283516001600160401b03811161051757600a54600181811c911680156105e5575b838210146104f757601f811161059e575b508082601f82116001146105385760009161052d575b508160011b916000199060031b1c191617600a555b8151906001600160401b03821161051757600b54600181811c9116801561050d575b828210146104f757601f81116104b0575b5080601f831160011461040f575061038c7fee007fd2e1891a2f6c8408b57ade5b0550dea71a5a06cc4df7ded4646a4584a594958361039a959460008051602061235083398151915294600091610404575b508160011b916000199060031b1c191617600b555b865191829182610842565b0390a1835191829182610842565b0390a15161182c9081610b2482396080518161149d015260a0518161155a015260c05181611467015260e051816114ec01526101005181611512015261012051816107fe01526101405181610827015261016051818181610395015281816104180152610e270152f35b90508501513861036c565b90601f198316600b60005282600020926000905b828210610498575050956001846000805160206123508339815191529461038c9461039a98977fee007fd2e1891a2f6c8408b57ade5b0550dea71a5a06cc4df7ded4646a4584a59a9b1061047f575b5050811b01600b55610381565b87015160001960f88460031b161c191690553880610472565b80600185968294968a01518155019501930190610423565b600b60005281600020601f840160051c8101918385106104ed575b601f0160051c01905b8181106104e1575061031a565b600081556001016104d4565b90915081906104cb565b634e487b7160e01b600052602260045260246000fd5b90607f1690610309565b634e487b7160e01b600052604160045260246000fd5b9050850151386102d2565b600a60009081528481209250601f198416905b85828210610588575050908360019493921061056f575b5050811b01600a556102e7565b87015160001960f88460031b161c191690553880610562565b600184958293958c01518155019401920161054b565b600a60005282600020601f830160051c8101918484106105db575b601f0160051c01905b8181106105cf57506102bc565b600081556001016105c2565b90915081906105b9565b90607f16906102ab565b631e4fbdf760e01b600052600060045260246000fd5b015190503880610197565b600460009081528a81209350601f198516905b8b828210610662575050908460019594939210610649575b505050811b016004556101ad565b015160001960f88460031b161c1916905538808061063b565b6001859682939686015181550195019301610623565b909150600460005288600020601f840160051c8101918a85106106c0575b90601f859493920160051c01905b8181106106b15750610181565b600081558493506001016106a4565b9091508190610696565b91607f169161016e565b015190503880610135565b600360009081528b81209350601f198516905b8c828210610731575050908460019594939210610718575b505050811b0160035561014b565b015160001960f88460031b161c1916905538808061070a565b60018596829396860151815501950193016106f2565b909150600360005289600020601f840160051c8101918b851061078f575b90601f859493920160051c01905b818110610780575061011f565b60008155849350600101610773565b9091508190610765565b91607f169161010c565b600080fd5b601f909101601f19168101906001600160401b0382119082101761051757604052565b60005b8381106107de5750506000910152565b81810151838201526020016107ce565b81601f820112156107a35780516001600160401b0381116105175760405192610821601f8301601f1916602001856107a8565b818452602082840101116107a35761083f91602080850191016107cb565b90565b6040916020825261086281518092816020860152602086860191016107cb565b601f01601f1916010190565b908151602081106000146108cb575090601f8151116108aa57602081519101516020821061089a571790565b6000198260200360031b1b161790565b60405163305a27a960e01b81529081906108c79060048301610842565b0390fd5b6001600160401b03811161051757600554600181811c911680156109d7575b60208210146104f757601f81116109a1575b50602092601f821160011461093c5792819293600092610931575b50508160011b916000199060031b1c19161760055560ff90565b015190503880610917565b601f198216936005600052806000209160005b8681106109895750836001959610610970575b505050811b0160055560ff90565b015160001960f88460031b161c19169055388080610962565b9192602060018192868501518155019401920161094f565b6005600052601f6020600020910160051c810190601f830160051c015b8181106109cb57506108fc565b600081556001016109be565b90607f16906108ea565b90815160208110600014610a0d575090601f8151116108aa57602081519101516020821061089a571790565b6001600160401b03811161051757600654600181811c91168015610b19575b60208210146104f757601f8111610ae3575b50602092601f8211600114610a7e5792819293600092610a73575b50508160011b916000199060031b1c19161760065560ff90565b015190503880610a59565b601f198216936006600052806000209160005b868110610acb5750836001959610610ab2575b505050811b0160065560ff90565b015160001960f88460031b161c19169055388080610aa4565b91926020600181928685015181550194019201610a91565b6006600052601f6020600020910160051c810190601f830160051c015b818110610b0d5750610a3e565b60008155600101610b00565b90607f1690610a2c56fe608080604052600436101561001357600080fd5b60003560e01c90816306fdde0314610fa057508063095ea7b314610f7a57806318160ddd14610f5c57806323b872dd14610f23578063313ce56714610f075780633644e51514610ee45780633af32abf146104e057806340c10f1914610e04578063537f531214610c55578063548db17414610b5157806370a0823114610b17578063715018a614610ab057806379ba509714610a265780637ecebe00146109ec5780637f649783146108e257806384b0196e146107e557806384da92a71461061b5780638da5cb5b146105f257806395d89b411461051f5780639b19251a146104e05780639dc29fac146103f5578063a9059cbb146103c4578063c45a01551461037f578063d505accf14610234578063dd62ed3e146101e3578063e30c3978146101ba5763f2fde38b1461014857600080fd5b346101b55760203660031901126101b557610161611074565b610169611580565b600980546001600160a01b0319166001600160a01b039283169081179091556008549091167f38d16b8cac22d99fc7c124b9cd0de2d3fa1faef420bfe791d8c362d765e22700600080a3005b600080fd5b346101b55760003660031901126101b5576009546040516001600160a01b039091168152602090f35b346101b55760403660031901126101b5576101fc611074565b61020461108a565b6001600160a01b039182166000908152600160209081526040808320949093168252928352819020549051908152f35b346101b55760e03660031901126101b55761024d611074565b61025561108a565b604435906064359260843560ff811681036101b55784421161036a5761032b6103349160018060a01b038416968760005260076020526040600020908154916001830190556040519060208201927f6e71edae12b1b97f4d1f60370fef10105fa2faae0126114a169c64845d6126c984528a604084015260018060a01b038916606084015289608084015260a083015260c082015260c081526102f960e0826110a0565b519020610304611464565b906040519161190160f01b83526002830152602282015260c43591604260a4359220611699565b9092919261172e565b6001600160a01b0316848103610351575061034f9350611594565b005b84906325c0072360e11b60005260045260245260446000fd5b8463313c898160e11b60005260045260246000fd5b346101b55760003660031901126101b5576040517f00000000000000000000000000000000000000000000000000000000000000006001600160a01b03168152602090f35b346101b55760403660031901126101b5576103ea6103e0611074565b60243590336113cb565b602060405160018152f35b346101b55760403660031901126101b55761040e611074565b60243590610446337f00000000000000000000000000000000000000000000000000000000000000006001600160a01b031614611339565b6001600160a01b03169081156104ca576000908282528160205260408220548181106104b25760208285937fddf252ad1be2c89b69c2b068fc378daa952ba7f163c4a11628f55a4df523b3ef93869787528684520360408620558060025403600255604051908152a380f35b60649363391434e360e21b8452600452602452604452fd5b634b637e8f60e11b600052600060045260246000fd5b346101b55760203660031901126101b5576001600160a01b03610501611074565b16600052600c602052602060ff604060002054166040519015158152f35b346101b55760003660031901126101b5576040516000600b546105418161118f565b80845290600181169081156105ce5750600114610581575b61057d83610569818503826110a0565b604051918291602083526020830190611033565b0390f35b600b60009081526000805160206117d7833981519152939250905b8082106105b457509091508101602001610569610559565b91926001816020925483858801015201910190929161059c565b60ff191660208086019190915291151560051b840190910191506105699050610559565b346101b55760003660031901126101b5576008546040516001600160a01b039091168152602090f35b346101b557610629366110c2565b610631611580565b805167ffffffffffffffff81116107cf5761064d600a5461118f565b601f8111610762575b506020601f82116001146106cc5791816106bc927f9f7688a97f1ac51fe03bac18af18d6810f9f11f0db08c59b1938a9ac825ef744946000916106c1575b508160011b916000199060031b1c191617600a55604051918291602083526020830190611033565b0390a1005b905082015185610694565b601f19821690600a6000526000805160206117b78339815191529160005b81811061074a5750927f9f7688a97f1ac51fe03bac18af18d6810f9f11f0db08c59b1938a9ac825ef7449492600192826106bc9610610731575b5050811b01600a55610569565b84015160001960f88460031b161c191690558580610724565b919260206001819286890151815501940192016106ea565b600a600052601f820160051c6000805160206117b78339815191520190602083106107b9575b601f0160051c6000805160206117b783398151915201905b8181106107ad5750610656565b600081556001016107a0565b6000805160206117b78339815191529150610788565b634e487b7160e01b600052604160045260246000fd5b346101b55760003660031901126101b5576108846108227f00000000000000000000000000000000000000000000000000000000000000006115fb565b61084b7f0000000000000000000000000000000000000000000000000000000000000000611662565b60206108926040519261085e83856110a0565b600084526000368137604051958695600f60f81b875260e08588015260e0870190611033565b908582036040870152611033565b466060850152306080850152600060a085015283810360c085015281808451928381520193019160005b8281106108cb57505050500390f35b8351855286955093810193928101926001016108bc565b346101b5576108f03661113b565b906108f9611580565b60005b82811061090557005b6001600160a01b0361092061091b838686611391565b6113b7565b16600052600c60205260ff604060002054166109a7576001906001600160a01b0361094f61091b838787611391565b16600052600c60205260406000208260ff19825416179055818060a01b0361097b61091b838787611391565b167f4790a4adb426ca2345bb5108f6e454eae852a7bf687544cd66a7270dff3a41d6600080a2016108fc565b60405162461bcd60e51b815260206004820152601e60248201527f4164647265737320697320616c72656164792077686974656c697374656400006044820152606490fd5b346101b55760203660031901126101b5576001600160a01b03610a0d611074565b1660005260076020526020604060002054604051908152f35b346101b55760003660031901126101b557600954336001600160a01b0390911603610a9b57600980546001600160a01b0319908116909155600880543392811683179091556001600160a01b03167f8be0079c531659141344cd1fd0a4f28419497f9722a3daafe3b4186f6b6457e0600080a3005b63118cdaa760e01b6000523360045260246000fd5b346101b55760003660031901126101b557610ac9611580565b600980546001600160a01b03199081169091556008805491821690556000906001600160a01b03167f8be0079c531659141344cd1fd0a4f28419497f9722a3daafe3b4186f6b6457e08280a3005b346101b55760203660031901126101b5576001600160a01b03610b38611074565b1660005260006020526020604060002054604051908152f35b346101b557610b5f3661113b565b90610b68611580565b60005b828110610b7457005b6001600160a01b03610b8a61091b838686611391565b16600052600c60205260ff6040600020541615610c10576001906001600160a01b03610bba61091b838787611391565b16600052600c602052604060002060ff198154169055818060a01b03610be461091b838787611391565b167fde8cf212af7ce38b2840785a2768d97ff2dbf3c21b516961cec0061e134c2a1e600080a201610b6b565b60405162461bcd60e51b815260206004820152601a60248201527f41646472657373206973206e6f742077686974656c69737465640000000000006044820152606490fd5b346101b557610c63366110c2565b610c6b611580565b805167ffffffffffffffff81116107cf57610c87600b5461118f565b601f8111610d97575b506020601f8211600114610d015791816106bc927fee007fd2e1891a2f6c8408b57ade5b0550dea71a5a06cc4df7ded4646a4584a594600091610cf6575b508160011b916000199060031b1c191617600b55604051918291602083526020830190611033565b905082015185610cce565b601f19821690600b6000526000805160206117d78339815191529160005b818110610d7f5750927fee007fd2e1891a2f6c8408b57ade5b0550dea71a5a06cc4df7ded4646a4584a59492600192826106bc9610610d66575b5050811b01600b55610569565b84015160001960f88460031b161c191690558580610d59565b91926020600181928689015181550194019201610d1f565b600b600052601f820160051c6000805160206117d7833981519152019060208310610dee575b601f0160051c6000805160206117d783398151915201905b818110610de25750610c90565b60008155600101610dd5565b6000805160206117d78339815191529150610dbd565b346101b55760403660031901126101b557610e1d611074565b60243590610e55337f00000000000000000000000000000000000000000000000000000000000000006001600160a01b031614611339565b6001600160a01b03168015610ece5760025491808301809311610eb8576020926002557fddf252ad1be2c89b69c2b068fc378daa952ba7f163c4a11628f55a4df523b3ef600093849284845283825260408420818154019055604051908152a380f35b634e487b7160e01b600052601160045260246000fd5b63ec442f0560e01b600052600060045260246000fd5b346101b55760003660031901126101b5576020610eff611464565b604051908152f35b346101b55760003660031901126101b557602060405160128152f35b346101b55760603660031901126101b5576020610f52610f41611074565b610f4961108a565b6044359161124c565b6040519015158152f35b346101b55760003660031901126101b5576020600254604051908152f35b346101b55760403660031901126101b5576103ea610f96611074565b6024359033611594565b346101b55760003660031901126101b5576000600a54610fbf8161118f565b80845290600181169081156105ce5750600114610fe65761057d83610569818503826110a0565b600a60009081526000805160206117b7833981519152939250905b80821061101957509091508101602001610569610559565b919260018160209254838588010152019101909291611001565b919082519283825260005b84811061105f575050826000602080949584010152601f8019910116010190565b8060208092840101518282860101520161103e565b600435906001600160a01b03821682036101b557565b602435906001600160a01b03821682036101b557565b90601f8019910116810190811067ffffffffffffffff8211176107cf57604052565b60206003198201126101b55760043567ffffffffffffffff81116101b557816023820112156101b55780600401359067ffffffffffffffff82116107cf5760405192611118601f8401601f1916602001856110a0565b828452602483830101116101b55781600092602460209301838601378301015290565b9060206003198301126101b55760043567ffffffffffffffff81116101b557826023820112156101b55780600401359267ffffffffffffffff84116101b55760248460051b830101116101b5576024019190565b90600182811c921680156111bf575b60208310146111a957565b634e487b7160e01b600052602260045260246000fd5b91607f169161119e565b600092918154916111d98361118f565b808352926001811690811561122f57506001146111f557505050565b60009081526020812093945091925b838310611215575060209250010190565b600181602092949394548385870101520191019190611204565b915050602093945060ff929192191683830152151560051b010190565b919033600052600c60205260ff60406000205416611330576001600160a01b0383166000818152600160208181526040808420338552909152909120549194919081016112a4575b5061129f93506113cb565b600190565b8381106113135784156112fd5733156112e75761129f946000526001602052604060002060018060a01b0333166000526020528360406000209103905538611294565b634a1406b160e11b600052600060045260246000fd5b63e602df0560e01b600052600060045260246000fd5b8390637dc7a0d960e11b6000523360045260245260445260646000fd5b61129f926113cb565b1561134057565b60405162461bcd60e51b815260206004820152602360248201527f4d6174657269616c3a2063616c6c6572206973206e6f742074686520666163746044820152626f727960e81b6064820152608490fd5b91908110156113a15760051b0190565b634e487b7160e01b600052603260045260246000fd5b356001600160a01b03811681036101b55790565b6001600160a01b03169081156104ca576001600160a01b0316918215610ece57600082815280602052604081205482811061144a5791604082827fddf252ad1be2c89b69c2b068fc378daa952ba7f163c4a11628f55a4df523b3ef958760209652828652038282205586815280845220818154019055604051908152a3565b916064928463391434e360e21b8452600452602452604452fd5b307f00000000000000000000000000000000000000000000000000000000000000006001600160a01b03161480611557575b156114bf577f000000000000000000000000000000000000000000000000000000000000000090565b60405160208101907f8b73c3c69bb8fe3d512ecc4cf759cc79239f7b179b0ffacaa9a75d522b39400f82527f000000000000000000000000000000000000000000000000000000000000000060408201527f000000000000000000000000000000000000000000000000000000000000000060608201524660808201523060a082015260a0815261155160c0826110a0565b51902090565b507f00000000000000000000000000000000000000000000000000000000000000004614611496565b6008546001600160a01b03163303610a9b57565b6001600160a01b03169081156112fd576001600160a01b03169182156112e75760207f8c5be1e5ebec7d5bd14f71427d1e84f3dd0314c0f7b2291e5b200ac8c7c3b925918360005260018252604060002085600052825280604060002055604051908152a3565b60ff81146116455760ff811690601f821161163457604080519261161f82856110a0565b6020808552840191601f190136833783525290565b632cd44ac360e21b60005260046000fd5b5060405161165f816116588160056111c9565b03826110a0565b90565b60ff81146116865760ff811690601f821161163457604080519261161f82856110a0565b5060405161165f816116588160066111c9565b91907f7fffffffffffffffffffffffffffffff5d576e7357a4501ddfe92f46681b20a08411611722579160209360809260ff60009560405194855216868401526040830152606082015282805260015afa15611716576000516001600160a01b0381161561170a5790600090600090565b50600090600190600090565b6040513d6000823e3d90fd5b50505060009160039190565b91909160048110156117a0578061174457509050565b60006001820361175f5763f645eedf60e01b60005260046000fd5b506002810361177d578263fce698f760e01b60005260045260246000fd5b909160036000921461178d575050565b6335e2f38360e21b825260045260249150fd5b634e487b7160e01b600052602160045260246000fdfec65a7bb8d6351c1cf70c95a316cc6a92839c986682d98bc35f958f4883f9d2a80175b7a638427703f0dbe7bb9bbf987a2551717b34e79f33b5b1008d1fa01db9a2646970667358221220d0423bfd37b7aabc33b2ade73d5223ebd4c2df553c84b61dc7f96d2f0fab257364736f6c634300081c00339f7688a97f1ac51fe03bac18af18d6810f9f11f0db08c59b1938a9ac825ef7449016d09d72d40fdae2fd8ceac6b6234c7706214fd39c1cd1e609a0528c1993009b779b17422d0df92223018b32b4d1fa46e071723d6817e2486d003becc55f00f0c57e16840df040f15088dc2f81fe391c3923bec73e23a9662efc9c229c6a00a26469706673582212201211da33fc60747e125c6007f5244cfc9f78d8ad9dc50801f51fb9b5b528e93f64736f6c634300081c0033",
  "linkReferences": {},
  "deployedLinkReferences": {}
}