{
  "_format": "hh-sol-artifact-1",
  "contractName": "Material",
  "sourceName": "contracts/gaming/Material.sol",
  "abi": [
    {
      "inputs": [
        {
          "internalType": "address",
          "name": "owner_",
          "type": "address"
        },
        {
          "internalType": "string",
          "name": "name_",
          "type": "string"
        },
        {
          "internalType": "string",
          "name": "symbol_",
          "type": "string"
        }
      ],
      "stateMutability": "nonpayable",
      "type": "constructor"
    },
    {
      "inputs": [],
      "name": "ECDSAInvalidSignature",
      "type": "error"
    },
    {
      "inputs": [
        {
          "internalType": "uint256",
          "name": "length",
          "type": "uint256"
        }
      ],
      "name": "ECDSAInvalidSignatureLength",
      "type": "error"
    },
    {
      "inputs": [
        {
          "internalType": "bytes32",
          "name": "s",
          "type": "bytes32"
        }
      ],
      "name": "ECDSAInvalidSignatureS",
      "type": "error"
    },
    {
      "inputs": [
        {
          "internalType": "address",
          "name": "spender",
          "type": "address"
        },
        {
          "internalType": "uint256",
          "name": "allowance",
          "type": "uint256"
        },
        {
          "internalType": "uint256",
          "name": "needed",
          "type": "uint256"
        }
      ],
      "name": "ERC20InsufficientAllowance",
      "type": "error"
    },
    {
      "inputs": [
        {
          "internalType": "address",
          "name": "sender",
          "type": "address"
        },
        {
          "internalType": "uint256",
          "name": "balance",
          "type": "uint256"
        },
        {
          "internalType": "uint256",
          "name": "needed",
          "type": "uint256"
        }
      ],
      "name": "ERC20InsufficientBalance",
      "type": "error"
    },
    {
      "inputs": [
        {
          "internalType": "address",
          "name": "approver",
          "type": "address"
        }
      ],
      "name": "ERC20InvalidApprover",
      "type": "error"
    },
    {
      "inputs": [
        {
          "internalType": "address",
          "name": "receiver",
          "type": "address"
        }
      ],
      "name": "ERC20InvalidReceiver",
      "type": "error"
    },
    {
      "inputs": [
        {
          "internalType": "address",
          "name": "sender",
          "type": "address"
        }
      ],
      "name": "ERC20InvalidSender",
      "type": "error"
    },
    {
      "inputs": [
        {
          "internalType": "address",
          "name": "spender",
          "type": "address"
        }
      ],
      "name": "ERC20InvalidSpender",
      "type": "error"
    },
    {
      "inputs": [
        {
          "internalType": "uint256",
          "name": "deadline",
          "type": "uint256"
        }
      ],
      "name": "ERC2612ExpiredSignature",
      "type": "error"
    },
    {
      "inputs": [
        {
          "internalType": "address",
          "name": "signer",
          "type": "address"
        },
        {
          "internalType": "address",
          "name": "owner",
          "type": "address"
        }
      ],
      "name": "ERC2612InvalidSigner",
      "type": "error"
    },
    {
      "inputs": [
        {
          "internalType": "address",
          "name": "account",
          "type": "address"
        },
        {
          "internalType": "uint256",
          "name": "currentNonce",
          "type": "uint256"
        }
      ],
      "name": "InvalidAccountNonce",
      "type": "error"
    },
    {
      "inputs": [],
      "name": "InvalidShortString",
      "type": "error"
    },
    {
      "inputs": [
        {
          "internalType": "address",
          "name": "owner",
          "type": "address"
        }
      ],
      "name": "OwnableInvalidOwner",
      "type": "error"
    },
    {
      "inputs": [
        {
          "internalType": "address",
          "name": "account",
          "type": "address"
        }
      ],
      "name": "OwnableUnauthorizedAccount",
      "type": "error"
    },
    {
      "inputs": [
        {
          "internalType": "string",
          "name": "str",
          "type": "string"
        }
      ],
      "name": "StringTooLong",
      "type": "error"
    },
    {
      "anonymous": false,
      "inputs": [
        {
          "indexed": true,
          "internalType": "address",
          "name": "owner",
          "type": "address"
        },
        {
          "indexed": true,
          "internalType": "address",
          "name": "spender",
          "type": "address"
        },
        {
          "indexed": false,
          "internalType": "uint256",
          "name": "value",
          "type": "uint256"
        }
      ],
      "name": "Approval",
      "type": "event"
    },
    {
      "anonymous": false,
      "inputs": [],
      "name": "EIP712DomainChanged",
      "type": "event"
    },
    {
      "anonymous": false,
      "inputs": [
        {
          "indexed": false,
          "internalType": "string",
          "name": "name",
          "type": "string"
        }
      ],
      "name": "NameSet",
      "type": "event"
    },
    {
      "anonymous": false,
      "inputs": [
        {
          "indexed": true,
          "internalType": "address",
          "name": "previousOwner",
          "type": "address"
        },
        {
          "indexed": true,
          "internalType": "address",
          "name": "newOwner",
          "type": "address"
        }
      ],
      "name": "OwnershipTransferStarted",
      "type": "event"
    },
    {
      "anonymous": false,
      "inputs": [
        {
          "indexed": true,
          "internalType": "address",
          "name": "previousOwner",
          "type": "address"
        },
        {
          "indexed": true,
          "internalType": "address",
          "name": "newOwner",
          "type": "address"
        }
      ],
      "name": "OwnershipTransferred",
      "type": "event"
    },
    {
      "anonymous": false,
      "inputs": [
        {
          "indexed": false,
          "internalType": "string",
          "name": "symbol",
          "type": "string"
        }
      ],
      "name": "SymbolSet",
      "type": "event"
    },
    {
      "anonymous": false,
      "inputs": [
        {
          "indexed": true,
          "internalType": "address",
          "name": "from",
          "type": "address"
        },
        {
          "indexed": true,
          "internalType": "address",
          "name": "to",
          "type": "address"
        },
        {
          "indexed": false,
          "internalType": "uint256",
          "name": "value",
          "type": "uint256"
        }
      ],
      "name": "Transfer",
      "type": "event"
    },
    {
      "anonymous": false,
      "inputs": [
        {
          "indexed": true,
          "internalType": "address",
          "name": "account",
          "type": "address"
        }
      ],
      "name": "WhitelistAdded",
      "type": "event"
    },
    {
      "anonymous": false,
      "inputs": [
        {
          "indexed": true,
          "internalType": "address",
          "name": "account",
          "type": "address"
        }
      ],
      "name": "WhitelistRemoved",
      "type": "event"
    },
    {
      "inputs": [],
      "name": "DOMAIN_SEPARATOR",
      "outputs": [
        {
          "internalType": "bytes32",
          "name": "",
          "type": "bytes32"
        }
      ],
      "stateMutability": "view",
      "type": "function"
    },
    {
      "inputs": [],
      "name": "acceptOwnership",
      "outputs": [],
      "stateMutability": "nonpayable",
      "type": "function"
    },
    {
      "inputs": [
        {
          "internalType": "address",
          "name": "_address",
          "type": "address"
        }
      ],
      "name": "addToWhitelist",
      "outputs": [],
      "stateMutability": "nonpayable",
      "type": "function"
    },
    {
      "inputs": [
        {
          "internalType": "address",
          "name": "owner",
          "type": "address"
        },
        {
          "internalType": "address",
          "name": "spender",
          "type": "address"
        }
      ],
      "name": "allowance",
      "outputs": [
        {
          "internalType": "uint256",
          "name": "",
          "type": "uint256"
        }
      ],
      "stateMutability": "view",
      "type": "function"
    },
    {
      "inputs": [
        {
          "internalType": "address",
          "name": "spender",
          "type": "address"
        },
        {
          "internalType": "uint256",
          "name": "value",
          "type": "uint256"
        }
      ],
      "name": "approve",
      "outputs": [
        {
          "internalType": "bool",
          "name": "",
          "type": "bool"
        }
      ],
      "stateMutability": "nonpayable",
      "type": "function"
    },
    {
      "inputs": [
        {
          "internalType": "address",
          "name": "account",
          "type": "address"
        }
      ],
      "name": "balanceOf",
      "outputs": [
        {
          "internalType": "uint256",
          "name": "",
          "type": "uint256"
        }
      ],
      "stateMutability": "view",
      "type": "function"
    },
    {
      "inputs": [
        {
          "internalType": "address",
          "name": "from",
          "type": "address"
        },
        {
          "internalType": "uint256",
          "name": "amount",
          "type": "uint256"
        }
      ],
      "name": "burn",
      "outputs": [],
      "stateMutability": "nonpayable",
      "type": "function"
    },
    {
      "inputs": [],
      "name": "decimals",
      "outputs": [
        {
          "internalType": "uint8",
          "name": "",
          "type": "uint8"
        }
      ],
      "stateMutability": "view",
      "type": "function"
    },
    {
      "inputs": [],
      "name": "eip712Domain",
      "outputs": [
        {
          "internalType": "bytes1",
          "name": "fields",
          "type": "bytes1"
        },
        {
          "internalType": "string",
          "name": "name",
          "type": "string"
        },
        {
          "internalType": "string",
          "name": "version",
          "type": "string"
        },
        {
          "internalType": "uint256",
          "name": "chainId",
          "type": "uint256"
        },
        {
          "internalType": "address",
          "name": "verifyingContract",
          "type": "address"
        },
        {
          "internalType": "bytes32",
          "name": "salt",
          "type": "bytes32"
        },
        {
          "internalType": "uint256[]",
          "name": "extensions",
          "type": "uint256[]"
        }
      ],
      "stateMutability": "view",
      "type": "function"
    },
    {
      "inputs": [],
      "name": "factory",
      "outputs": [
        {
          "internalType": "address",
          "name": "",
          "type": "address"
        }
      ],
      "stateMutability": "view",
      "type": "function"
    },
    {
      "inputs": [
        {
          "internalType": "address",
          "name": "_address",
          "type": "address"
        }
      ],
      "name": "isWhitelisted",
      "outputs": [
        {
          "internalType": "bool",
          "name": "",
          "type": "bool"
        }
      ],
      "stateMutability": "view",
      "type": "function"
    },
    {
      "inputs": [
        {
          "internalType": "address",
          "name": "to",
          "type": "address"
        },
        {
          "internalType": "uint256",
          "name": "amount",
          "type": "uint256"
        }
      ],
      "name": "mint",
      "outputs": [],
      "stateMutability": "nonpayable",
      "type": "function"
    },
    {
      "inputs": [],
      "name": "name",
      "outputs": [
        {
          "internalType": "string",
          "name": "",
          "type": "string"
        }
      ],
      "stateMutability": "view",
      "type": "function"
    },
    {
      "inputs": [
        {
          "internalType": "address",
          "name": "owner",
          "type": "address"
        }
      ],
      "name": "nonces",
      "outputs": [
        {
          "internalType": "uint256",
          "name": "",
          "type": "uint256"
        }
      ],
      "stateMutability": "view",
      "type": "function"
    },
    {
      "inputs": [],
      "name": "owner",
      "outputs": [
        {
          "internalType": "address",
          "name": "",
          "type": "address"
        }
      ],
      "stateMutability": "view",
      "type": "function"
    },
    {
      "inputs": [],
      "name": "pendingOwner",
      "outputs": [
        {
          "internalType": "address",
          "name": "",
          "type": "address"
        }
      ],
      "stateMutability": "view",
      "type": "function"
    },
    {
      "inputs": [
        {
          "internalType": "address",
          "name": "owner",
          "type": "address"
        },
        {
          "internalType": "address",
          "name": "spender",
          "type": "address"
        },
        {
          "internalType": "uint256",
          "name": "value",
          "type": "uint256"
        },
        {
          "internalType": "uint256",
          "name": "deadline",
          "type": "uint256"
        },
        {
          "internalType": "uint8",
          "name": "v",
          "type": "uint8"
        },
        {
          "internalType": "bytes32",
          "name": "r",
          "type": "bytes32"
        },
        {
          "internalType": "bytes32",
          "name": "s",
          "type": "bytes32"
        }
      ],
      "name": "permit",
      "outputs": [],
      "stateMutability": "nonpayable",
      "type": "function"
    },
    {
      "inputs": [
        {
          "internalType": "address",
          "name": "_address",
          "type": "address"
        }
      ],
      "name": "removeFromWhitelist",
      "outputs": [],
      "stateMutability": "nonpayable",
      "type": "function"
    },
    {
      "inputs": [],
      "name": "renounceOwnership",
      "outputs": [],
      "stateMutability": "nonpayable",
      "type": "function"
    },
    {
      "inputs": [
        {
          "internalType": "string",
          "name": "name_",
          "type": "string"
        }
      ],
      "name": "setName",
      "outputs": [],
      "stateMutability": "nonpayable",
      "type": "function"
    },
    {
      "inputs": [
        {
          "internalType": "string",
          "name": "symbol_",
          "type": "string"
        }
      ],
      "name": "setSymbol",
      "outputs": [],
      "stateMutability": "nonpayable",
      "type": "function"
    },
    {
      "inputs": [],
      "name": "symbol",
      "outputs": [
        {
          "internalType": "string",
          "name": "",
          "type": "string"
        }
      ],
      "stateMutability": "view",
      "type": "function"
    },
    {
      "inputs": [],
      "name": "totalSupply",
      "outputs": [
        {
          "internalType": "uint256",
          "name": "",
          "type": "uint256"
        }
      ],
      "stateMutability": "view",
      "type": "function"
    },
    {
      "inputs": [
        {
          "internalType": "address",
          "name": "to",
          "type": "address"
        },
        {
          "internalType": "uint256",
          "name": "value",
          "type": "uint256"
        }
      ],
      "name": "transfer",
      "outputs": [
        {
          "internalType": "bool",
          "name": "",
          "type": "bool"
        }
      ],
      "stateMutability": "nonpayable",
      "type": "function"
    },
    {
      "inputs": [
        {
          "internalType": "address",
          "name": "sender",
          "type": "address"
        },
        {
          "internalType": "address",
          "name": "recipient",
          "type": "address"
        },
        {
          "internalType": "uint256",
          "name": "amount",
          "type": "uint256"
        }
      ],
      "name": "transferFrom",
      "outputs": [
        {
          "internalType": "bool",
          "name": "",
          "type": "bool"
        }
      ],
      "stateMutability": "nonpayable",
      "type": "function"
    },
    {
      "inputs": [
        {
          "internalType": "address",
          "name": "newOwner",
          "type": "address"
        }
      ],
      "name": "transferOwnership",
      "outputs": [],
      "stateMutability": "nonpayable",
      "type": "function"
    },
    {
      "inputs": [
        {
          "internalType": "address",
          "name": "",
          "type": "address"
        }
      ],
      "name": "whitelist",
      "outputs": [
        {
          "internalType": "bool",
          "name": "",
          "type": "bool"
        }
      ],
      "stateMutability": "view",
      "type": "function"
    }
  ],
  "bytecode": "0x610180806040523461077f57612245803803809161001d8285610784565b833981019060608183031261077f5780516001600160a01b038116919082900361077f5760208101516001600160401b03811161077f57836100609183016107ca565b60408201519093906001600160401b03811161077f5761008092016107ca565b6040918251906100908483610784565b6008825260208201916713585d195c9a585b60c21b83526020928551906100b78583610784565b600082528651926100c88685610784565b600084528751936100d98986610784565b60018552603160f81b878601908152845190946001600160401b0382116104f35760035490600182811c92168015610775575b8a8310146104d35781601f849311610723575b508990601f83116001146106bb576000926106b0575b50508160011b916000199060031b1c1916176003555b8051906001600160401b0382116104f35760045490600182811c921680156106a6575b898310146104d35781601f849311610654575b508890601f83116001146105ec576000926105e1575b50508160011b916000199060031b1c1916176004555b6101b68161084a565b610120526101c3846109bd565b61014052519020918260e05251902080610100524660a052855190848201927f8b73c3c69bb8fe3d512ecc4cf759cc79239f7b179b0ffacaa9a75d522b39400f84528783015260608201524660808201523060a082015260a0815261022960c082610784565b5190206080523060c05280156105cb57600980546001600160a01b031990811690915560088054918216831790556001600160a01b03167f8be0079c531659141344cd1fd0a4f28419497f9722a3daafe3b4186f6b6457e0600080a3336101605283516001600160401b0381116104f357600a54600181811c911680156105c1575b838210146104d357601f811161057a575b508082601f821160011461051457600091610509575b508160011b916000199060031b1c191617600a555b8151906001600160401b0382116104f357600b54600181811c911680156104e9575b828210146104d357601f811161048c575b5080601f83116001146103fd575061037a6000805160206122258339815191529495836103889594600080516020612205833981519152946000916103f2575b508160011b916000199060031b1c191617600b555b86519182918261081e565b0390a183519182918261081e565b0390a1516117059081610b00823960805181611376015260a05181611433015260c05181611340015260e051816113c5015261010051816113eb01526101205181610b2201526101405181610b4b015261016051818181610625015281816108570152610d8e0152f35b90508501513861035a565b90601f198316600b60005282600020926000905b828210610474575050956001846000805160206122058339815191529461037a9461038898976000805160206122258339815191529a9b1061045b575b5050811b01600b5561036f565b87015160001960f88460031b161c19169055388061044e565b80600185968294968a01518155019501930190610411565b600b60005281600020601f840160051c8101918385106104c9575b601f0160051c01905b8181106104bd575061031a565b600081556001016104b0565b90915081906104a7565b634e487b7160e01b600052602260045260246000fd5b90607f1690610309565b634e487b7160e01b600052604160045260246000fd5b9050850151386102d2565b600a60009081528481209250601f198416905b85828210610564575050908360019493921061054b575b5050811b01600a556102e7565b87015160001960f88460031b161c19169055388061053e565b600184958293958c015181550194019201610527565b600a60005282600020601f830160051c8101918484106105b7575b601f0160051c01905b8181106105ab57506102bc565b6000815560010161059e565b9091508190610595565b90607f16906102ab565b631e4fbdf760e01b600052600060045260246000fd5b015190503880610197565b600460009081528a81209350601f198516905b8b82821061063e575050908460019594939210610625575b505050811b016004556101ad565b015160001960f88460031b161c19169055388080610617565b60018596829396860151815501950193016105ff565b909150600460005288600020601f840160051c8101918a851061069c575b90601f859493920160051c01905b81811061068d5750610181565b60008155849350600101610680565b9091508190610672565b91607f169161016e565b015190503880610135565b600360009081528b81209350601f198516905b8c82821061070d5750509084600195949392106106f4575b505050811b0160035561014b565b015160001960f88460031b161c191690553880806106e6565b60018596829396860151815501950193016106ce565b909150600360005289600020601f840160051c8101918b851061076b575b90601f859493920160051c01905b81811061075c575061011f565b6000815584935060010161074f565b9091508190610741565b91607f169161010c565b600080fd5b601f909101601f19168101906001600160401b038211908210176104f357604052565b60005b8381106107ba5750506000910152565b81810151838201526020016107aa565b81601f8201121561077f5780516001600160401b0381116104f357604051926107fd601f8301601f191660200185610784565b8184526020828401011161077f5761081b91602080850191016107a7565b90565b6040916020825261083e81518092816020860152602086860191016107a7565b601f01601f1916010190565b908151602081106000146108a7575090601f815111610886576020815191015160208210610876571790565b6000198260200360031b1b161790565b60405163305a27a960e01b81529081906108a3906004830161081e565b0390fd5b6001600160401b0381116104f357600554600181811c911680156109b3575b60208210146104d357601f811161097d575b50602092601f8211600114610918579281929360009261090d575b50508160011b916000199060031b1c19161760055560ff90565b0151905038806108f3565b601f198216936005600052806000209160005b868110610965575083600195961061094c575b505050811b0160055560ff90565b015160001960f88460031b161c1916905538808061093e565b9192602060018192868501518155019401920161092b565b6005600052601f6020600020910160051c810190601f830160051c015b8181106109a757506108d8565b6000815560010161099a565b90607f16906108c6565b908151602081106000146109e9575090601f815111610886576020815191015160208210610876571790565b6001600160401b0381116104f357600654600181811c91168015610af5575b60208210146104d357601f8111610abf575b50602092601f8211600114610a5a5792819293600092610a4f575b50508160011b916000199060031b1c19161760065560ff90565b015190503880610a35565b601f198216936006600052806000209160005b868110610aa75750836001959610610a8e575b505050811b0160065560ff90565b015160001960f88460031b161c19169055388080610a80565b91926020600181928685015181550194019201610a6d565b6006600052601f6020600020910160051c810190601f830160051c015b818110610ae95750610a1a565b60008155600101610adc565b90607f1690610a0856fe608080604052600436101561001357600080fd5b60003560e01c90816306fdde0314610f0757508063095ea7b314610ee157806318160ddd14610ec357806323b872dd14610e8a578063313ce56714610e6e5780633644e51514610e4b5780633af32abf1461091f57806340c10f1914610d6b57806370a0823114610d31578063715018a614610cca57806379ba509714610c405780637ecebe0014610c0657806384b0196e14610b095780638ab1d68114610a465780638da5cb5b14610a1d57806395d89b411461095e5780639b19251a1461091f5780639dc29fac14610834578063a9059cbb14610803578063b84c824614610654578063c45a01551461060f578063c47f002714610444578063d505accf146102f9578063dd62ed3e146102a8578063e30c39781461027f578063e43252d7146101ba5763f2fde38b1461014857600080fd5b346101b55760203660031901126101b557610161610fdb565b610169611459565b600980546001600160a01b0319166001600160a01b039283169081179091556008549091167f38d16b8cac22d99fc7c124b9cd0de2d3fa1faef420bfe791d8c362d765e22700600080a3005b600080fd5b346101b55760203660031901126101b5576101d3610fdb565b6101db611459565b6001600160a01b03166000818152600c602052604090205460ff1661023a5780600052600c6020526040600020600160ff198254161790557f4790a4adb426ca2345bb5108f6e454eae852a7bf687544cd66a7270dff3a41d6600080a2005b60405162461bcd60e51b815260206004820152601e60248201527f4164647265737320697320616c72656164792077686974656c697374656400006044820152606490fd5b346101b55760003660031901126101b5576009546040516001600160a01b039091168152602090f35b346101b55760403660031901126101b5576102c1610fdb565b6102c9610ff1565b6001600160a01b039182166000908152600160209081526040808320949093168252928352819020549051908152f35b346101b55760e03660031901126101b557610312610fdb565b61031a610ff1565b604435906064359260843560ff811681036101b55784421161042f576103f06103f99160018060a01b038416968760005260076020526040600020908154916001830190556040519060208201927f6e71edae12b1b97f4d1f60370fef10105fa2faae0126114a169c64845d6126c984528a604084015260018060a01b038916606084015289608084015260a083015260c082015260c081526103be60e082611007565b5190206103c961133d565b906040519161190160f01b83526002830152602282015260c43591604260a4359220611572565b90929192611607565b6001600160a01b03168481036104165750610414935061146d565b005b84906325c0072360e11b60005260045260245260446000fd5b8463313c898160e11b60005260045260246000fd5b346101b55761045236611029565b61045a611459565b805167ffffffffffffffff81116105f957610476600a546110a2565b601f811161058c575b506020601f82116001146104f65791816104e6927f13c98778b0c1a086bb98d7f1986e15788b5d3a1ad4c492e1d78f1c4cc51c20cf946000916104eb575b508160011b916000199060031b1c191617600a555b604051918291602083526020830190610f9a565b0390a1005b9050820151856104bd565b601f19821690600a6000526000805160206116908339815191529160005b8181106105745750927f13c98778b0c1a086bb98d7f1986e15788b5d3a1ad4c492e1d78f1c4cc51c20cf9492600192826104e6961061055b575b5050811b01600a556104d2565b84015160001960f88460031b161c19169055858061054e565b91926020600181928689015181550194019201610514565b600a600052601f820160051c6000805160206116908339815191520190602083106105e3575b601f0160051c60008051602061169083398151915201905b8181106105d7575061047f565b600081556001016105ca565b60008051602061169083398151915291506105b2565b634e487b7160e01b600052604160045260246000fd5b346101b55760003660031901126101b5576040517f00000000000000000000000000000000000000000000000000000000000000006001600160a01b03168152602090f35b346101b55761066236611029565b61066a611459565b805167ffffffffffffffff81116105f957610686600b546110a2565b601f8111610796575b506020601f82116001146107005791816104e6927f3e46ff90086ee29856e77591e82c82ff8ed513379b0fd82e84fc5290dd633c99946000916106f5575b508160011b916000199060031b1c191617600b55604051918291602083526020830190610f9a565b9050820151856106cd565b601f19821690600b6000526000805160206116b08339815191529160005b81811061077e5750927f3e46ff90086ee29856e77591e82c82ff8ed513379b0fd82e84fc5290dd633c999492600192826104e69610610765575b5050811b01600b556104d2565b84015160001960f88460031b161c191690558580610758565b9192602060018192868901518155019401920161071e565b600b600052601f820160051c6000805160206116b08339815191520190602083106107ed575b601f0160051c6000805160206116b083398151915201905b8181106107e1575061068f565b600081556001016107d4565b6000805160206116b083398151915291506107bc565b346101b55760403660031901126101b55761082961081f610fdb565b60243590336112a4565b602060405160018152f35b346101b55760403660031901126101b55761084d610fdb565b60243590610885337f00000000000000000000000000000000000000000000000000000000000000006001600160a01b03161461124c565b6001600160a01b0316908115610909576000908282528160205260408220548181106108f15760208285937fddf252ad1be2c89b69c2b068fc378daa952ba7f163c4a11628f55a4df523b3ef93869787528684520360408620558060025403600255604051908152a380f35b60649363391434e360e21b8452600452602452604452fd5b634b637e8f60e11b600052600060045260246000fd5b346101b55760203660031901126101b5576001600160a01b03610940610fdb565b16600052600c602052602060ff604060002054166040519015158152f35b346101b55760003660031901126101b5576040516000600b54610980816110a2565b80845290600181169081156109f957506001146109ac575b6109a8836104d281850382611007565b0390f35b600b60009081526000805160206116b0833981519152939250905b8082106109df575090915081016020016104d2610998565b9192600181602092548385880101520191019092916109c7565b60ff191660208086019190915291151560051b840190910191506104d29050610998565b346101b55760003660031901126101b5576008546040516001600160a01b039091168152602090f35b346101b55760203660031901126101b557610a5f610fdb565b610a67611459565b6001600160a01b03166000818152600c602052604090205460ff1615610ac45780600052600c602052604060002060ff1981541690557fde8cf212af7ce38b2840785a2768d97ff2dbf3c21b516961cec0061e134c2a1e600080a2005b60405162461bcd60e51b815260206004820152601a60248201527f41646472657373206973206e6f742077686974656c69737465640000000000006044820152606490fd5b346101b55760003660031901126101b557610ba8610b467f00000000000000000000000000000000000000000000000000000000000000006114d4565b610b6f7f000000000000000000000000000000000000000000000000000000000000000061153b565b6020610bb660405192610b828385611007565b600084526000368137604051958695600f60f81b875260e08588015260e0870190610f9a565b908582036040870152610f9a565b466060850152306080850152600060a085015283810360c085015281808451928381520193019160005b828110610bef57505050500390f35b835185528695509381019392810192600101610be0565b346101b55760203660031901126101b5576001600160a01b03610c27610fdb565b1660005260076020526020604060002054604051908152f35b346101b55760003660031901126101b557600954336001600160a01b0390911603610cb557600980546001600160a01b0319908116909155600880543392811683179091556001600160a01b03167f8be0079c531659141344cd1fd0a4f28419497f9722a3daafe3b4186f6b6457e0600080a3005b63118cdaa760e01b6000523360045260246000fd5b346101b55760003660031901126101b557610ce3611459565b600980546001600160a01b03199081169091556008805491821690556000906001600160a01b03167f8be0079c531659141344cd1fd0a4f28419497f9722a3daafe3b4186f6b6457e08280a3005b346101b55760203660031901126101b5576001600160a01b03610d52610fdb565b1660005260006020526020604060002054604051908152f35b346101b55760403660031901126101b557610d84610fdb565b60243590610dbc337f00000000000000000000000000000000000000000000000000000000000000006001600160a01b03161461124c565b6001600160a01b03168015610e355760025491808301809311610e1f576020926002557fddf252ad1be2c89b69c2b068fc378daa952ba7f163c4a11628f55a4df523b3ef600093849284845283825260408420818154019055604051908152a380f35b634e487b7160e01b600052601160045260246000fd5b63ec442f0560e01b600052600060045260246000fd5b346101b55760003660031901126101b5576020610e6661133d565b604051908152f35b346101b55760003660031901126101b557602060405160128152f35b346101b55760603660031901126101b5576020610eb9610ea8610fdb565b610eb0610ff1565b6044359161115f565b6040519015158152f35b346101b55760003660031901126101b5576020600254604051908152f35b346101b55760403660031901126101b557610829610efd610fdb565b602435903361146d565b346101b55760003660031901126101b5576000600a54610f26816110a2565b80845290600181169081156109f95750600114610f4d576109a8836104d281850382611007565b600a6000908152600080516020611690833981519152939250905b808210610f80575090915081016020016104d2610998565b919260018160209254838588010152019101909291610f68565b919082519283825260005b848110610fc6575050826000602080949584010152601f8019910116010190565b80602080928401015182828601015201610fa5565b600435906001600160a01b03821682036101b557565b602435906001600160a01b03821682036101b557565b90601f8019910116810190811067ffffffffffffffff8211176105f957604052565b60206003198201126101b55760043567ffffffffffffffff81116101b557816023820112156101b55780600401359067ffffffffffffffff82116105f9576040519261107f601f8401601f191660200185611007565b828452602483830101116101b55781600092602460209301838601378301015290565b90600182811c921680156110d2575b60208310146110bc57565b634e487b7160e01b600052602260045260246000fd5b91607f16916110b1565b600092918154916110ec836110a2565b8083529260018116908115611142575060011461110857505050565b60009081526020812093945091925b838310611128575060209250010190565b600181602092949394548385870101520191019190611117565b915050602093945060ff929192191683830152151560051b010190565b919033600052600c60205260ff60406000205416611243576001600160a01b0383166000818152600160208181526040808420338552909152909120549194919081016111b7575b506111b293506112a4565b600190565b8381106112265784156112105733156111fa576111b2946000526001602052604060002060018060a01b03331660005260205283604060002091039055386111a7565b634a1406b160e11b600052600060045260246000fd5b63e602df0560e01b600052600060045260246000fd5b8390637dc7a0d960e11b6000523360045260245260445260646000fd5b6111b2926112a4565b1561125357565b60405162461bcd60e51b815260206004820152602360248201527f4d6174657269616c3a2063616c6c6572206973206e6f742074686520666163746044820152626f727960e81b6064820152608490fd5b6001600160a01b0316908115610909576001600160a01b0316918215610e355760008281528060205260408120548281106113235791604082827fddf252ad1be2c89b69c2b068fc378daa952ba7f163c4a11628f55a4df523b3ef958760209652828652038282205586815280845220818154019055604051908152a3565b916064928463391434e360e21b8452600452602452604452fd5b307f00000000000000000000000000000000000000000000000000000000000000006001600160a01b03161480611430575b15611398577f000000000000000000000000000000000000000000000000000000000000000090565b60405160208101907f8b73c3c69bb8fe3d512ecc4cf759cc79239f7b179b0ffacaa9a75d522b39400f82527f000000000000000000000000000000000000000000000000000000000000000060408201527f000000000000000000000000000000000000000000000000000000000000000060608201524660808201523060a082015260a0815261142a60c082611007565b51902090565b507f0000000000000000000000000000000000000000000000000000000000000000461461136f565b6008546001600160a01b03163303610cb557565b6001600160a01b0316908115611210576001600160a01b03169182156111fa5760207f8c5be1e5ebec7d5bd14f71427d1e84f3dd0314c0f7b2291e5b200ac8c7c3b925918360005260018252604060002085600052825280604060002055604051908152a3565b60ff811461151e5760ff811690601f821161150d5760408051926114f88285611007565b6020808552840191601f190136833783525290565b632cd44ac360e21b60005260046000fd5b50604051611538816115318160056110dc565b0382611007565b90565b60ff811461155f5760ff811690601f821161150d5760408051926114f88285611007565b50604051611538816115318160066110dc565b91907f7fffffffffffffffffffffffffffffff5d576e7357a4501ddfe92f46681b20a084116115fb579160209360809260ff60009560405194855216868401526040830152606082015282805260015afa156115ef576000516001600160a01b038116156115e35790600090600090565b50600090600190600090565b6040513d6000823e3d90fd5b50505060009160039190565b9190916004811015611679578061161d57509050565b6000600182036116385763f645eedf60e01b60005260046000fd5b5060028103611656578263fce698f760e01b60005260045260246000fd5b9091600360009214611666575050565b6335e2f38360e21b825260045260249150fd5b634e487b7160e01b600052602160045260246000fdfec65a7bb8d6351c1cf70c95a316cc6a92839c986682d98bc35f958f4883f9d2a80175b7a638427703f0dbe7bb9bbf987a2551717b34e79f33b5b1008d1fa01db9a26469706673582212204991e885173c10812a242b919bf4e4a34b024d79ba9b96a45f80509924f6365964736f6c634300081c003313c98778b0c1a086bb98d7f1986e15788b5d3a1ad4c492e1d78f1c4cc51c20cf3e46ff90086ee29856e77591e82c82ff8ed513379b0fd82e84fc5290dd633c99",
  "linkReferences": {},
  "deployedLinkReferences": {}
}