{
    "_format": "hh-sol-artifact-1",
    "contractName": "MaterialTrade",
    "sourceName": "contracts/gaming/MaterialTrade.sol",
    "abi": [
        {
            "anonymous": false,
            "inputs": [
                {
                    "indexed": false,
                    "internalType": "uint8",
                    "name": "version",
                    "type": "uint8"
                }
            ],
            "name": "Initialized",
            "type": "event"
        },
        {
            "anonymous": false,
            "inputs": [
                {
                    "indexed": true,
                    "internalType": "address",
                    "name": "materialOwner",
                    "type": "address"
                },
                {
                    "indexed": true,
                    "internalType": "address",
                    "name": "materialAddress",
                    "type": "address"
                },
                {
                    "indexed": false,
                    "internalType": "string",
                    "name": "name",
                    "type": "string"
                },
                {
                    "indexed": false,
                    "internalType": "string",
                    "name": "symbol",
                    "type": "string"
                }
            ],
            "name": "MaterialCreated",
            "type": "event"
        },
        {
            "anonymous": false,
            "inputs": [
                {
                    "indexed": true,
                    "internalType": "address",
                    "name": "previousOwner",
                    "type": "address"
                },
                {
                    "indexed": true,
                    "internalType": "address",
                    "name": "newOwner",
                    "type": "address"
                }
            ],
            "name": "OwnershipTransferred",
            "type": "event"
        },
        {
            "anonymous": false,
            "inputs": [
                {
                    "indexed": false,
                    "internalType": "uint256",
                    "name": "percent",
                    "type": "uint256"
                }
            ],
            "name": "SetMaterialOwnerFeePercent",
            "type": "event"
        },
        {
            "anonymous": false,
            "inputs": [
                {
                    "indexed": true,
                    "internalType": "address",
                    "name": "destination",
                    "type": "address"
                }
            ],
            "name": "SetProtocolFeeDestination",
            "type": "event"
        },
        {
            "anonymous": false,
            "inputs": [
                {
                    "indexed": false,
                    "internalType": "uint256",
                    "name": "percent",
                    "type": "uint256"
                }
            ],
            "name": "SetProtocolFeePercent",
            "type": "event"
        },
        {
            "anonymous": false,
            "inputs": [
                {
                    "indexed": true,
                    "internalType": "address",
                    "name": "trader",
                    "type": "address"
                },
                {
                    "indexed": true,
                    "internalType": "address",
                    "name": "materialAddress",
                    "type": "address"
                },
                {
                    "indexed": true,
                    "internalType": "bool",
                    "name": "isBuy",
                    "type": "bool"
                },
                {
                    "indexed": false,
                    "internalType": "uint256",
                    "name": "amount",
                    "type": "uint256"
                },
                {
                    "indexed": false,
                    "internalType": "uint256",
                    "name": "price",
                    "type": "uint256"
                },
                {
                    "indexed": false,
                    "internalType": "uint256",
                    "name": "protocolFee",
                    "type": "uint256"
                },
                {
                    "indexed": false,
                    "internalType": "uint256",
                    "name": "materialOwnerFee",
                    "type": "uint256"
                },
                {
                    "indexed": false,
                    "internalType": "uint256",
                    "name": "supply",
                    "type": "uint256"
                }
            ],
            "name": "Trade",
            "type": "event"
        },
        {
            "inputs": [
                {
                    "internalType": "address",
                    "name": "materialAddress",
                    "type": "address"
                },
                {
                    "internalType": "uint256",
                    "name": "amount",
                    "type": "uint256"
                }
            ],
            "name": "buy",
            "outputs": [],
            "stateMutability": "payable",
            "type": "function"
        },
        {
            "inputs": [
                {
                    "internalType": "string",
                    "name": "name",
                    "type": "string"
                },
                {
                    "internalType": "string",
                    "name": "symbol",
                    "type": "string"
                }
            ],
            "name": "createMaterial",
            "outputs": [
                {
                    "internalType": "address",
                    "name": "",
                    "type": "address"
                }
            ],
            "stateMutability": "nonpayable",
            "type": "function"
        },
        {
            "inputs": [
                {
                    "internalType": "address",
                    "name": "materialAddress",
                    "type": "address"
                },
                {
                    "internalType": "uint256",
                    "name": "amount",
                    "type": "uint256"
                }
            ],
            "name": "getBuyPrice",
            "outputs": [
                {
                    "internalType": "uint256",
                    "name": "",
                    "type": "uint256"
                }
            ],
            "stateMutability": "view",
            "type": "function"
        },
        {
            "inputs": [
                {
                    "internalType": "address",
                    "name": "materialAddress",
                    "type": "address"
                },
                {
                    "internalType": "uint256",
                    "name": "amount",
                    "type": "uint256"
                }
            ],
            "name": "getBuyPriceAfterFee",
            "outputs": [
                {
                    "internalType": "uint256",
                    "name": "",
                    "type": "uint256"
                }
            ],
            "stateMutability": "view",
            "type": "function"
        },
        {
            "inputs": [
                {
                    "internalType": "uint256",
                    "name": "supply",
                    "type": "uint256"
                },
                {
                    "internalType": "uint256",
                    "name": "amount",
                    "type": "uint256"
                }
            ],
            "name": "getPrice",
            "outputs": [
                {
                    "internalType": "uint256",
                    "name": "",
                    "type": "uint256"
                }
            ],
            "stateMutability": "view",
            "type": "function"
        },
        {
            "inputs": [
                {
                    "internalType": "address",
                    "name": "materialAddress",
                    "type": "address"
                },
                {
                    "internalType": "uint256",
                    "name": "amount",
                    "type": "uint256"
                }
            ],
            "name": "getSellPrice",
            "outputs": [
                {
                    "internalType": "uint256",
                    "name": "",
                    "type": "uint256"
                }
            ],
            "stateMutability": "view",
            "type": "function"
        },
        {
            "inputs": [
                {
                    "internalType": "address",
                    "name": "materialAddress",
                    "type": "address"
                },
                {
                    "internalType": "uint256",
                    "name": "amount",
                    "type": "uint256"
                }
            ],
            "name": "getSellPriceAfterFee",
            "outputs": [
                {
                    "internalType": "uint256",
                    "name": "",
                    "type": "uint256"
                }
            ],
            "stateMutability": "view",
            "type": "function"
        },
        {
            "inputs": [
                {
                    "internalType": "uint256",
                    "name": "_baseDivider",
                    "type": "uint256"
                },
                {
                    "internalType": "address payable",
                    "name": "_protocolFeeDestination",
                    "type": "address"
                },
                {
                    "internalType": "uint256",
                    "name": "_protocolFeePercent",
                    "type": "uint256"
                },
                {
                    "internalType": "uint256",
                    "name": "_materialOwnerFeePercent",
                    "type": "uint256"
                }
            ],
            "name": "initialize",
            "outputs": [],
            "stateMutability": "nonpayable",
            "type": "function"
        },
        {
            "inputs": [],
            "name": "materialOwnerFeePercent",
            "outputs": [
                {
                    "internalType": "uint256",
                    "name": "",
                    "type": "uint256"
                }
            ],
            "stateMutability": "view",
            "type": "function"
        },
        {
            "inputs": [],
            "name": "owner",
            "outputs": [
                {
                    "internalType": "address",
                    "name": "",
                    "type": "address"
                }
            ],
            "stateMutability": "view",
            "type": "function"
        },
        {
            "inputs": [],
            "name": "protocolFeeDestination",
            "outputs": [
                {
                    "internalType": "address payable",
                    "name": "",
                    "type": "address"
                }
            ],
            "stateMutability": "view",
            "type": "function"
        },
        {
            "inputs": [],
            "name": "protocolFeePercent",
            "outputs": [
                {
                    "internalType": "uint256",
                    "name": "",
                    "type": "uint256"
                }
            ],
            "stateMutability": "view",
            "type": "function"
        },
        {
            "inputs": [],
            "name": "renounceOwnership",
            "outputs": [],
            "stateMutability": "nonpayable",
            "type": "function"
        },
        {
            "inputs": [
                {
                    "internalType": "address",
                    "name": "materialAddress",
                    "type": "address"
                },
                {
                    "internalType": "uint256",
                    "name": "amount",
                    "type": "uint256"
                }
            ],
            "name": "sell",
            "outputs": [],
            "stateMutability": "nonpayable",
            "type": "function"
        },
        {
            "inputs": [
                {
                    "internalType": "uint256",
                    "name": "_feePercent",
                    "type": "uint256"
                }
            ],
            "name": "setMaterialOwnerFeePercent",
            "outputs": [],
            "stateMutability": "nonpayable",
            "type": "function"
        },
        {
            "inputs": [
                {
                    "internalType": "address payable",
                    "name": "_feeDestination",
                    "type": "address"
                }
            ],
            "name": "setProtocolFeeDestination",
            "outputs": [],
            "stateMutability": "nonpayable",
            "type": "function"
        },
        {
            "inputs": [
                {
                    "internalType": "uint256",
                    "name": "_feePercent",
                    "type": "uint256"
                }
            ],
            "name": "setProtocolFeePercent",
            "outputs": [],
            "stateMutability": "nonpayable",
            "type": "function"
        },
        {
            "inputs": [
                {
                    "internalType": "address",
                    "name": "newOwner",
                    "type": "address"
                }
            ],
            "name": "transferOwnership",
            "outputs": [],
            "stateMutability": "nonpayable",
            "type": "function"
        }
    ],
    "bytecode": "0x6080806040523461001657613b45908161001c8239f35b600080fdfe604060808152600490813610156200001657600080fd5b600091823560e01c80630f026f6d1462000db9578063150e08691462000d985780632267a89c1462000d3b5780634635256e1462000d0c5780634ce7957c1462000ce15780635cf4ee911462000cba5780636c197ff514620009cc578063715018a6146200096a5780638da5cb5b146200093f5780639ae717811462000909578063a10786b0146200089b578063a4983421146200084a578063acd3c1c41462000717578063ae4a452514620004f9578063c04aabb114620004a8578063cce7ec1314620001bc578063d6e6eb9f14620001975763f2fde38b14620000fa57600080fd5b346200019357602036600319011262000193576200011762000e16565b916200012262001185565b6001600160a01b038316156200014157836200013e84620011de565b80f35b906020608492519162461bcd60e51b8352820152602660248201527f4f776e61626c653a206e6577206f776e657220697320746865207a65726f206160448201526564647265737360d01b6064820152fd5b8280fd5b505034620001b85781600319360112620001b8576020906099549051908152f35b5080fd5b5090806003193601126200019357620001d462000e16565b60243590620001e4828262000f2b565b926002606554146200046657600260655560018060a01b0380921693670de0b6b3a7640000918262000219609a548462000ee5565b0492620002296099548462000ee5565b049162000242846200023c858462000f0f565b62000f0f565b34106200042c57863b156200041e5781516340c10f1960e01b815233818a01908152602081018890528a91908290829081906040010381838d5af18015620004225762000406575b50506200029c83866098541662001288565b8151638da5cb5b60e01b81526020959086818b818c5afa908115620003fc57918691620002d3938d91620003c8575b501662001288565b620002e4846200023c858462000f0f565b34116200039b575b84825180996318160ddd60e01b8252818a5afa9485156200039157899562000356575b600198508251968752860152840152606083015260808201527f2c76e7a47fd53e2854856ac3f0a5f3ee40d15cfaa82266357ea9779c486ab9c360a03392a4600160655580f35b80955088813d831162000389575b62000370818362000e58565b81010312620003845760019751946200030f565b600080fd5b503d62000364565b82513d8b823e3d90fd5b620003c2620003bb85620003b586620003b5863462000f1d565b62000f1d565b3362001288565b620002ec565b620003ed9150893d8b11620003f4575b620003e4818362000e58565b81019062001164565b38620002cb565b503d620003d8565b84513d8d823e3d90fd5b620004119062000e2d565b6200041e5788386200028a565b8880fd5b84513d84823e3d90fd5b815162461bcd60e51b81526020818a01526014602482015273125b9cdd59999a58da595b9d081c185e5b595b9d60621b6044820152606490fd5b5162461bcd60e51b8152602081860152601f60248201527f5265656e7472616e637947756172643a207265656e7472616e742063616c6c006044820152606490fd5b50346200019357602036600319011262000193577fcbed27c3b5051584184ee1ed4b8cccaed83291c58664ae0687f428add9eb793a916020913590620004ed62001185565b81609a5551908152a180f35b50346200019357608036600319011262000193576024356001600160a01b0381169081900362000384578354600881901c60ff1615916064359160443590848062000709575b8015620006f0575b156200069657602080937fcbed27c3b5051584184ee1ed4b8cccaed83291c58664ae0687f428add9eb793a95937f98d1698e9a7ee55a2ded97de72077c93add26ce8534679021d0e7c44edcb325b9388600160ff198316178d5562000684575b50620005c560ff8c5460081c16620005bf8162001227565b62001227565b620005d033620011de565b8a5498620005e960ff8b60081c16620005bf8162001227565b600160655535609755816bffffffffffffffffffffffff60a01b60985416176098558060995584609a558951917f72fe3f5fb15c2671900303001fbe3a8adf9df5c76bfd269a9508c8753b9c35c98c80a28152a18551908152a16200064c578280f35b61ff001916825551600181527f7f26b83ff96e1f2b6a682f133852f6798a09c465da95921460cefb384740249890602090a138808280f35b61ffff1916610101178b5538620005a7565b865162461bcd60e51b8152602081880152602e60248201527f496e697469616c697a61626c653a20636f6e747261637420697320616c72656160448201526d191e481a5b9a5d1a585b1a5e995960921b6064820152608490fd5b50303b158015620005475750600160ff82161462000547565b50600160ff8216106200053f565b509134620008475781600319360112620008475767ffffffffffffffff908335828111620001b8576200074e903690860162000e98565b93602435838111620001935762000769903690830162000e98565b9284519161277f9081840192848410908411176200083457508291620007b79162001391843933815260606020820152620007a8606082018962001122565b90878183039101528562001122565b039082f0908115620008295783518481526020906001600160a01b038416908690829087907fe9de9a3e1dddbf259893723eddfaf2984b03051c5b1a759d16dbf589cb4e5fa2908062000820620008118288018f62001122565b8281038a840152339562001122565b0390a351908152f35b8351903d90823e3d90fd5b634e487b7160e01b855260419052602484fd5b80fd5b50346200019357602036600319011262000193577f98d1698e9a7ee55a2ded97de72077c93add26ce8534679021d0e7c44edcb325b9160209135906200088f62001185565b8160995551908152a180f35b8334620008475760203660031901126200084757620008b962000e16565b620008c362001185565b609880546001600160a01b0319166001600160a01b039290921691821790557f72fe3f5fb15c2671900303001fbe3a8adf9df5c76bfd269a9508c8753b9c35c98280a280f35b505034620001b85780600319360112620001b857602090620009386200092e62000e16565b6024359062001099565b9051908152f35b505034620001b85781600319360112620001b85760335490516001600160a01b039091168152602090f35b833462000847578060031936011262000847576200098762001185565b603380546001600160a01b031981169091556000906001600160a01b03167f8be0079c531659141344cd1fd0a4f28419497f9722a3daafe3b4186f6b6457e08280a380f35b50919034620001b85780600319360112620001b857620009eb62000e16565b9260243590620009fc828662001099565b9260026065541462000c7757600260655560018060a01b0380961693670de0b6b3a7640000918262000a31609a548462000ee5565b049262000a416099548462000ee5565b049181516370a0823160e01b8152338682015260209081816024818c5afa90811562000bf9579088918b9162000c3c575b501062000c0357873b156200041e578251632770a7eb60e21b81523387820190815260208101899052909a908a908c9081906040010381838d5af1801562000bf95762000be2575b899a5062000ad2620003bb87620003b5888762000f1d565b62000ae285826098541662001288565b8351638da5cb5b60e01b8152828189818d5afa90811562000bd85791879162000b14938d9162000bbd57501662001288565b80835180976318160ddd60e01b8252818b5afa95861562000bb357899662000b7b575b508251968752860152840152606083015260808201527f2c76e7a47fd53e2854856ac3f0a5f3ee40d15cfaa82266357ea9779c486ab9c360a03392a4600160655580f35b809950818097503d831162000bab575b62000b97818362000e58565b810103126200038457889751943862000b37565b503d62000b8b565b83513d8b823e3d90fd5b620003ed9150853d8711620003f457620003e4818362000e58565b85513d8d823e3d90fd5b98909962000bf09062000e2d565b97899062000aba565b84513d8c823e3d90fd5b8560649184519162461bcd60e51b83528201526014602482015273496e73756666696369656e742062616c616e636560601b6044820152fd5b809250838092503d831162000c6f575b62000c58818362000e58565b8101031262000c6b578790513862000a72565b8980fd5b503d62000c4c565b906020606492519162461bcd60e51b8352820152601f60248201527f5265656e7472616e637947756172643a207265656e7472616e742063616c6c006044820152fd5b50913462000847578160031936011262000847575062000938602092602435903562000fb5565b505034620001b85781600319360112620001b85760985490516001600160a01b039091168152602090f35b505034620001b85780600319360112620001b8576020906200093862000d3162000e16565b6024359062000f2b565b505034620001b85780600319360112620001b8576020906200093862000d646200092e62000e16565b620003b5670de0b6b3a76400008062000d806099548562000ee5565b049062000d90609a548562000ee5565b049262000f1d565b505034620001b85781600319360112620001b857602090609a549051908152f35b505034620001b85780600319360112620001b8576020906200093862000de262000d3162000e16565b6200023c670de0b6b3a76400008062000dfe6099548562000ee5565b049062000e0e609a548562000ee5565b049262000f0f565b600435906001600160a01b03821682036200038457565b67ffffffffffffffff811162000e4257604052565b634e487b7160e01b600052604160045260246000fd5b90601f8019910116810190811067ffffffffffffffff82111762000e4257604052565b67ffffffffffffffff811162000e4257601f01601f191660200190565b81601f82011215620003845780359062000eb28262000e7b565b9262000ec2604051948562000e58565b828452602083830101116200038457816000926020809301838601378301015290565b8181029291811591840414171562000ef957565b634e487b7160e01b600052601160045260246000fd5b9190820180921162000ef957565b9190820391821162000ef957565b6040516318160ddd60e01b81529190602090839060049082906001600160a01b03165afa801562000fa95760009062000f6e575b62000f6b925062000fb5565b90565b506020823d60201162000fa0575b8162000f8b6020938362000e58565b81010312620003845762000f6b915162000f5f565b3d915062000f7c565b6040513d6000823e3d90fd5b90670de0b6b3a7640000908183019182841162000ef9578062000fd9848662000ee5565b6001600160ff1b0393600187901b92909104848716870362000ef95783830180931162000ef9576200103a600685620010186200104296829562000ee5565b04049662001033846200102c818c62000f0f565b9262000f0f565b9062000ee5565b049562000f0f565b8060011b9281160362000ef95780820180921162000ef9576200106c600692620010749562000ee5565b040462000f1d565b60975490811562001083570490565b634e487b7160e01b600052601260045260246000fd5b6040516318160ddd60e01b81529190602090839060049082906001600160a01b03165afa91821562000fa957600092620010e5575b50620010df8162000f6b9362000f1d565b62000fb5565b91506020823d60201162001119575b81620011036020938362000e58565b810103126200038457905190620010df620010ce565b3d9150620010f4565b919082519283825260005b8481106200114f575050826000602080949584010152601f8019910116010190565b6020818301810151848301820152016200112d565b908160209103126200038457516001600160a01b0381168103620003845790565b6033546001600160a01b031633036200119a57565b606460405162461bcd60e51b815260206004820152602060248201527f4f776e61626c653a2063616c6c6572206973206e6f7420746865206f776e65726044820152fd5b603380546001600160a01b039283166001600160a01b0319821681179092559091167f8be0079c531659141344cd1fd0a4f28419497f9722a3daafe3b4186f6b6457e0600080a3565b156200122f57565b60405162461bcd60e51b815260206004820152602b60248201527f496e697469616c697a61626c653a20636f6e7472616374206973206e6f74206960448201526a6e697469616c697a696e6760a81b6064820152608490fd5b8147106200134b576000918291829182916001600160a01b03165af13d1562001345573d620012b78162000e7b565b90620012c7604051928362000e58565b8152600060203d92013e5b15620012da57565b60405162461bcd60e51b815260206004820152603a60248201527f416464726573733a20756e61626c6520746f2073656e642076616c75652c207260448201527f6563697069656e74206d617920686176652072657665727465640000000000006064820152608490fd5b620012d2565b60405162461bcd60e51b815260206004820152601d60248201527f416464726573733a20696e73756666696369656e742062616c616e63650000006044820152606490fdfe6101808060405234620008c6576200277f803803809162000021828562000903565b83398101606082820312620008c6578151916001600160a01b0383168303620008c65760208101516001600160401b038111620008c65782620000669183016200094c565b60408201519092906001600160401b038111620008c6576200008992016200094c565b906040516200009881620008cb565b600881526713585d195c9a585b60c21b602082015260405190620000bc82620008e7565b60008252604051620000ce81620008e7565b6000815260405192620000e184620008cb565b60018452603160f81b60208501528051906001600160401b038211620005735760035490600182811c92168015620008bb575b6020831014620005525781601f84931162000849575b50602090601f8311600114620007ba57600092620007ae575b50508160011b916000199060031b1c1916176003555b8051906001600160401b038211620005735760045490600182811c92168015620007a3575b6020831014620005525781601f8493116200072e575b50602090601f83116001146200069f5760009262000693575b50508160011b916000199060031b1c1916176004555b620001ce8162000a29565b61012052620001dd8262000bad565b6101405260208151910120908160e0526020815191012080610100524660a0526040519060208201927f8b73c3c69bb8fe3d512ecc4cf759cc79239f7b179b0ffacaa9a75d522b39400f8452604083015260608201524660808201523060a082015260a0815260c0810181811060018060401b0382111762000573576040525190206080523060c0526200027133620009d5565b3361016090815281519093906001600160401b0381116200057357600b54600181811c9116801562000688575b60208210146200055257601f81116200061e575b50806020601f8211600114620005955760009162000589575b508160011b916000199060031b1c191617600b555b82516001600160401b0381116200057357600c54600181811c9116801562000568575b60208210146200055257601f8111620004e8575b506020601f82116001146200041f57620003a9936200038c7fadf3ae8bd543b3007d464f15cb8ea1db3f44e84d41d203164f40b95e27558ac69694846000805160206200275f83398151915295620003999560009162000413575b508160011b916000199060031b1c191617600c55620009d5565b60405191829182620009a7565b0390a160405191829182620009a7565b0390a1604051611a5a918262000d0583396080518261156d015260a05182611639015260c05182611537015260e051826115bc015261010051826115e201526101205182610ab601526101405182610ae001525181818161086701528181610d650152610dc20152f35b90508701513862000372565b600c60009081527fdf6966c971051c3d54ec59162606531493a51404a002842f56009d7e5cf4a8c79190601f198416905b818110620004cf57507fadf3ae8bd543b3007d464f15cb8ea1db3f44e84d41d203164f40b95e27558ac696946001856200039995620003a999956000805160206200275f833981519152986200038c9610620004b5575b5050811b01600c55620009d5565b89015160001960f88460031b161c191690553880620004a7565b9192602060018192868b01518155019401920162000450565b600c6000527fdf6966c971051c3d54ec59162606531493a51404a002842f56009d7e5cf4a8c7601f830160051c8101916020841062000547575b601f0160051c01905b8181106200053a575062000317565b600081556001016200052b565b909150819062000522565b634e487b7160e01b600052602260045260246000fd5b90607f169062000303565b634e487b7160e01b600052604160045260246000fd5b905083015138620002cb565b600b60009081527f0175b7a638427703f0dbe7bb9bbf987a2551717b34e79f33b5b1008d1fa01db99250601f198416905b8181106200060557509083600194939210620005eb575b5050811b01600b55620002e0565b85015160001960f88460031b161c191690553880620005dd565b9192602060018192868a015181550194019201620005c6565b600b6000527f0175b7a638427703f0dbe7bb9bbf987a2551717b34e79f33b5b1008d1fa01db9601f830160051c810191602084106200067d575b601f0160051c01905b818110620006705750620002b2565b6000815560010162000661565b909150819062000658565b90607f16906200029e565b015190503880620001ad565b6004600090815293507f8a35acfbc15ff81a39ae7d344fd709f28e8600b4aa8c65c6b64bfe7fe36bd19b91905b601f198416851062000712576001945083601f19811610620006f8575b505050811b01600455620001c3565b015160001960f88460031b161c19169055388080620006e9565b81810151835560209485019460019093019290910190620006cc565b60046000529091507f8a35acfbc15ff81a39ae7d344fd709f28e8600b4aa8c65c6b64bfe7fe36bd19b601f840160051c8101916020851062000798575b90601f859493920160051c01905b81811062000788575062000194565b6000815584935060010162000779565b90915081906200076b565b91607f16916200017e565b01519050388062000143565b6003600090815293507fc2575a0e9e593c00f959f8c92f12db2869c3395a3b0502d05e2516446f71f85b91905b601f19841685106200082d576001945083601f1981161062000813575b505050811b0160035562000159565b015160001960f88460031b161c1916905538808062000804565b81810151835560209485019460019093019290910190620007e7565b60036000529091507fc2575a0e9e593c00f959f8c92f12db2869c3395a3b0502d05e2516446f71f85b601f840160051c810160208510620008b3575b90849392915b601f830160051c82018110620008a35750506200012a565b600081558594506001016200088b565b508062000885565b91607f169162000114565b600080fd5b604081019081106001600160401b038211176200057357604052565b602081019081106001600160401b038211176200057357604052565b601f909101601f19168101906001600160401b038211908210176200057357604052565b60005b8381106200093b5750506000910152565b81810151838201526020016200092a565b81601f82011215620008c65780516001600160401b03811162000573576040519262000983601f8301601f19166020018562000903565b81845260208284010111620008c657620009a4916020808501910162000927565b90565b60409160208252620009c9815180928160208601526020868601910162000927565b601f01601f1916010190565b600a80546001600160a01b0319908116909155600980549182166001600160a01b0393841690811790915591167f8be0079c531659141344cd1fd0a4f28419497f9722a3daafe3b4186f6b6457e0600080a3565b8051602091908281101562000a88575090601f82511162000a67578082519201519080831062000a5857501790565b82600019910360031b1b161790565b60405163305a27a960e01b81528062000a848460048301620009a7565b0390fd5b6001600160401b03811162000573576005928354926001938481811c9116801562000ba2575b838210146200055257601f811162000b6b575b5081601f841160011462000b01575092829391839260009462000af5575b50501b916000199060031b1c191617905560ff90565b01519250388062000adf565b919083601f1981168760005284600020946000905b8883831062000b50575050501062000b36575b505050811b01905560ff90565b015160001960f88460031b161c1916905538808062000b29565b85870151885590960195948501948793509081019062000b16565b8560005284601f846000209201871c820191601f8601881c015b82811062000b9557505062000ac1565b6000815501859062000b85565b90607f169062000aae565b80516020908181101562000bda5750601f82511162000a67578082519201519080831062000a5857501790565b906001600160401b0382116200057357600654926001938481811c9116801562000cf9575b838210146200055257601f811162000cbf575b5081601f841160011462000c53575092829391839260009462000c47575b50501b916000199060031b1c19161760065560ff90565b01519250388062000c30565b919083601f198116600660005284600020946000905b8883831062000ca4575050501062000c8a575b505050811b0160065560ff90565b015160001960f88460031b161c1916905538808062000c7c565b85870151885590960195948501948793509081019062000c69565b600660005284601f84600020920160051c820191601f860160051c015b82811062000cec57505062000c12565b6000815501859062000cdc565b90607f169062000bff56fe60806040908082526004918236101561001757600080fd5b600092833560e01c92836306fdde031461102257508263095ea7b314610ff857826318160ddd14610fd957826323b872dd14610f10578263313ce56714610ef45782633644e51514610ed05782633950935114610e8057826340c10f1914610d94578263588ae32514610d5057826370a0823114610d19578263715018a614610cb257826379ba509714610be75782637ecebe0014610baf57826384b0196e14610a9f5782638da5cb5b14610a7657826395d89b41146109885782639dc29fac1461083a578263a457c2d714610797578263a9059cbb14610766578263b84c8246146105ac578263c47f0027146103d8578263d505accf1461022057508163dd62ed3e146101d7578163e30c3978146101aa575063f2fde38b1461013a57600080fd5b346101a75760203660031901126101a757610153611112565b61015b61165f565b600a80546001600160a01b0319166001600160a01b039283169081179091556009549091167f38d16b8cac22d99fc7c124b9cd0de2d3fa1faef420bfe791d8c362d765e227008380a380f35b80fd5b9050346101d357816003193601126101d357600a5490516001600160a01b039091168152602090f35b5080fd5b9050346101d357806003193601126101d357806020926101f5611112565b6101fd61112d565b6001600160a01b0391821683526001865283832091168252845220549051908152f35b8390346101d35760e03660031901126101d35761023b611112565b61024361112d565b906044359260643560843560ff811681036103d4578142116103915760018060a01b0390818516928389526007602052898920908154916001830190558a519060208201927f6e71edae12b1b97f4d1f60370fef10105fa2faae0126114a169c64845d6126c98452868d840152858a1660608401528a608084015260a083015260c082015260c0815260e0810181811067ffffffffffffffff82111761037e578b525190206103269161031e916102f8611534565b908c519161190160f01b83526002830152602282015260c43591604260a435922061187b565b91909161190a565b160361033b57506103389394506112c4565b80f35b606490602087519162461bcd60e51b8352820152601e60248201527f45524332305065726d69743a20696e76616c6964207369676e617475726500006044820152fd5b634e487b7160e01b8b526041875260248bfd5b875162461bcd60e51b8152602081850152601d60248201527f45524332305065726d69743a206578706972656420646561646c696e650000006044820152606490fd5b8680fd5b8382346101d3576103e836611197565b906103f161165f565b81519367ffffffffffffffff8511610599575061040f600b54611208565b601f8111610536575b50602093601f811160011461049057908161047f939285967f4df9dcd34ae35f40f2c756fd8ac83210ed0b76d065543ee73d868aec7c7fcf029691610485575b508160011b916000199060031b1c191617600b555b519182916020835260208301906110d2565b0390a180f35b905083015187610458565b600b84527f0175b7a638427703f0dbe7bb9bbf987a2551717b34e79f33b5b1008d1fa01db9601f198216855b81811061051e5750916001917f4df9dcd34ae35f40f2c756fd8ac83210ed0b76d065543ee73d868aec7c7fcf0296978261047f97969510610505575b5050811b01600b5561046d565b85015160001960f88460031b161c1916905587806104f8565b858801518355602097880197600190930192016104bc565b600b84527f0175b7a638427703f0dbe7bb9bbf987a2551717b34e79f33b5b1008d1fa01db9601f860160051c8101916020871061058f575b601f0160051c01905b8181106105845750610418565b848155600101610577565b909150819061056e565b634e487b7160e01b845260419052602483fd5b8382346101d3576105bc36611197565b906105c561165f565b81519367ffffffffffffffff851161059957506105e3600c54611208565b601f8111610703575b50602093601f811160011461065d57908161047f939285967fadf3ae8bd543b3007d464f15cb8ea1db3f44e84d41d203164f40b95e27558ac69691610652575b508160011b916000199060031b1c191617600c55519182916020835260208301906110d2565b90508301518761062c565b600c84527fdf6966c971051c3d54ec59162606531493a51404a002842f56009d7e5cf4a8c7601f198216855b8181106106eb5750916001917fadf3ae8bd543b3007d464f15cb8ea1db3f44e84d41d203164f40b95e27558ac696978261047f979695106106d2575b5050811b01600c5561046d565b85015160001960f88460031b161c1916905587806106c5565b85880151835560209788019760019093019201610689565b600c84527fdf6966c971051c3d54ec59162606531493a51404a002842f56009d7e5cf4a8c7601f860160051c8101916020871061075c575b601f0160051c01905b81811061075157506105ec565b848155600101610744565b909150819061073b565b8382346101d357806003193601126101d357602090610790610786611112565b60243590336113c6565b5160018152f35b83346101a757826003193601126101a7576107b0611112565b918360243592338152600160205281812060018060a01b03861682526020522054908282106107e95760208561079085850387336112c4565b608490602086519162461bcd60e51b8352820152602560248201527f45524332303a2064656372656173656420616c6c6f77616e63652062656c6f77604482015264207a65726f60d81b6064820152fd5b8390346101d357826003193601126101d357610854611112565b602435906001600160a01b039061088e337f0000000000000000000000000000000000000000000000000000000000000000841614611265565b1691821561093b578284528360205284842054908282106108ed57508184957fddf252ad1be2c89b69c2b068fc378daa952ba7f163c4a11628f55a4df523b3ef936020938688528785520381872055816002540360025551908152a380f35b608490602087519162461bcd60e51b8352820152602260248201527f45524332303a206275726e20616d6f756e7420657863656564732062616c616e604482015261636560f01b6064820152fd5b608490602086519162461bcd60e51b8352820152602160248201527f45524332303a206275726e2066726f6d20746865207a65726f206164647265736044820152607360f81b6064820152fd5b5082346101a757806003193601126101a7578151918282600c546109ab81611208565b9081845260209560019187600182169182600014610a4f5750506001146109f3575b5050506109ef92916109e0910385611175565b519282849384528301906110d2565b0390f35b9190869350600c83527fdf6966c971051c3d54ec59162606531493a51404a002842f56009d7e5cf4a8c75b828410610a3757505050820101816109e06109ef6109cd565b8054848a018601528895508794909301928101610a1e565b60ff19168782015293151560051b860190930193508492506109e091506109ef90506109cd565b8382346101d357816003193601126101d35760095490516001600160a01b039091168152602090f35b915034610bab5782600319360112610bab57610ada7f00000000000000000000000000000000000000000000000000000000000000006116b7565b92610b047f00000000000000000000000000000000000000000000000000000000000000006117bb565b90825192602092602085019585871067ffffffffffffffff8811176105995750926020610b61838896610b54998b9996528686528151998a99600f60f81b8b5260e0868c015260e08b01906110d2565b91898303908a01526110d2565b924660608801523060808801528460a088015286840360c088015251928381520193925b828110610b9457505050500390f35b835185528695509381019392810192600101610b85565b8280fd5b8382346101d35760203660031901126101d35760209181906001600160a01b03610bd7611112565b1681526007845220549051908152f35b915034610bab5782600319360112610bab57600a54916001600160a01b03913383851603610c5d5750506bffffffffffffffffffffffff60a01b809216600a556009549133908316176009553391167f8be0079c531659141344cd1fd0a4f28419497f9722a3daafe3b4186f6b6457e08380a380f35b906020608492519162461bcd60e51b8352820152602960248201527f4f776e61626c6532537465703a2063616c6c6572206973206e6f7420746865206044820152683732bb9037bbb732b960b91b6064820152fd5b83346101a757806003193601126101a757610ccb61165f565b600a80546001600160a01b031990811690915560098054918216905581906001600160a01b03167f8be0079c531659141344cd1fd0a4f28419497f9722a3daafe3b4186f6b6457e08280a380f35b8382346101d35760203660031901126101d35760209181906001600160a01b03610d41611112565b16815280845220549051908152f35b8382346101d357816003193601126101d357517f00000000000000000000000000000000000000000000000000000000000000006001600160a01b03168152602090f35b915034610bab5780600319360112610bab57610dae611112565b60243591906001600160a01b0390610de9337f0000000000000000000000000000000000000000000000000000000000000000841614611265565b16928315610e3e57506020827fddf252ad1be2c89b69c2b068fc378daa952ba7f163c4a11628f55a4df523b3ef92610e248795600254611242565b60025585855284835280852082815401905551908152a380f35b6020606492519162461bcd60e51b8352820152601f60248201527f45524332303a206d696e7420746f20746865207a65726f2061646472657373006044820152fd5b8382346101d357806003193601126101d357610790602092610ec9610ea3611112565b338352600186528483206001600160a01b03821684528652918490205460243590611242565b90336112c4565b8382346101d357816003193601126101d357602090610eed611534565b9051908152f35b8382346101d357816003193601126101d3576020905160128152f35b8390346101d35760603660031901126101d357610f2b611112565b610f3361112d565b91846044359460018060a01b038416815260016020528181203382526020522054906000198203610f6d575b6020866107908787876113c6565b848210610f965750918391610f8b60209695610790950333836112c4565b919394819350610f5f565b606490602087519162461bcd60e51b8352820152601d60248201527f45524332303a20696e73756666696369656e7420616c6c6f77616e63650000006044820152fd5b8382346101d357816003193601126101d3576020906002549051908152f35b8382346101d357806003193601126101d357602090610790611018611112565b60243590336112c4565b8483346101d357816003193601126101d3578282600b5461104281611208565b9081845260209560019187600182169182600014610a4f575050600114611076575050506109ef92916109e0910385611175565b9190869350600b83527f0175b7a638427703f0dbe7bb9bbf987a2551717b34e79f33b5b1008d1fa01db95b8284106110ba57505050820101816109e06109ef6109cd565b8054848a0186015288955087949093019281016110a1565b919082519283825260005b8481106110fe575050826000602080949584010152601f8019910116010190565b6020818301810151848301820152016110dd565b600435906001600160a01b038216820361112857565b600080fd5b602435906001600160a01b038216820361112857565b6040810190811067ffffffffffffffff82111761115f57604052565b634e487b7160e01b600052604160045260246000fd5b90601f8019910116810190811067ffffffffffffffff82111761115f57604052565b60206003198201126111285767ffffffffffffffff600435818111611128578260238201121561112857806004013591821161115f57604051926111e5601f8401601f191660200185611175565b828452602483830101116111285781600092602460209301838601378301015290565b90600182811c92168015611238575b602083101461122257565b634e487b7160e01b600052602260045260246000fd5b91607f1691611217565b9190820180921161124f57565b634e487b7160e01b600052601160045260246000fd5b1561126c57565b60405162461bcd60e51b815260206004820152602a60248201527f4d6174657269616c3a2063616c6c6572206973206e6f7420746865206d6174656044820152697269616c20747261646560b01b6064820152608490fd5b6001600160a01b0390811691821561137557169182156113255760207f8c5be1e5ebec7d5bd14f71427d1e84f3dd0314c0f7b2291e5b200ac8c7c3b925918360005260018252604060002085600052825280604060002055604051908152a3565b60405162461bcd60e51b815260206004820152602260248201527f45524332303a20617070726f766520746f20746865207a65726f206164647265604482015261737360f01b6064820152608490fd5b60405162461bcd60e51b8152602060048201526024808201527f45524332303a20617070726f76652066726f6d20746865207a65726f206164646044820152637265737360e01b6064820152608490fd5b6001600160a01b039081169182156114e157169182156114905760008281528060205260408120549180831061143c57604082827fddf252ad1be2c89b69c2b068fc378daa952ba7f163c4a11628f55a4df523b3ef958760209652828652038282205586815220818154019055604051908152a3565b60405162461bcd60e51b815260206004820152602660248201527f45524332303a207472616e7366657220616d6f756e7420657863656564732062604482015265616c616e636560d01b6064820152608490fd5b60405162461bcd60e51b815260206004820152602360248201527f45524332303a207472616e7366657220746f20746865207a65726f206164647260448201526265737360e81b6064820152608490fd5b60405162461bcd60e51b815260206004820152602560248201527f45524332303a207472616e736665722066726f6d20746865207a65726f206164604482015264647265737360d81b6064820152608490fd5b307f00000000000000000000000000000000000000000000000000000000000000006001600160a01b03161480611636575b1561158f577f000000000000000000000000000000000000000000000000000000000000000090565b60405160208101907f8b73c3c69bb8fe3d512ecc4cf759cc79239f7b179b0ffacaa9a75d522b39400f82527f000000000000000000000000000000000000000000000000000000000000000060408201527f000000000000000000000000000000000000000000000000000000000000000060608201524660808201523060a082015260a0815260c0810181811067ffffffffffffffff82111761115f5760405251902090565b507f00000000000000000000000000000000000000000000000000000000000000004614611566565b6009546001600160a01b0316330361167357565b606460405162461bcd60e51b815260206004820152602060248201527f4f776e61626c653a2063616c6c6572206973206e6f7420746865206f776e65726044820152fd5b60ff81146116f55760ff811690601f82116116e357604051916116d983611143565b8252602082015290565b604051632cd44ac360e21b8152600490fd5b5060405160055481600061170883611208565b808352926020906001908181169081156117975750600114611736575b505061173392500382611175565b90565b91509260056000527f036b6384b5eca791c62761152d0c79bb0604c104a5fb6f4eb0703f3154bb3db0936000925b82841061177f57506117339450505081016020013880611725565b85548785018301529485019486945092810192611764565b9150506020925061173394915060ff191682840152151560051b8201013880611725565b60ff81146117dd5760ff811690601f82116116e357604051916116d983611143565b506040516006548160006117f083611208565b80835292602090600190818116908115611797575060011461181a57505061173392500382611175565b91509260066000527ff652222313e28459528d920b65115c16c04f3efc82aaedc97be59f3f377c0d3f936000925b82841061186357506117339450505081016020013880611725565b85548785018301529485019486945092810192611848565b9291907f7fffffffffffffffffffffffffffffff5d576e7357a4501ddfe92f46681b20a083116118fe5791608094939160ff602094604051948552168484015260408301526060820152600093849182805260015afa156118f15781516001600160a01b038116156118eb579190565b50600190565b50604051903d90823e3d90fd5b50505050600090600390565b6005811015611a0e578061191b5750565b600181036119685760405162461bcd60e51b815260206004820152601860248201527f45434453413a20696e76616c6964207369676e617475726500000000000000006044820152606490fd5b600281036119b55760405162461bcd60e51b815260206004820152601f60248201527f45434453413a20696e76616c6964207369676e6174757265206c656e677468006044820152606490fd5b6003146119be57565b60405162461bcd60e51b815260206004820152602260248201527f45434453413a20696e76616c6964207369676e6174757265202773272076616c604482015261756560f01b6064820152608490fd5b634e487b7160e01b600052602160045260246000fdfea264697066735822122053cef48357bc3f99debe41fd3d566ffdc7e7e86806822d83357827b96bfaed9a64736f6c634300081800334df9dcd34ae35f40f2c756fd8ac83210ed0b76d065543ee73d868aec7c7fcf02a264697066735822122057413654858586f4d6711d7b98f1243233c801e9ac124c48134df0826298977664736f6c63430008180033",
    "linkReferences": {},
    "deployedLinkReferences": {}
}