{
  "_format": "hh-sol-artifact-1",
  "contractName": "TopicShares",
  "sourceName": "contracts/social/TopicShares.sol",
  "abi": [
    {
      "inputs": [],
      "name": "ECDSAInvalidSignature",
      "type": "error"
    },
    {
      "inputs": [
        {
          "internalType": "uint256",
          "name": "length",
          "type": "uint256"
        }
      ],
      "name": "ECDSAInvalidSignatureLength",
      "type": "error"
    },
    {
      "inputs": [
        {
          "internalType": "bytes32",
          "name": "s",
          "type": "bytes32"
        }
      ],
      "name": "ECDSAInvalidSignatureS",
      "type": "error"
    },
    {
      "inputs": [],
      "name": "FailedCall",
      "type": "error"
    },
    {
      "inputs": [
        {
          "internalType": "uint256",
          "name": "balance",
          "type": "uint256"
        },
        {
          "internalType": "uint256",
          "name": "needed",
          "type": "uint256"
        }
      ],
      "name": "InsufficientBalance",
      "type": "error"
    },
    {
      "inputs": [],
      "name": "InvalidInitialization",
      "type": "error"
    },
    {
      "inputs": [],
      "name": "NotInitializing",
      "type": "error"
    },
    {
      "inputs": [
        {
          "internalType": "address",
          "name": "owner",
          "type": "address"
        }
      ],
      "name": "OwnableInvalidOwner",
      "type": "error"
    },
    {
      "inputs": [
        {
          "internalType": "address",
          "name": "account",
          "type": "address"
        }
      ],
      "name": "OwnableUnauthorizedAccount",
      "type": "error"
    },
    {
      "inputs": [],
      "name": "ReentrancyGuardReentrantCall",
      "type": "error"
    },
    {
      "anonymous": false,
      "inputs": [
        {
          "indexed": true,
          "internalType": "address",
          "name": "holder",
          "type": "address"
        },
        {
          "indexed": true,
          "internalType": "bytes32",
          "name": "topic",
          "type": "bytes32"
        },
        {
          "indexed": false,
          "internalType": "uint256",
          "name": "fee",
          "type": "uint256"
        }
      ],
      "name": "HolderFeeClaimed",
      "type": "event"
    },
    {
      "anonymous": false,
      "inputs": [
        {
          "indexed": false,
          "internalType": "uint256",
          "name": "rate",
          "type": "uint256"
        }
      ],
      "name": "HolderFeeRateUpdated",
      "type": "event"
    },
    {
      "anonymous": false,
      "inputs": [
        {
          "indexed": true,
          "internalType": "address",
          "name": "verifier",
          "type": "address"
        }
      ],
      "name": "HoldingVerifierUpdated",
      "type": "event"
    },
    {
      "anonymous": false,
      "inputs": [
        {
          "indexed": false,
          "internalType": "uint64",
          "name": "version",
          "type": "uint64"
        }
      ],
      "name": "Initialized",
      "type": "event"
    },
    {
      "anonymous": false,
      "inputs": [
        {
          "indexed": true,
          "internalType": "address",
          "name": "previousOwner",
          "type": "address"
        },
        {
          "indexed": true,
          "internalType": "address",
          "name": "newOwner",
          "type": "address"
        }
      ],
      "name": "OwnershipTransferred",
      "type": "event"
    },
    {
      "anonymous": false,
      "inputs": [
        {
          "indexed": false,
          "internalType": "uint256",
          "name": "rate",
          "type": "uint256"
        }
      ],
      "name": "ProtocolFeeRateUpdated",
      "type": "event"
    },
    {
      "anonymous": false,
      "inputs": [
        {
          "indexed": true,
          "internalType": "address",
          "name": "trader",
          "type": "address"
        },
        {
          "indexed": true,
          "internalType": "bytes32",
          "name": "topic",
          "type": "bytes32"
        },
        {
          "indexed": true,
          "internalType": "bool",
          "name": "isBuy",
          "type": "bool"
        },
        {
          "indexed": false,
          "internalType": "uint256",
          "name": "amount",
          "type": "uint256"
        },
        {
          "indexed": false,
          "internalType": "uint256",
          "name": "price",
          "type": "uint256"
        },
        {
          "indexed": false,
          "internalType": "uint256",
          "name": "protocolFee",
          "type": "uint256"
        },
        {
          "indexed": false,
          "internalType": "uint256",
          "name": "holderFee",
          "type": "uint256"
        },
        {
          "indexed": false,
          "internalType": "uint256",
          "name": "holdingReward",
          "type": "uint256"
        },
        {
          "indexed": false,
          "internalType": "uint256",
          "name": "supply",
          "type": "uint256"
        }
      ],
      "name": "TradeExecuted",
      "type": "event"
    },
    {
      "anonymous": false,
      "inputs": [
        {
          "indexed": true,
          "internalType": "address",
          "name": "treasury",
          "type": "address"
        }
      ],
      "name": "TreasuryUpdated",
      "type": "event"
    },
    {
      "inputs": [
        {
          "internalType": "bytes32[]",
          "name": "_topics",
          "type": "bytes32[]"
        }
      ],
      "name": "batchClaimHolderFees",
      "outputs": [],
      "stateMutability": "nonpayable",
      "type": "function"
    },
    {
      "inputs": [
        {
          "internalType": "bytes32[]",
          "name": "_topics",
          "type": "bytes32[]"
        },
        {
          "internalType": "address",
          "name": "holder",
          "type": "address"
        }
      ],
      "name": "batchClaimableHolderFees",
      "outputs": [
        {
          "internalType": "uint256[]",
          "name": "claimableFees",
          "type": "uint256[]"
        }
      ],
      "stateMutability": "view",
      "type": "function"
    },
    {
      "inputs": [
        {
          "internalType": "bytes32",
          "name": "topic",
          "type": "bytes32"
        },
        {
          "internalType": "uint256",
          "name": "amount",
          "type": "uint256"
        },
        {
          "internalType": "bytes",
          "name": "holdingRewardSignature",
          "type": "bytes"
        }
      ],
      "name": "buy",
      "outputs": [],
      "stateMutability": "payable",
      "type": "function"
    },
    {
      "inputs": [
        {
          "internalType": "uint256",
          "name": "baseAmount",
          "type": "uint256"
        },
        {
          "internalType": "bytes",
          "name": "signature",
          "type": "bytes"
        }
      ],
      "name": "calculateHoldingReward",
      "outputs": [
        {
          "internalType": "uint256",
          "name": "",
          "type": "uint256"
        }
      ],
      "stateMutability": "view",
      "type": "function"
    },
    {
      "inputs": [
        {
          "internalType": "bytes32",
          "name": "topic",
          "type": "bytes32"
        }
      ],
      "name": "claimHolderFee",
      "outputs": [],
      "stateMutability": "nonpayable",
      "type": "function"
    },
    {
      "inputs": [
        {
          "internalType": "bytes32",
          "name": "topic",
          "type": "bytes32"
        },
        {
          "internalType": "address",
          "name": "holder",
          "type": "address"
        }
      ],
      "name": "claimableHolderFee",
      "outputs": [
        {
          "internalType": "uint256",
          "name": "claimableFee",
          "type": "uint256"
        }
      ],
      "stateMutability": "view",
      "type": "function"
    },
    {
      "inputs": [
        {
          "internalType": "bytes32",
          "name": "topic",
          "type": "bytes32"
        },
        {
          "internalType": "uint256",
          "name": "amount",
          "type": "uint256"
        }
      ],
      "name": "getBuyPrice",
      "outputs": [
        {
          "internalType": "uint256",
          "name": "",
          "type": "uint256"
        }
      ],
      "stateMutability": "view",
      "type": "function"
    },
    {
      "inputs": [
        {
          "internalType": "bytes32",
          "name": "topic",
          "type": "bytes32"
        },
        {
          "internalType": "uint256",
          "name": "amount",
          "type": "uint256"
        }
      ],
      "name": "getBuyPriceAfterFee",
      "outputs": [
        {
          "internalType": "uint256",
          "name": "",
          "type": "uint256"
        }
      ],
      "stateMutability": "view",
      "type": "function"
    },
    {
      "inputs": [
        {
          "internalType": "uint256",
          "name": "_supply",
          "type": "uint256"
        },
        {
          "internalType": "uint256",
          "name": "amount",
          "type": "uint256"
        }
      ],
      "name": "getPrice",
      "outputs": [
        {
          "internalType": "uint256",
          "name": "",
          "type": "uint256"
        }
      ],
      "stateMutability": "view",
      "type": "function"
    },
    {
      "inputs": [
        {
          "internalType": "bytes32",
          "name": "topic",
          "type": "bytes32"
        },
        {
          "internalType": "uint256",
          "name": "amount",
          "type": "uint256"
        }
      ],
      "name": "getSellPrice",
      "outputs": [
        {
          "internalType": "uint256",
          "name": "",
          "type": "uint256"
        }
      ],
      "stateMutability": "view",
      "type": "function"
    },
    {
      "inputs": [
        {
          "internalType": "bytes32",
          "name": "topic",
          "type": "bytes32"
        },
        {
          "internalType": "uint256",
          "name": "amount",
          "type": "uint256"
        }
      ],
      "name": "getSellPriceAfterFee",
      "outputs": [
        {
          "internalType": "uint256",
          "name": "",
          "type": "uint256"
        }
      ],
      "stateMutability": "view",
      "type": "function"
    },
    {
      "inputs": [],
      "name": "holderFeeRate",
      "outputs": [
        {
          "internalType": "uint256",
          "name": "",
          "type": "uint256"
        }
      ],
      "stateMutability": "view",
      "type": "function"
    },
    {
      "inputs": [
        {
          "internalType": "bytes32",
          "name": "",
          "type": "bytes32"
        },
        {
          "internalType": "address",
          "name": "",
          "type": "address"
        }
      ],
      "name": "holders",
      "outputs": [
        {
          "internalType": "uint256",
          "name": "balance",
          "type": "uint256"
        },
        {
          "internalType": "int256",
          "name": "feeDebt",
          "type": "int256"
        }
      ],
      "stateMutability": "view",
      "type": "function"
    },
    {
      "inputs": [],
      "name": "holdingVerifier",
      "outputs": [
        {
          "internalType": "address",
          "name": "",
          "type": "address"
        }
      ],
      "stateMutability": "view",
      "type": "function"
    },
    {
      "inputs": [
        {
          "internalType": "address payable",
          "name": "_treasury",
          "type": "address"
        },
        {
          "internalType": "uint256",
          "name": "_protocolFeeRate",
          "type": "uint256"
        },
        {
          "internalType": "uint256",
          "name": "_holderFeeRate",
          "type": "uint256"
        },
        {
          "internalType": "uint256",
          "name": "_priceIncrementPerShare",
          "type": "uint256"
        },
        {
          "internalType": "address",
          "name": "_holdingVerifier",
          "type": "address"
        }
      ],
      "name": "initialize",
      "outputs": [],
      "stateMutability": "nonpayable",
      "type": "function"
    },
    {
      "inputs": [],
      "name": "owner",
      "outputs": [
        {
          "internalType": "address",
          "name": "",
          "type": "address"
        }
      ],
      "stateMutability": "view",
      "type": "function"
    },
    {
      "inputs": [],
      "name": "priceIncrementPerShare",
      "outputs": [
        {
          "internalType": "uint256",
          "name": "",
          "type": "uint256"
        }
      ],
      "stateMutability": "view",
      "type": "function"
    },
    {
      "inputs": [],
      "name": "protocolFeeRate",
      "outputs": [
        {
          "internalType": "uint256",
          "name": "",
          "type": "uint256"
        }
      ],
      "stateMutability": "view",
      "type": "function"
    },
    {
      "inputs": [],
      "name": "renounceOwnership",
      "outputs": [],
      "stateMutability": "nonpayable",
      "type": "function"
    },
    {
      "inputs": [
        {
          "internalType": "bytes32",
          "name": "topic",
          "type": "bytes32"
        },
        {
          "internalType": "uint256",
          "name": "amount",
          "type": "uint256"
        },
        {
          "internalType": "bytes",
          "name": "holdingRewardSignature",
          "type": "bytes"
        }
      ],
      "name": "sell",
      "outputs": [],
      "stateMutability": "nonpayable",
      "type": "function"
    },
    {
      "inputs": [
        {
          "internalType": "uint256",
          "name": "_rate",
          "type": "uint256"
        }
      ],
      "name": "setHolderFeeRate",
      "outputs": [],
      "stateMutability": "nonpayable",
      "type": "function"
    },
    {
      "inputs": [
        {
          "internalType": "address",
          "name": "_verifier",
          "type": "address"
        }
      ],
      "name": "setHoldingVerifier",
      "outputs": [],
      "stateMutability": "nonpayable",
      "type": "function"
    },
    {
      "inputs": [
        {
          "internalType": "uint256",
          "name": "_rate",
          "type": "uint256"
        }
      ],
      "name": "setProtocolFeeRate",
      "outputs": [],
      "stateMutability": "nonpayable",
      "type": "function"
    },
    {
      "inputs": [
        {
          "internalType": "address payable",
          "name": "_treasury",
          "type": "address"
        }
      ],
      "name": "setTreasury",
      "outputs": [],
      "stateMutability": "nonpayable",
      "type": "function"
    },
    {
      "inputs": [
        {
          "internalType": "bytes32",
          "name": "",
          "type": "bytes32"
        }
      ],
      "name": "topics",
      "outputs": [
        {
          "internalType": "uint256",
          "name": "supply",
          "type": "uint256"
        },
        {
          "internalType": "uint256",
          "name": "accFeePerUnit",
          "type": "uint256"
        }
      ],
      "stateMutability": "view",
      "type": "function"
    },
    {
      "inputs": [
        {
          "internalType": "address",
          "name": "newOwner",
          "type": "address"
        }
      ],
      "name": "transferOwnership",
      "outputs": [],
      "stateMutability": "nonpayable",
      "type": "function"
    },
    {
      "inputs": [],
      "name": "treasury",
      "outputs": [
        {
          "internalType": "address payable",
          "name": "",
          "type": "address"
        }
      ],
      "stateMutability": "view",
      "type": "function"
    }
  ],
  "bytecode": "0x60808060405234601557611abb908161001b8239f35b600080fdfe6080604052600436101561001257600080fd5b60003560e01c80630f2fbeec146101c757806320ebaa6e146101c25780632e50b914146101bd578063408412d4146101b85780634236e876146101b357806346fe4eef146101ae57806358f85880146101a95780635cf4ee91146101a457806361d027b31461019f5780636c28e3491461019a5780636c9a3dad14610195578063715018a6146101905780637491ed9e1461018b5780637582ae9f146101865780638501da5b146101815780638da5cb5b1461017c57806399bb0e01146101775780639a23e0c4146101725780639dc446d11461016d578063b13aa2d614610168578063c093e81d14610163578063c8d777581461015e578063cacd555314610159578063cad244cd14610154578063e87474781461014f578063f0f442601461014a5763f2fde38b1461014557600080fd5b61100a565b610f59565b610f19565b610edd565b610eb9565b610e5e565b610de9565b610d89565b610d60565b610be9565b610bcb565b610b95565b610b35565b610a83565b61084c565b610749565b6106d7565b610545565b61051c565b6104fb565b6104dd565b6104b3565b610423565b610405565b6103ce565b61031a565b346101fc5760203660031901126101fc5760043560005260056020526040806000206001815491015482519182526020820152f35b600080fd5b634e487b7160e01b600052604160045260246000fd5b6040810190811067ffffffffffffffff82111761023357604052565b610201565b90601f8019910116810190811067ffffffffffffffff82111761023357604052565b67ffffffffffffffff81116102335760051b60200190565b9080601f830112156101fc5781356102898161025a565b926102976040519485610238565b81845260208085019260051b8201019283116101fc57602001905b8282106102bf5750505090565b81358152602091820191016102b2565b6001600160a01b038116036101fc57565b602060408183019282815284518094520192019060005b8181106103045750505090565b82518452602093840193909201916001016102f7565b346101fc5760403660031901126101fc5760043567ffffffffffffffff81116101fc5761034b903690600401610272565b60243590610358826102cf565b8051916103648361025a565b926103726040519485610238565b808452610381601f199161025a565b0136602085013760005b82518110156103bc57806103ab836103a560019487611037565b51611106565b6103b58287611037565b520161038b565b604051806103ca86826102e0565b0390f35b346101fc5760403660031901126101fc5760206103fd600435602435906000526005835260406000205461119d565b604051908152f35b346101fc5760003660031901126101fc576020600354604051908152f35b346101fc5760403660031901126101fc57600435602435906000526005602052604060002054908082039182116104ae5761046461049e916103ca9361119d565b610499670de0b6b3a764000061047c6001548461108f565b04670de0b6b3a76400006104926004548561108f565b04926110c2565b6110c2565b6040519081529081906020820190565b611061565b346101fc5760403660031901126101fc5760206103fd6024356004356104d8826102cf565b611106565b346101fc5760003660031901126101fc576020600154604051908152f35b346101fc5760403660031901126101fc5760206103fd60243560043561119d565b346101fc5760003660031901126101fc576000546040516001600160a01b039091168152602090f35b346101fc5760a03660031901126101fc57600435610562816102cf565b60243590608435606435604435610578836102cf565b600080516020611a66833981519152549467ffffffffffffffff6105ac60ff604089901c16159767ffffffffffffffff1690565b16801590816106cf575b60011490816106c5575b1590816106bc575b506106ab5761060e9486610605600167ffffffffffffffff19600080516020611a66833981519152541617600080516020611a6683398151915255565b61066f57611226565b61061457005b61064060ff60401b19600080516020611a668339815191525416600080516020611a6683398151915255565b604051600181527fc7f505b2f371ae2175ee4913f4499e1f2633a7b5936321eed1cdaeb6115181d290602090a1005b6106a66801000000000000000060ff60401b19600080516020611a66833981519152541617600080516020611a6683398151915255565b611226565b63f92ee8a960e01b60005260046000fd5b905015386105c8565b303b1591506105c0565b8791506105b6565b346101fc5760403660031901126101fc5761070560043560243590600052600560205260406000205461119d565b670de0b6b3a764000061071a6001548361108f565b0490670de0b6b3a76400006107316004548361108f565b049181018091116104ae576103ca9161049e91611190565b346101fc5760003660031901126101fc576107626116e5565b600080516020611a2683398151915280546001600160a01b031981169091556000906001600160a01b03167f8be0079c531659141344cd1fd0a4f28419497f9722a3daafe3b4186f6b6457e08280a3005b67ffffffffffffffff811161023357601f01601f191660200190565b81601f820112156101fc578035906107e6826107b3565b926107f46040519485610238565b828452602083830101116101fc57816000926020809301838601378301015290565b60606003198201126101fc5760043591602435916044359067ffffffffffffffff82116101fc57610849916004016107cf565b90565b60017f72a167317188c79d935d3bc60f32e97ac4acd6823204f17abad01999b191e6c66108c461087b36610816565b61088994929493919361171b565b610a476108e06108ad866108a7896000526005602052604060002090565b5461119d565b926104996108d78a54926108d26108c4858961108f565b670de0b6b3a7640000900490565b611517565b9586928661108f565b926108f9816108f46108c46004548761108f565b611190565b9061091361090b836108f48888611190565b3410156113e4565b61092f61092a896000526005602052604060002090565b6110cf565b6109596109468a6000526006602052604060002090565b3360009081526020919091526040902090565b610964898254611190565b815560208201906109908c61098661097e8d86519061108f565b612710900490565b9201918254611427565b905561099d898351611190565b82526109bd6109b66109ae86611077565b8451906110a2565b8251611190565b90526109e8816109d78b6000526005602052604060002090565b906020600191805184550151910155565b6000546109ff9087906001600160a01b0316611757565b610a0d836108f48888611190565b3411610a63575b51916040519586953399879260a094919796959260c0850198855260208501526040840152606083015260808201520152565b0390a4610a616001600080516020611a4683398151915255565b005b610a7e610a7884610499896104998a346110c2565b33611757565b610a14565b346101fc5760203660031901126101fc57600435610aa0816102cf565b610aa86116e5565b6001600160a01b03168015610af057600280546001600160a01b031916821790557f3988ebfb0c33faf605fb350301ca0a21968c8582d29bcbc1fe992b21e81a8e90600080a2005b60405162461bcd60e51b815260206004820152601860248201527f496e76616c6964207665726966696572206164647265737300000000000000006044820152606490fd5b346101fc5760203660031901126101fc577fa82815e798ee4657af325919386442466bcdafec930b2cad8a0a32414c6410f76020600435610b746116e5565b610b88670de0b6b3a7640000821115611443565b80600455604051908152a1005b346101fc5760003660031901126101fc57600080516020611a26833981519152546040516001600160a01b039091168152602090f35b346101fc5760003660031901126101fc576020600454604051908152f35b346101fc5760007f72a167317188c79d935d3bc60f32e97ac4acd6823204f17abad01999b191e6c66108c4610c1d36610816565b610c2b94929493919361171b565b610a47610c70610c5886610c5381610c4d8b6000526005602052604060002090565b546110c2565b61119d565b926104996108d7600154926108d26108c4858961108f565b92610c84816108f46108c46004548761108f565b90610ce687610d376001610d2d61097e8d610d2486610d1d8b6109d7610cee610cba61092a886000526005602052604060002090565b9c8d93610ce1610cd76109468b6000526006602052604060002090565b9e8f54101561148f565b611077565b8351906110a2565b95610cfe60208401978851611190565b8752610d0b8584516110c2565b83526000526005602052604060002090565b87546110c2565b8655518d61108f565b92019182546110ed565b9055610d4a610a788461049989896110c2565b8954610a149087906001600160a01b0316611757565b346101fc5760003660031901126101fc576002546040516001600160a01b039091168152602090f35b346101fc5760203660031901126101fc577f9d2a5010795914ccbdd5a4cdee6a9aa2addac5e44443b519897523b67ddfe9fc6020600435610dc86116e5565b610ddc670de0b6b3a7640000821115611443565b80600155604051908152a1005b346101fc5760203660031901126101fc5760043567ffffffffffffffff81116101fc57610e1a903690600401610272565b610e2261171b565b60005b8151811015610e4a5780610e44610e3e60019385611037565b516117d1565b01610e25565b6001600080516020611a4683398151915255005b346101fc5760403660031901126101fc576040610ea6602435600435610e83826102cf565b6000526006602052826000209060018060a01b0316600052602052604060002090565b6001815491015482519182526020820152f35b346101fc5760203660031901126101fc57610e4a600435610ed861171b565b6117d1565b346101fc5760403660031901126101fc576004356024359060005260056020526040600020548181039081116104ae576020916103fd9161119d565b346101fc5760403660031901126101fc5760043560243567ffffffffffffffff81116101fc57602091610f536103fd9236906004016107cf565b90611517565b346101fc5760203660031901126101fc57600435610f76816102cf565b610f7e6116e5565b6001600160a01b03168015610fc557600080546001600160a01b031916821781557f7dae230f18360d76a040c81f050aa14eb9d6dc7901b20fc5d855e2a20fe814d19080a2005b60405162461bcd60e51b815260206004820152601860248201527f496e76616c6964207472656173757279206164647265737300000000000000006044820152606490fd5b346101fc5760203660031901126101fc57610a6160043561102a816102cf565b6110326116e5565b61166f565b805182101561104b5760209160051b010190565b634e487b7160e01b600052603260045260246000fd5b634e487b7160e01b600052601160045260246000fd5b9061271082029180830461271014901517156104ae57565b818102929181159184041417156104ae57565b81156110ac570490565b634e487b7160e01b600052601260045260246000fd5b919082039182116104ae57565b906040516110dc81610217565b602060018294805484520154910152565b818103929160001380158285131691841216176104ae57565b61271061118761116261084994846000526005602052604060002094602060016040519761113389610217565b8054895201549601958652600052600660205260406000209060018060a01b0316600052602052604060002090565b6040519361116f85610217565b6020600183549384885201549501948552519061108f565b049051906110ed565b919082018092116104ae57565b906003546111ab818461108f565b8101928382116104ae578281018091116104ae57816111c99161108f565b81018091116104ae5782018092116104ae576108499160011c61108f565b156111ee57565b60405162461bcd60e51b815260206004820152601060248201526f24b73b30b634b2103b32b934b334b2b960811b6044820152606490fd5b9392919092611233611884565b61123b611884565b6112443361166f565b61124c611884565b611254611884565b6001600080516020611a46833981519152556001600160a01b0385169384156113ac577fa82815e798ee4657af325919386442466bcdafec930b2cad8a0a32414c6410f7946113387f9d2a5010795914ccbdd5a4cdee6a9aa2addac5e44443b519897523b67ddfe9fc93611316611382976112ff60018060a01b0384169b6112dd8d15156111e7565b60018060a01b03166bffffffffffffffffffffffff60a01b6000541617600055565b61130886600155565b61131188600455565b600355565b60018060a01b03166bffffffffffffffffffffffff60a01b6002541617600255565b61136f6040519283927f7dae230f18360d76a040c81f050aa14eb9d6dc7901b20fc5d855e2a20fe814d1600080a282526020820190565b0390a16040519081529081906020820190565b0390a17f3988ebfb0c33faf605fb350301ca0a21968c8582d29bcbc1fe992b21e81a8e90600080a2565b60405162461bcd60e51b815260206004820152601060248201526f496e76616c696420747265617375727960801b6044820152606490fd5b156113eb57565b60405162461bcd60e51b8152602060048201526014602482015273125b9cdd59999a58da595b9d081c185e5b595b9d60621b6044820152606490fd5b919091600083820193841291129080158216911516176104ae57565b1561144a57565b60405162461bcd60e51b815260206004820152601860248201527f46656520726174652065786365656473206d6178696d756d00000000000000006044820152606490fd5b1561149657565b60405162461bcd60e51b8152602060048201526014602482015273496e73756666696369656e742062616c616e636560601b6044820152606490fd5b156114d957565b60405162461bcd60e51b8152602060048201526016602482015275496e76616c6964207369676e6174757265206461746160501b6044820152606490fd5b8151801561166757606003611622576020820151604083015191670de0b6b3a764000082116115e5576115e06115c3610849956108c4956115be6115b66040516020810190611584816115768c8c869091604092825260208201520190565b03601f198101835282610238565b5190207f19457468657265756d205369676e6564204d6573736167653a0a333200000000600052601c52603c60002090565b8092146114d2565b61186e565b6002546001600160a01b03166001600160a01b03909116146111e7565b61108f565b60405162461bcd60e51b81526020600482015260156024820152740a4caeec2e4c840e4c2e8d2de40e8dede40d0d2ced605b1b6044820152606490fd5b60405162461bcd60e51b815260206004820152601860248201527f496e76616c6964207369676e6174757265206c656e67746800000000000000006044820152606490fd5b505050600090565b6001600160a01b031680156116cf57600080516020611a2683398151915280546001600160a01b0319811683179091556001600160a01b03167f8be0079c531659141344cd1fd0a4f28419497f9722a3daafe3b4186f6b6457e0600080a3565b631e4fbdf760e01b600052600060045260246000fd5b600080516020611a26833981519152546001600160a01b0316330361170657565b63118cdaa760e01b6000523360045260246000fd5b6002600080516020611a468339815191525414611746576002600080516020611a4683398151915255565b633ee5aeb560e01b60005260046000fd5b8147106117b8576000918291829182916001600160a01b03165af13d156117b3573d611782816107b3565b906117906040519283610238565b8152600060203d92013e5b156117a257565b63d6bda27560e01b60005260046000fd5b61179b565b504763cf47918160e01b60005260045260245260446000fd5b806000526005602052604060002060206001604051926117f084610217565b8054845201549101908152600161271061182561181a610946866000526006602052604060002090565b93845490519061108f565b049101906118348254826110ed565b91556118408133611757565b6040519081527f71ec68355aab9b5501e56fa2753193ebd27a76839c055babfcbc6f2c4b4752a660203392a3565b6108499161187b916118b2565b9092919261190e565b60ff600080516020611a668339815191525460401c16156118a157565b631afcd79f60e31b60005260046000fd5b81519190604183036118e3576118dc92506020820151906060604084015193015160001a90611990565b9192909190565b505060009160029190565b600411156118f857565b634e487b7160e01b600052602160045260246000fd5b611917816118ee565b80611920575050565b611929816118ee565b600181036119425763f645eedf60e01b60005260046000fd5b61194b816118ee565b60028103611968575063fce698f760e01b60005260045260246000fd5b806119746003926118ee565b1461197c5750565b6335e2f38360e21b60005260045260246000fd5b91907f7fffffffffffffffffffffffffffffff5d576e7357a4501ddfe92f46681b20a08411611a19579160209360809260ff60009560405194855216868401526040830152606082015282805260015afa15611a0d576000516001600160a01b03811615611a015790600090600090565b50600090600190600090565b6040513d6000823e3d90fd5b5050506000916003919056fe9016d09d72d40fdae2fd8ceac6b6234c7706214fd39c1cd1e609a0528c1993009b779b17422d0df92223018b32b4d1fa46e071723d6817e2486d003becc55f00f0c57e16840df040f15088dc2f81fe391c3923bec73e23a9662efc9c229c6a00a2646970667358221220db67b9b85af38570d2982733a4eb8e9110aec0cb5e9dca62fdf01eaf58c8c71864736f6c634300081c0033",
  "linkReferences": {},
  "deployedLinkReferences": {}
}