{
  "_format": "hh-sol-artifact-1",
  "contractName": "TopicShares",
  "sourceName": "contracts/social/TopicShares.sol",
  "abi": [
    {
      "inputs": [],
      "name": "ECDSAInvalidSignature",
      "type": "error"
    },
    {
      "inputs": [
        {
          "internalType": "uint256",
          "name": "length",
          "type": "uint256"
        }
      ],
      "name": "ECDSAInvalidSignatureLength",
      "type": "error"
    },
    {
      "inputs": [
        {
          "internalType": "bytes32",
          "name": "s",
          "type": "bytes32"
        }
      ],
      "name": "ECDSAInvalidSignatureS",
      "type": "error"
    },
    {
      "inputs": [],
      "name": "FailedCall",
      "type": "error"
    },
    {
      "inputs": [
        {
          "internalType": "uint256",
          "name": "balance",
          "type": "uint256"
        },
        {
          "internalType": "uint256",
          "name": "needed",
          "type": "uint256"
        }
      ],
      "name": "InsufficientBalance",
      "type": "error"
    },
    {
      "inputs": [],
      "name": "InvalidInitialization",
      "type": "error"
    },
    {
      "inputs": [],
      "name": "NotInitializing",
      "type": "error"
    },
    {
      "inputs": [
        {
          "internalType": "address",
          "name": "owner",
          "type": "address"
        }
      ],
      "name": "OwnableInvalidOwner",
      "type": "error"
    },
    {
      "inputs": [
        {
          "internalType": "address",
          "name": "account",
          "type": "address"
        }
      ],
      "name": "OwnableUnauthorizedAccount",
      "type": "error"
    },
    {
      "inputs": [],
      "name": "ReentrancyGuardReentrantCall",
      "type": "error"
    },
    {
      "anonymous": false,
      "inputs": [
        {
          "indexed": true,
          "internalType": "address",
          "name": "holder",
          "type": "address"
        },
        {
          "indexed": true,
          "internalType": "bytes32",
          "name": "topic",
          "type": "bytes32"
        },
        {
          "indexed": false,
          "internalType": "uint256",
          "name": "fee",
          "type": "uint256"
        }
      ],
      "name": "HolderFeeClaimed",
      "type": "event"
    },
    {
      "anonymous": false,
      "inputs": [
        {
          "indexed": false,
          "internalType": "uint256",
          "name": "rate",
          "type": "uint256"
        }
      ],
      "name": "HolderFeeRateUpdated",
      "type": "event"
    },
    {
      "anonymous": false,
      "inputs": [
        {
          "indexed": true,
          "internalType": "address",
          "name": "verifier",
          "type": "address"
        }
      ],
      "name": "HoldingVerifierUpdated",
      "type": "event"
    },
    {
      "anonymous": false,
      "inputs": [
        {
          "indexed": false,
          "internalType": "uint64",
          "name": "version",
          "type": "uint64"
        }
      ],
      "name": "Initialized",
      "type": "event"
    },
    {
      "anonymous": false,
      "inputs": [
        {
          "indexed": true,
          "internalType": "address",
          "name": "previousOwner",
          "type": "address"
        },
        {
          "indexed": true,
          "internalType": "address",
          "name": "newOwner",
          "type": "address"
        }
      ],
      "name": "OwnershipTransferred",
      "type": "event"
    },
    {
      "anonymous": false,
      "inputs": [
        {
          "indexed": false,
          "internalType": "uint256",
          "name": "rate",
          "type": "uint256"
        }
      ],
      "name": "ProtocolFeeRateUpdated",
      "type": "event"
    },
    {
      "anonymous": false,
      "inputs": [
        {
          "indexed": true,
          "internalType": "address",
          "name": "protocolFeeRecipient",
          "type": "address"
        }
      ],
      "name": "ProtocolFeeRecipientUpdated",
      "type": "event"
    },
    {
      "anonymous": false,
      "inputs": [
        {
          "indexed": true,
          "internalType": "address",
          "name": "trader",
          "type": "address"
        },
        {
          "indexed": true,
          "internalType": "bytes32",
          "name": "topic",
          "type": "bytes32"
        },
        {
          "indexed": true,
          "internalType": "bool",
          "name": "isBuy",
          "type": "bool"
        },
        {
          "indexed": false,
          "internalType": "uint256",
          "name": "amount",
          "type": "uint256"
        },
        {
          "indexed": false,
          "internalType": "uint256",
          "name": "price",
          "type": "uint256"
        },
        {
          "indexed": false,
          "internalType": "uint256",
          "name": "protocolFee",
          "type": "uint256"
        },
        {
          "indexed": false,
          "internalType": "uint256",
          "name": "holderFee",
          "type": "uint256"
        },
        {
          "indexed": false,
          "internalType": "uint256",
          "name": "holdingReward",
          "type": "uint256"
        },
        {
          "indexed": false,
          "internalType": "uint256",
          "name": "supply",
          "type": "uint256"
        }
      ],
      "name": "TradeExecuted",
      "type": "event"
    },
    {
      "inputs": [
        {
          "internalType": "bytes32[]",
          "name": "_topics",
          "type": "bytes32[]"
        }
      ],
      "name": "batchClaimHolderFees",
      "outputs": [],
      "stateMutability": "nonpayable",
      "type": "function"
    },
    {
      "inputs": [
        {
          "internalType": "bytes32[]",
          "name": "_topics",
          "type": "bytes32[]"
        },
        {
          "internalType": "address",
          "name": "holder",
          "type": "address"
        }
      ],
      "name": "batchClaimableHolderFees",
      "outputs": [
        {
          "internalType": "uint256[]",
          "name": "claimableFees",
          "type": "uint256[]"
        }
      ],
      "stateMutability": "view",
      "type": "function"
    },
    {
      "inputs": [
        {
          "internalType": "bytes32",
          "name": "topic",
          "type": "bytes32"
        },
        {
          "internalType": "uint256",
          "name": "amount",
          "type": "uint256"
        },
        {
          "internalType": "uint256",
          "name": "rewardRatio",
          "type": "uint256"
        },
        {
          "internalType": "bytes",
          "name": "holdingRewardSignature",
          "type": "bytes"
        }
      ],
      "name": "buy",
      "outputs": [],
      "stateMutability": "payable",
      "type": "function"
    },
    {
      "inputs": [
        {
          "internalType": "uint256",
          "name": "baseAmount",
          "type": "uint256"
        },
        {
          "internalType": "uint256",
          "name": "rewardRatio",
          "type": "uint256"
        },
        {
          "internalType": "bytes",
          "name": "signature",
          "type": "bytes"
        }
      ],
      "name": "calculateHoldingReward",
      "outputs": [
        {
          "internalType": "uint256",
          "name": "",
          "type": "uint256"
        }
      ],
      "stateMutability": "view",
      "type": "function"
    },
    {
      "inputs": [
        {
          "internalType": "bytes32",
          "name": "topic",
          "type": "bytes32"
        }
      ],
      "name": "claimHolderFee",
      "outputs": [],
      "stateMutability": "nonpayable",
      "type": "function"
    },
    {
      "inputs": [
        {
          "internalType": "bytes32",
          "name": "topic",
          "type": "bytes32"
        },
        {
          "internalType": "address",
          "name": "holder",
          "type": "address"
        }
      ],
      "name": "claimableHolderFee",
      "outputs": [
        {
          "internalType": "uint256",
          "name": "claimableFee",
          "type": "uint256"
        }
      ],
      "stateMutability": "view",
      "type": "function"
    },
    {
      "inputs": [
        {
          "internalType": "bytes32",
          "name": "topic",
          "type": "bytes32"
        },
        {
          "internalType": "uint256",
          "name": "amount",
          "type": "uint256"
        }
      ],
      "name": "getBuyPrice",
      "outputs": [
        {
          "internalType": "uint256",
          "name": "",
          "type": "uint256"
        }
      ],
      "stateMutability": "view",
      "type": "function"
    },
    {
      "inputs": [
        {
          "internalType": "bytes32",
          "name": "topic",
          "type": "bytes32"
        },
        {
          "internalType": "uint256",
          "name": "amount",
          "type": "uint256"
        }
      ],
      "name": "getBuyPriceAfterFee",
      "outputs": [
        {
          "internalType": "uint256",
          "name": "",
          "type": "uint256"
        }
      ],
      "stateMutability": "view",
      "type": "function"
    },
    {
      "inputs": [
        {
          "internalType": "uint256",
          "name": "_supply",
          "type": "uint256"
        },
        {
          "internalType": "uint256",
          "name": "amount",
          "type": "uint256"
        }
      ],
      "name": "getPrice",
      "outputs": [
        {
          "internalType": "uint256",
          "name": "",
          "type": "uint256"
        }
      ],
      "stateMutability": "view",
      "type": "function"
    },
    {
      "inputs": [
        {
          "internalType": "bytes32",
          "name": "topic",
          "type": "bytes32"
        },
        {
          "internalType": "uint256",
          "name": "amount",
          "type": "uint256"
        }
      ],
      "name": "getSellPrice",
      "outputs": [
        {
          "internalType": "uint256",
          "name": "",
          "type": "uint256"
        }
      ],
      "stateMutability": "view",
      "type": "function"
    },
    {
      "inputs": [
        {
          "internalType": "bytes32",
          "name": "topic",
          "type": "bytes32"
        },
        {
          "internalType": "uint256",
          "name": "amount",
          "type": "uint256"
        }
      ],
      "name": "getSellPriceAfterFee",
      "outputs": [
        {
          "internalType": "uint256",
          "name": "",
          "type": "uint256"
        }
      ],
      "stateMutability": "view",
      "type": "function"
    },
    {
      "inputs": [],
      "name": "holderFeeRate",
      "outputs": [
        {
          "internalType": "uint256",
          "name": "",
          "type": "uint256"
        }
      ],
      "stateMutability": "view",
      "type": "function"
    },
    {
      "inputs": [
        {
          "internalType": "bytes32",
          "name": "",
          "type": "bytes32"
        },
        {
          "internalType": "address",
          "name": "",
          "type": "address"
        }
      ],
      "name": "holders",
      "outputs": [
        {
          "internalType": "uint256",
          "name": "balance",
          "type": "uint256"
        },
        {
          "internalType": "int256",
          "name": "feeDebt",
          "type": "int256"
        }
      ],
      "stateMutability": "view",
      "type": "function"
    },
    {
      "inputs": [],
      "name": "holdingVerifier",
      "outputs": [
        {
          "internalType": "address",
          "name": "",
          "type": "address"
        }
      ],
      "stateMutability": "view",
      "type": "function"
    },
    {
      "inputs": [
        {
          "internalType": "address payable",
          "name": "_protocolFeeRecipient",
          "type": "address"
        },
        {
          "internalType": "uint256",
          "name": "_protocolFeeRate",
          "type": "uint256"
        },
        {
          "internalType": "uint256",
          "name": "_holderFeeRate",
          "type": "uint256"
        },
        {
          "internalType": "uint256",
          "name": "_priceIncrementPerShare",
          "type": "uint256"
        },
        {
          "internalType": "address",
          "name": "_holdingVerifier",
          "type": "address"
        }
      ],
      "name": "initialize",
      "outputs": [],
      "stateMutability": "nonpayable",
      "type": "function"
    },
    {
      "inputs": [],
      "name": "owner",
      "outputs": [
        {
          "internalType": "address",
          "name": "",
          "type": "address"
        }
      ],
      "stateMutability": "view",
      "type": "function"
    },
    {
      "inputs": [],
      "name": "priceIncrementPerShare",
      "outputs": [
        {
          "internalType": "uint256",
          "name": "",
          "type": "uint256"
        }
      ],
      "stateMutability": "view",
      "type": "function"
    },
    {
      "inputs": [],
      "name": "protocolFeeRate",
      "outputs": [
        {
          "internalType": "uint256",
          "name": "",
          "type": "uint256"
        }
      ],
      "stateMutability": "view",
      "type": "function"
    },
    {
      "inputs": [],
      "name": "protocolFeeRecipient",
      "outputs": [
        {
          "internalType": "address payable",
          "name": "",
          "type": "address"
        }
      ],
      "stateMutability": "view",
      "type": "function"
    },
    {
      "inputs": [],
      "name": "renounceOwnership",
      "outputs": [],
      "stateMutability": "nonpayable",
      "type": "function"
    },
    {
      "inputs": [
        {
          "internalType": "bytes32",
          "name": "topic",
          "type": "bytes32"
        },
        {
          "internalType": "uint256",
          "name": "amount",
          "type": "uint256"
        },
        {
          "internalType": "uint256",
          "name": "rewardRatio",
          "type": "uint256"
        },
        {
          "internalType": "bytes",
          "name": "holdingRewardSignature",
          "type": "bytes"
        }
      ],
      "name": "sell",
      "outputs": [],
      "stateMutability": "nonpayable",
      "type": "function"
    },
    {
      "inputs": [
        {
          "internalType": "uint256",
          "name": "_rate",
          "type": "uint256"
        }
      ],
      "name": "setHolderFeeRate",
      "outputs": [],
      "stateMutability": "nonpayable",
      "type": "function"
    },
    {
      "inputs": [
        {
          "internalType": "bytes32",
          "name": "",
          "type": "bytes32"
        }
      ],
      "name": "topics",
      "outputs": [
        {
          "internalType": "uint256",
          "name": "supply",
          "type": "uint256"
        },
        {
          "internalType": "uint256",
          "name": "accFeePerUnit",
          "type": "uint256"
        }
      ],
      "stateMutability": "view",
      "type": "function"
    },
    {
      "inputs": [
        {
          "internalType": "address",
          "name": "newOwner",
          "type": "address"
        }
      ],
      "name": "transferOwnership",
      "outputs": [],
      "stateMutability": "nonpayable",
      "type": "function"
    },
    {
      "inputs": [
        {
          "internalType": "address",
          "name": "_verifier",
          "type": "address"
        }
      ],
      "name": "updateHoldingVerifier",
      "outputs": [],
      "stateMutability": "nonpayable",
      "type": "function"
    },
    {
      "inputs": [
        {
          "internalType": "uint256",
          "name": "_rate",
          "type": "uint256"
        }
      ],
      "name": "updateProtocolFeeRate",
      "outputs": [],
      "stateMutability": "nonpayable",
      "type": "function"
    },
    {
      "inputs": [
        {
          "internalType": "address payable",
          "name": "_protocolFeeRecipient",
          "type": "address"
        }
      ],
      "name": "updateProtocolFeeRecipient",
      "outputs": [],
      "stateMutability": "nonpayable",
      "type": "function"
    }
  ],
  "bytecode": "0x60808060405234601557611881908161001b8239f35b600080fdfe608080604052600436101561001357600080fd5b60003560e01c9081630f2fbeec14610ede575080631df47f8014610e715780631f0dbf4114610c4f57806320ebaa6e14610b685780632e50b91414610b55578063408412d414610b375780634236e87614610aec57806346fe4eef14610ac657806349b5adfa1461083157806358f85880146108135780635cf4ee91146107ef5780636340d55c1461078f57806364df049e146107665780636c28e349146104cf5780636c9a3dad14610479578063715018a61461040f5780638501da5b146103af5780638da5cb5b1461037957806399bb0e011461035b5780639dc446d114610332578063bababbb8146102f1578063c093e81d14610290578063c8d777581461023f578063cacd555314610207578063cad244cd146101e6578063d0796bc1146101785763f2fde38b1461014857600080fd5b3461017357602036600319011261017357610171610164610f12565b61016c611491565b61141b565b005b600080fd5b3461017357602036600319011261017357610191610f12565b610199611491565b6001600160a01b03166101ad811515611284565b600280546001600160a01b031916821790557f3988ebfb0c33faf605fb350301ca0a21968c8582d29bcbc1fe992b21e81a8e90600080a2005b346101735760206101ff6101f9366110a5565b906113f5565b604051908152f35b34610173576020366003190112610173576102206114c7565b61022b6004356115bc565b600160008051602061180c83398151915255005b346101735760403660031901126101735761025861108f565b600435600052600660205260406000209060018060a01b03166000526020526040806000206001815491015482519182526020820152f35b346101735760203660031901126101735760043567ffffffffffffffff8111610173576102c1903690600401611032565b6102c96114c7565b60005b815181101561022b57806102eb6102e560019385611154565b516115bc565b016102cc565b346101735760603660031901126101735760443567ffffffffffffffff8111610173576101ff6103276020923690600401610f98565b6024356004356112d0565b34610173576000366003190112610173576002546040516001600160a01b039091168152602090f35b34610173576000366003190112610173576020600454604051908152f35b34610173576000366003190112610173576000805160206117ec833981519152546040516001600160a01b039091168152602090f35b34610173576020366003190112610173577fa82815e798ee4657af325919386442466bcdafec930b2cad8a0a32414c6410f760206004356103ee611491565b610402670de0b6b3a7640000821115611238565b80600455604051908152a1005b3461017357600036600319011261017357610428611491565b6000805160206117ec83398151915280546001600160a01b031981169091556000906001600160a01b03167f8be0079c531659141344cd1fd0a4f28419497f9722a3daafe3b4186f6b6457e08280a3005b346101735760206101ff61049561048f366110a5565b9061117e565b6104ca670de0b6b3a76400006104ad60015484611107565b04670de0b6b3a76400006104c360045485611107565b0492611147565b611147565b346101735760a0366003190112610173576104e8610f12565b6084356001600160a01b038116919060443590602435908490036101735760008051602061182c833981519152549160ff8360401c16159367ffffffffffffffff84168015908161075e575b6001149081610754575b15908161074b575b5061073a57602080937f9d2a5010795914ccbdd5a4cdee6a9aa2addac5e44443b519897523b67ddfe9fc927fa82815e798ee4657af325919386442466bcdafec930b2cad8a0a32414c6410f79688600167ffffffffffffffff1983161760008051602061182c8339815191525561070d575b506105c1611664565b6105c9611664565b6105d23361141b565b6105da611664565b6105e2611664565b600160008051602061180c833981519152556001600160a01b0316906106098215156110bb565b610614891515611284565b816bffffffffffffffffffffffff60a01b60005416176000558060015584600455606435600355886bffffffffffffffffffffffff60a01b6002541617600255604051917fc1b5345cce283376356748dc57f2dfa7120431d016fc7ca9ba641bc65f91411d600080a28152a1604051908152a1604051917f3988ebfb0c33faf605fb350301ca0a21968c8582d29bcbc1fe992b21e81a8e90600080a26106b657005b60207fc7f505b2f371ae2175ee4913f4499e1f2633a7b5936321eed1cdaeb6115181d29168ff00000000000000001960008051602061182c833981519152541660008051602061182c8339815191525560018152a1005b68ffffffffffffffffff1916680100000000000000011760008051602061182c83398151915255896105b8565b63f92ee8a960e01b60005260046000fd5b90501587610546565b303b15915061053e565b869150610534565b34610173576000366003190112610173576000546040516001600160a01b039091168152602090f35b34610173576020366003190112610173577f9d2a5010795914ccbdd5a4cdee6a9aa2addac5e44443b519897523b67ddfe9fc60206004356107ce611491565b6107e2670de0b6b3a7640000821115611238565b80600155604051908152a1005b346101735760403660031901126101735760206101ff60035460243560043561157d565b34610173576000366003190112610173576020600154604051908152f35b346101735761083f36610fdf565b61084b939291936114c7565b82600052600560205260406000209360016040519561086987610f28565b8054875201549160208601928352846000526006602052604060002060018060a01b0333166000526020526040600020918254858110610a8a576108d86108d16108b3888a6113f5565b94670de0b6b3a76400006108c960015488611107565b0494856112d0565b809361113a565b93610902876108fc85670de0b6b3a76400006108f66004548a611107565b04611147565b9361113a565b905561090f86895161113a565b80895215610a155761271081029181830461271014821517156109ff57887f72a167317188c79d935d3bc60f32e97ac4acd6823204f17abad01999b191e6c69661096a6109636109e89660009d519061111a565b8251611147565b8152898b526005602052600160408c2091835183555191015561099f61099984610994898961113a565b61113a565b33611503565b89546109b59087906001600160a01b0316611503565b51916040519586953399879260a094919796959260c0850198855260208501526040840152606083015260808201520152565b0390a4600160008051602061180c83398151915255005b634e487b7160e01b600052601160045260246000fd5b6109e8916000987f72a167317188c79d935d3bc60f32e97ac4acd6823204f17abad01999b191e6c696898b526005602052600160408c20918351835551910155610a6661099984610994898961113a565b8954610a85906001600160a01b0316610a7f8589611147565b90611503565b6109b5565b60405162461bcd60e51b8152602060048201526014602482015273496e73756666696369656e742062616c616e636560601b6044820152606490fd5b346101735760403660031901126101735760206101ff610ae461108f565b6004356111b4565b346101735760206101ff610b026101f9366110a5565b610994670de0b6b3a7640000610b1a60015484611107565b04670de0b6b3a7640000610b3060045485611107565b049261113a565b34610173576000366003190112610173576020600354604051908152f35b346101735760206101ff61048f366110a5565b346101735760403660031901126101735760043567ffffffffffffffff811161017357610b99903690600401611032565b610ba161108f565b90805191610bc7610bb18461101a565b93610bbf6040519586610f5a565b80855261101a565b602084019290601f190136843760005b8151811015610c085780610bf784610bf160019486611154565b516111b4565b610c018288611154565b5201610bd7565b505050906040519182916020830190602084525180915260408301919060005b818110610c36575050500390f35b8251845285945060209384019390920191600101610c28565b610c5836610fdf565b610c64939291936114c7565b826000526005602052604060002093600160405195610c8287610f28565b8054875201549160208601928352610cb66108d1610ca0868861117e565b92670de0b6b3a76400006108c960015486611107565b91610cd081670de0b6b3a76400006108f660045486611107565b610cde816104ca8686611147565b3410610e35578751610e04575b610cf6868951611147565b8852866000526005602052604060002088518155600186519101558660005260066020526001612710610d4e604080600020600090858060a01b03331682526020522097610d458a8a54611147565b89555189611107565b049501918254600087820197881291129080158216911516176109ff576001987f72a167317188c79d935d3bc60f32e97ac4acd6823204f17abad01999b191e6c6966109e89455610da8868b8060a01b0360005416611503565b610db6836104ca8888611147565b3411610def5751916040519586953399879260a094919796959260c0850198855260208501526040840152606083015260808201520152565b610a8561099984610994896109948a3461113a565b612710810281810461271014821517156109ff57610e27610e2e918a519061111a565b8651611147565b8552610ceb565b60405162461bcd60e51b8152602060048201526014602482015273125b9cdd59999a58da595b9d081c185e5b595b9d60621b6044820152606490fd5b3461017357602036600319011261017357610e8a610f12565b610e92611491565b6001600160a01b0316610ea68115156110bb565b600080546001600160a01b031916821781557fc1b5345cce283376356748dc57f2dfa7120431d016fc7ca9ba641bc65f91411d9080a2005b3461017357602036600319011261017357604090600435600052600560205281600020600181549101549082526020820152f35b600435906001600160a01b038216820361017357565b6040810190811067ffffffffffffffff821117610f4457604052565b634e487b7160e01b600052604160045260246000fd5b90601f8019910116810190811067ffffffffffffffff821117610f4457604052565b67ffffffffffffffff8111610f4457601f01601f191660200190565b81601f8201121561017357803590610faf82610f7c565b92610fbd6040519485610f5a565b8284526020838301011161017357816000926020809301838601378301015290565b906080600319830112610173576004359160243591604435916064359067ffffffffffffffff82116101735761101791600401610f98565b90565b67ffffffffffffffff8111610f445760051b60200190565b9080601f830112156101735781356110498161101a565b926110576040519485610f5a565b81845260208085019260051b82010192831161017357602001905b82821061107f5750505090565b8135815260209182019101611072565b602435906001600160a01b038216820361017357565b6040906003190112610173576004359060243590565b156110c257565b60405162461bcd60e51b815260206004820152601e60248201527f496e76616c69642070726f746f636f6c2066656520726563697069656e7400006044820152606490fd5b818102929181159184041417156109ff57565b8115611124570490565b634e487b7160e01b600052601260045260246000fd5b919082039182116109ff57565b919082018092116109ff57565b80518210156111685760209160051b010190565b634e487b7160e01b600052603260045260246000fd5b90611017916000526005602052604060002054906003549161157d565b818103929160001380158285131691841216176109ff57565b6110179181600052600560205260406000209160206001604051946111d886610f28565b8054865201549301928352600052600660205260406000209060018060a01b031660005260205261271061122f60406000206040519361121785610f28565b60206001835493848852015495019485525190611107565b0490519061119b565b1561123f57565b60405162461bcd60e51b815260206004820152601860248201527f46656520726174652065786365656473206d6178696d756d00000000000000006044820152606490fd5b1561128b57565b60405162461bcd60e51b815260206004820152601860248201527f496e76616c6964207665726966696572206164647265737300000000000000006044820152606490fd5b90918051156113ed57670de0b6b3a764000083116113b05761134361134c9160405160208101908582528660408201526040815261130f606082610f5a565b5190207f19457468657265756d205369676e6564204d6573736167653a0a333200000000600052601c52603c600020611692565b909291926116ce565b6002546001600160a01b0390811691160361137857670de0b6b3a76400009161137491611107565b0490565b60405162461bcd60e51b815260206004820152601060248201526f24b73b30b634b2103b32b934b334b2b960811b6044820152606490fd5b60405162461bcd60e51b81526020600482015260156024820152740a4caeec2e4c840e4c2e8d2de40e8dede40d0d2ced605b1b6044820152606490fd5b505050600090565b9061101791600052600560205260406000205490611416816003549361113a565b61157d565b6001600160a01b0316801561147b576000805160206117ec83398151915280546001600160a01b0319811683179091556001600160a01b03167f8be0079c531659141344cd1fd0a4f28419497f9722a3daafe3b4186f6b6457e0600080a3565b631e4fbdf760e01b600052600060045260246000fd5b6000805160206117ec833981519152546001600160a01b031633036114b257565b63118cdaa760e01b6000523360045260246000fd5b600260008051602061180c83398151915254146114f257600260008051602061180c83398151915255565b633ee5aeb560e01b60005260046000fd5b814710611564576000918291829182916001600160a01b03165af13d1561155f573d61152e81610f7c565b9061153c6040519283610f5a565b8152600060203d92013e5b1561154e57565b63d6bda27560e01b60005260046000fd5b611547565b504763cf47918160e01b60005260045260245260446000fd5b6115b4906115ae611017946115ae816115a9876115a361159d8489611107565b84611147565b96611147565b611107565b90611147565b60011c611107565b806000526005602052604060002060206001604051926115db84610f28565b8054845201549101908152816000526006602052604060002060018060a01b033316600052602052600161271061161b6040600020938454905190611107565b0491019061162a82548261119b565b91556116368133611503565b6040519081527f71ec68355aab9b5501e56fa2753193ebd27a76839c055babfcbc6f2c4b4752a660203392a3565b60ff60008051602061182c8339815191525460401c161561168157565b631afcd79f60e31b60005260046000fd5b81519190604183036116c3576116bc92506020820151906060604084015193015160001a90611756565b9192909190565b505060009160029190565b919091600481101561174057806116e457509050565b6000600182036116ff5763f645eedf60e01b60005260046000fd5b506002810361171d578263fce698f760e01b60005260045260246000fd5b909160036000921461172d575050565b6335e2f38360e21b825260045260249150fd5b634e487b7160e01b600052602160045260246000fd5b91907f7fffffffffffffffffffffffffffffff5d576e7357a4501ddfe92f46681b20a084116117df579160209360809260ff60009560405194855216868401526040830152606082015282805260015afa156117d3576000516001600160a01b038116156117c75790600090600090565b50600090600190600090565b6040513d6000823e3d90fd5b5050506000916003919056fe9016d09d72d40fdae2fd8ceac6b6234c7706214fd39c1cd1e609a0528c1993009b779b17422d0df92223018b32b4d1fa46e071723d6817e2486d003becc55f00f0c57e16840df040f15088dc2f81fe391c3923bec73e23a9662efc9c229c6a00a264697066735822122062cbe5a73957472d659828aee77cceaa9f933a6369a9064f2d47e8d12920c17b64736f6c634300081c0033",
  "linkReferences": {},
  "deployedLinkReferences": {}
}