{
  "_format": "hh-sol-artifact-1",
  "contractName": "ClanEmblems",
  "sourceName": "contracts/social/ClanEmblems.sol",
  "abi": [
    {
      "inputs": [],
      "name": "ECDSAInvalidSignature",
      "type": "error"
    },
    {
      "inputs": [
        {
          "internalType": "uint256",
          "name": "length",
          "type": "uint256"
        }
      ],
      "name": "ECDSAInvalidSignatureLength",
      "type": "error"
    },
    {
      "inputs": [
        {
          "internalType": "bytes32",
          "name": "s",
          "type": "bytes32"
        }
      ],
      "name": "ECDSAInvalidSignatureS",
      "type": "error"
    },
    {
      "inputs": [],
      "name": "FailedCall",
      "type": "error"
    },
    {
      "inputs": [
        {
          "internalType": "uint256",
          "name": "balance",
          "type": "uint256"
        },
        {
          "internalType": "uint256",
          "name": "needed",
          "type": "uint256"
        }
      ],
      "name": "InsufficientBalance",
      "type": "error"
    },
    {
      "inputs": [],
      "name": "InvalidInitialization",
      "type": "error"
    },
    {
      "inputs": [],
      "name": "NotInitializing",
      "type": "error"
    },
    {
      "inputs": [
        {
          "internalType": "address",
          "name": "owner",
          "type": "address"
        }
      ],
      "name": "OwnableInvalidOwner",
      "type": "error"
    },
    {
      "inputs": [
        {
          "internalType": "address",
          "name": "account",
          "type": "address"
        }
      ],
      "name": "OwnableUnauthorizedAccount",
      "type": "error"
    },
    {
      "inputs": [],
      "name": "ReentrancyGuardReentrantCall",
      "type": "error"
    },
    {
      "anonymous": false,
      "inputs": [
        {
          "indexed": true,
          "internalType": "address",
          "name": "clanOwner",
          "type": "address"
        },
        {
          "indexed": true,
          "internalType": "uint256",
          "name": "clanId",
          "type": "uint256"
        },
        {
          "indexed": false,
          "internalType": "bytes32",
          "name": "metadataHash",
          "type": "bytes32"
        }
      ],
      "name": "ClanCreated",
      "type": "event"
    },
    {
      "anonymous": false,
      "inputs": [
        {
          "indexed": true,
          "internalType": "uint256",
          "name": "clanId",
          "type": "uint256"
        }
      ],
      "name": "ClanDeleted",
      "type": "event"
    },
    {
      "anonymous": false,
      "inputs": [
        {
          "indexed": false,
          "internalType": "uint256",
          "name": "rate",
          "type": "uint256"
        }
      ],
      "name": "ClanFeeRateUpdated",
      "type": "event"
    },
    {
      "anonymous": false,
      "inputs": [
        {
          "indexed": true,
          "internalType": "uint256",
          "name": "clanId",
          "type": "uint256"
        },
        {
          "indexed": true,
          "internalType": "address",
          "name": "previousOwner",
          "type": "address"
        },
        {
          "indexed": true,
          "internalType": "address",
          "name": "newOwner",
          "type": "address"
        }
      ],
      "name": "ClanOwnershipTransferred",
      "type": "event"
    },
    {
      "anonymous": false,
      "inputs": [
        {
          "indexed": true,
          "internalType": "uint256",
          "name": "clanId",
          "type": "uint256"
        },
        {
          "indexed": false,
          "internalType": "uint256",
          "name": "amount",
          "type": "uint256"
        }
      ],
      "name": "FeesWithdrawn",
      "type": "event"
    },
    {
      "anonymous": false,
      "inputs": [
        {
          "indexed": true,
          "internalType": "address",
          "name": "verifier",
          "type": "address"
        }
      ],
      "name": "HoldingVerifierUpdated",
      "type": "event"
    },
    {
      "anonymous": false,
      "inputs": [
        {
          "indexed": false,
          "internalType": "uint64",
          "name": "version",
          "type": "uint64"
        }
      ],
      "name": "Initialized",
      "type": "event"
    },
    {
      "anonymous": false,
      "inputs": [
        {
          "indexed": true,
          "internalType": "address",
          "name": "previousOwner",
          "type": "address"
        },
        {
          "indexed": true,
          "internalType": "address",
          "name": "newOwner",
          "type": "address"
        }
      ],
      "name": "OwnershipTransferred",
      "type": "event"
    },
    {
      "anonymous": false,
      "inputs": [
        {
          "indexed": false,
          "internalType": "uint256",
          "name": "rate",
          "type": "uint256"
        }
      ],
      "name": "ProtocolFeeRateUpdated",
      "type": "event"
    },
    {
      "anonymous": false,
      "inputs": [
        {
          "indexed": true,
          "internalType": "address",
          "name": "trader",
          "type": "address"
        },
        {
          "indexed": true,
          "internalType": "uint256",
          "name": "clanId",
          "type": "uint256"
        },
        {
          "indexed": true,
          "internalType": "bool",
          "name": "isBuy",
          "type": "bool"
        },
        {
          "indexed": false,
          "internalType": "uint256",
          "name": "amount",
          "type": "uint256"
        },
        {
          "indexed": false,
          "internalType": "uint256",
          "name": "price",
          "type": "uint256"
        },
        {
          "indexed": false,
          "internalType": "uint256",
          "name": "protocolFee",
          "type": "uint256"
        },
        {
          "indexed": false,
          "internalType": "uint256",
          "name": "clanFee",
          "type": "uint256"
        },
        {
          "indexed": false,
          "internalType": "uint256",
          "name": "holdingReward",
          "type": "uint256"
        },
        {
          "indexed": false,
          "internalType": "uint256",
          "name": "supply",
          "type": "uint256"
        }
      ],
      "name": "TradeExecuted",
      "type": "event"
    },
    {
      "anonymous": false,
      "inputs": [
        {
          "indexed": true,
          "internalType": "address",
          "name": "treasury",
          "type": "address"
        }
      ],
      "name": "TreasuryUpdated",
      "type": "event"
    },
    {
      "inputs": [
        {
          "internalType": "uint256",
          "name": "",
          "type": "uint256"
        },
        {
          "internalType": "address",
          "name": "",
          "type": "address"
        }
      ],
      "name": "balance",
      "outputs": [
        {
          "internalType": "uint256",
          "name": "",
          "type": "uint256"
        }
      ],
      "stateMutability": "view",
      "type": "function"
    },
    {
      "inputs": [
        {
          "internalType": "uint256",
          "name": "clanId",
          "type": "uint256"
        },
        {
          "internalType": "uint256",
          "name": "amount",
          "type": "uint256"
        },
        {
          "internalType": "bytes",
          "name": "holdingRewardSignature",
          "type": "bytes"
        }
      ],
      "name": "buy",
      "outputs": [],
      "stateMutability": "payable",
      "type": "function"
    },
    {
      "inputs": [
        {
          "internalType": "uint256",
          "name": "baseAmount",
          "type": "uint256"
        },
        {
          "internalType": "bytes",
          "name": "signature",
          "type": "bytes"
        }
      ],
      "name": "calculateHoldingReward",
      "outputs": [
        {
          "internalType": "uint256",
          "name": "",
          "type": "uint256"
        }
      ],
      "stateMutability": "view",
      "type": "function"
    },
    {
      "inputs": [],
      "name": "clanFeeRate",
      "outputs": [
        {
          "internalType": "uint256",
          "name": "",
          "type": "uint256"
        }
      ],
      "stateMutability": "view",
      "type": "function"
    },
    {
      "inputs": [
        {
          "internalType": "uint256",
          "name": "",
          "type": "uint256"
        }
      ],
      "name": "clans",
      "outputs": [
        {
          "internalType": "address",
          "name": "owner",
          "type": "address"
        },
        {
          "internalType": "uint256",
          "name": "accumulatedFees",
          "type": "uint256"
        }
      ],
      "stateMutability": "view",
      "type": "function"
    },
    {
      "inputs": [
        {
          "internalType": "bytes32",
          "name": "metadataHash",
          "type": "bytes32"
        }
      ],
      "name": "createClan",
      "outputs": [
        {
          "internalType": "uint256",
          "name": "clanId",
          "type": "uint256"
        }
      ],
      "stateMutability": "nonpayable",
      "type": "function"
    },
    {
      "inputs": [
        {
          "internalType": "uint256",
          "name": "clanId",
          "type": "uint256"
        }
      ],
      "name": "deleteClan",
      "outputs": [],
      "stateMutability": "nonpayable",
      "type": "function"
    },
    {
      "inputs": [
        {
          "internalType": "uint256",
          "name": "clanId",
          "type": "uint256"
        },
        {
          "internalType": "uint256",
          "name": "amount",
          "type": "uint256"
        }
      ],
      "name": "getBuyPrice",
      "outputs": [
        {
          "internalType": "uint256",
          "name": "",
          "type": "uint256"
        }
      ],
      "stateMutability": "view",
      "type": "function"
    },
    {
      "inputs": [
        {
          "internalType": "uint256",
          "name": "clanId",
          "type": "uint256"
        },
        {
          "internalType": "uint256",
          "name": "amount",
          "type": "uint256"
        }
      ],
      "name": "getBuyPriceAfterFee",
      "outputs": [
        {
          "internalType": "uint256",
          "name": "",
          "type": "uint256"
        }
      ],
      "stateMutability": "view",
      "type": "function"
    },
    {
      "inputs": [
        {
          "internalType": "uint256",
          "name": "_supply",
          "type": "uint256"
        },
        {
          "internalType": "uint256",
          "name": "amount",
          "type": "uint256"
        }
      ],
      "name": "getPrice",
      "outputs": [
        {
          "internalType": "uint256",
          "name": "",
          "type": "uint256"
        }
      ],
      "stateMutability": "view",
      "type": "function"
    },
    {
      "inputs": [
        {
          "internalType": "uint256",
          "name": "clanId",
          "type": "uint256"
        },
        {
          "internalType": "uint256",
          "name": "amount",
          "type": "uint256"
        }
      ],
      "name": "getSellPrice",
      "outputs": [
        {
          "internalType": "uint256",
          "name": "",
          "type": "uint256"
        }
      ],
      "stateMutability": "view",
      "type": "function"
    },
    {
      "inputs": [
        {
          "internalType": "uint256",
          "name": "clanId",
          "type": "uint256"
        },
        {
          "internalType": "uint256",
          "name": "amount",
          "type": "uint256"
        }
      ],
      "name": "getSellPriceAfterFee",
      "outputs": [
        {
          "internalType": "uint256",
          "name": "",
          "type": "uint256"
        }
      ],
      "stateMutability": "view",
      "type": "function"
    },
    {
      "inputs": [],
      "name": "holdingVerifier",
      "outputs": [
        {
          "internalType": "address",
          "name": "",
          "type": "address"
        }
      ],
      "stateMutability": "view",
      "type": "function"
    },
    {
      "inputs": [
        {
          "internalType": "address payable",
          "name": "_treasury",
          "type": "address"
        },
        {
          "internalType": "uint256",
          "name": "_protocolFeeRate",
          "type": "uint256"
        },
        {
          "internalType": "uint256",
          "name": "_clanFeeRate",
          "type": "uint256"
        },
        {
          "internalType": "uint256",
          "name": "_priceIncrementPerEmblem",
          "type": "uint256"
        },
        {
          "internalType": "address",
          "name": "_holdingVerifier",
          "type": "address"
        }
      ],
      "name": "initialize",
      "outputs": [],
      "stateMutability": "nonpayable",
      "type": "function"
    },
    {
      "inputs": [],
      "name": "nextClanId",
      "outputs": [
        {
          "internalType": "uint256",
          "name": "",
          "type": "uint256"
        }
      ],
      "stateMutability": "view",
      "type": "function"
    },
    {
      "inputs": [],
      "name": "owner",
      "outputs": [
        {
          "internalType": "address",
          "name": "",
          "type": "address"
        }
      ],
      "stateMutability": "view",
      "type": "function"
    },
    {
      "inputs": [],
      "name": "priceIncrementPerEmblem",
      "outputs": [
        {
          "internalType": "uint256",
          "name": "",
          "type": "uint256"
        }
      ],
      "stateMutability": "view",
      "type": "function"
    },
    {
      "inputs": [],
      "name": "protocolFeeRate",
      "outputs": [
        {
          "internalType": "uint256",
          "name": "",
          "type": "uint256"
        }
      ],
      "stateMutability": "view",
      "type": "function"
    },
    {
      "inputs": [],
      "name": "renounceOwnership",
      "outputs": [],
      "stateMutability": "nonpayable",
      "type": "function"
    },
    {
      "inputs": [
        {
          "internalType": "uint256",
          "name": "clanId",
          "type": "uint256"
        },
        {
          "internalType": "uint256",
          "name": "amount",
          "type": "uint256"
        },
        {
          "internalType": "bytes",
          "name": "holdingRewardSignature",
          "type": "bytes"
        }
      ],
      "name": "sell",
      "outputs": [],
      "stateMutability": "nonpayable",
      "type": "function"
    },
    {
      "inputs": [
        {
          "internalType": "uint256",
          "name": "_rate",
          "type": "uint256"
        }
      ],
      "name": "setClanFeeRate",
      "outputs": [],
      "stateMutability": "nonpayable",
      "type": "function"
    },
    {
      "inputs": [
        {
          "internalType": "address",
          "name": "_verifier",
          "type": "address"
        }
      ],
      "name": "setHoldingVerifier",
      "outputs": [],
      "stateMutability": "nonpayable",
      "type": "function"
    },
    {
      "inputs": [
        {
          "internalType": "uint256",
          "name": "_rate",
          "type": "uint256"
        }
      ],
      "name": "setProtocolFeeRate",
      "outputs": [],
      "stateMutability": "nonpayable",
      "type": "function"
    },
    {
      "inputs": [
        {
          "internalType": "address payable",
          "name": "_treasury",
          "type": "address"
        }
      ],
      "name": "setTreasury",
      "outputs": [],
      "stateMutability": "nonpayable",
      "type": "function"
    },
    {
      "inputs": [
        {
          "internalType": "uint256",
          "name": "",
          "type": "uint256"
        }
      ],
      "name": "supply",
      "outputs": [
        {
          "internalType": "uint256",
          "name": "",
          "type": "uint256"
        }
      ],
      "stateMutability": "view",
      "type": "function"
    },
    {
      "inputs": [
        {
          "internalType": "uint256",
          "name": "clanId",
          "type": "uint256"
        },
        {
          "internalType": "address",
          "name": "newOwner",
          "type": "address"
        }
      ],
      "name": "transferClanOwnership",
      "outputs": [],
      "stateMutability": "nonpayable",
      "type": "function"
    },
    {
      "inputs": [
        {
          "internalType": "address",
          "name": "newOwner",
          "type": "address"
        }
      ],
      "name": "transferOwnership",
      "outputs": [],
      "stateMutability": "nonpayable",
      "type": "function"
    },
    {
      "inputs": [],
      "name": "treasury",
      "outputs": [
        {
          "internalType": "address payable",
          "name": "",
          "type": "address"
        }
      ],
      "stateMutability": "view",
      "type": "function"
    },
    {
      "inputs": [
        {
          "internalType": "uint256",
          "name": "clanId",
          "type": "uint256"
        }
      ],
      "name": "withdrawFees",
      "outputs": [],
      "stateMutability": "nonpayable",
      "type": "function"
    }
  ],
  "bytecode": "0x60808060405234601557611b3d908161001b8239f35b600080fdfe6080604052600436101561001257600080fd5b60003560e01c806306139934146101e7578063063a741f146101e25780630aa96c74146101dd5780631efd73a5146101d8578063210f32ce146101d357806335403023146101ce5780633c4f8ed2146101c957806349a44aa1146101c457806358f85880146101bf5780635cf4ee91146101ba5780635e318e07146101b557806361d027b3146101b057806366469a3a146101ab5780636c28e349146101a6578063715018a6146101a1578063741e43951461019c578063757b81ef146101975780637582ae9f146101925780638da5cb5b1461018d5780639477d85d146101885780639dc446d114610183578063b13aa2d61461017e578063bf31b5e514610179578063c157253d14610174578063cd9c71211461016f578063df1be9201461016a578063e874747814610165578063f0f44260146101605763f2fde38b1461015b57600080fd5b6111d9565b611128565b6110e8565b611088565b611012565b610fe3565b610ed9565b610e79565b610e50565b610e14565b610dde565b610d2c565b610d0e565b610cf0565b610c86565b610af4565b610ab8565b610a8f565b6109b9565b610990565b610972565b6107bc565b610740565b610714565b610626565b6103d2565b6102de565b610253565b610202565b6001600160a01b038116036101fd57565b600080fd5b346101fd5760403660031901126101fd57602061024a602435600435610227826101ec565b6000526007835260406000209060018060a01b0316600052602052604060002090565b54604051908152f35b346101fd5760403660031901126101fd576102816004356024359060005260086020526040600020546112c5565b670de0b6b3a76400006102966001548361121c565b0490670de0b6b3a76400006102ad6004548361121c565b049181018091116102d9576102d5916102c59161122f565b6040519081529081906020820190565b0390f35b611206565b346101fd5760003660031901126101fd576020600454604051908152f35b634e487b7160e01b600052604160045260246000fd5b90601f8019910116810190811067ffffffffffffffff82111761033457604052565b6102fc565b67ffffffffffffffff811161033457601f01601f191660200190565b81601f820112156101fd5780359061036c82610339565b9261037a6040519485610312565b828452602083830101116101fd57816000926020809301838601378301015290565b60606003198201126101fd5760043591602435916044359067ffffffffffffffff82116101fd576103cf91600401610355565b90565b6103db3661039c565b91908160005260086020526103f5816040600020546112c5565b6002600080516020611ac88339815191525414610615576104977fdb3ff692232d73122ec4c7169025ae5840570be57eef95c72decce36863418b0916105d96104b86001976002600080516020611ac883398151915255610481898060a01b0361047961046c8b6000526006602052604060002090565b546001600160a01b031690565b161515611778565b6104b36104aa8a54926104a5610497858961121c565b670de0b6b3a7640000900490565b6115aa565b9586928661121c565b61150c565b926104d1816104cc6104976004548761121c565b61122f565b906104eb6104e3836104cc888861122f565b3410156117fd565b610515610502896000526007602052604060002090565b3360009081526020919091526040902090565b61052088825461122f565b9055610536886000526008602052604060002090565b61054188825461122f565b905560005461055a9086906001600160a01b0316611840565b8861056f896000526006602052604060002090565b0161057b83825461122f565b905561058b826104cc878761122f565b34116105f5575b6105a6886000526008602052604060002090565b54916040519586953399879260a094919796959260c0850198855260208501526040840152606083015260808201520152565b0390a46105f36001600080516020611ac883398151915255565b005b61061061060a836104b3886104b3893461150c565b33611840565b610592565b633ee5aeb560e01b60005260046000fd5b346101fd5760203660031901126101fd5760043580600052600660205261065b60018060a01b0360406000205416331461123c565b8060005260086020526040600020546106d95761068f6001610687836000526006602052604060002090565b015415611279565b6106b26106a6826000526006602052604060002090565b60016000918281550155565b7f9e48fdefe80cf4cfb07116358f0025cad1acef007d63b4fa71f7d7eeb9085da4600080a2005b60405162461bcd60e51b8152602060048201526013602482015272537570706c79206d757374206265207a65726f60681b6044820152606490fd5b346101fd5760203660031901126101fd5760043560005260086020526020604060002054604051908152f35b346101fd5760203660031901126101fd5760055460001981146102d95760018101600555600081815260066020526040902080546001600160a01b031916331790558060405160043581527f08dac87b2deb51638131c40c51b8e21ffdb412716195978d2c22798bd2c50e5f60203392a3604051908152602090f35b346101fd576107ca3661039c565b91908160005260086020526040600020548181039081116102d957816107ef916112c5565b6002600080516020611ac88339815191525414610615576104977fdb3ff692232d73122ec4c7169025ae5840570be57eef95c72decce36863418b0916105d961087e6000976002600080516020611ac88339815191525561086760018060a01b0361047961046c8b6000526006602052604060002090565b6104b36104aa600154926104a5610497858961121c565b92610892816104cc6104976004548761121c565b906108b6876108ae6105028b6000526007602052604060002090565b5410156117ba565b6108e5336108ce8a6000526007602052604060002090565b9060018060a01b0316600052602052604060002090565b6108f088825461150c565b9055610906886000526008602052604060002090565b61091188825461150c565b905561092461060a836104b3888861150c565b885461093a9086906001600160a01b0316611840565b6001610950896000526006602052604060002090565b0161095c83825461122f565b90556105a6886000526008602052604060002090565b346101fd5760003660031901126101fd576020600154604051908152f35b346101fd5760403660031901126101fd5760206109b16024356004356112c5565b604051908152f35b346101fd5760203660031901126101fd576004358060005260066020526109ee60018060a01b0360406000205416331461123c565b8060005260066020526001604060002001548015610a5457610a4f7fd9787bf70d3926a4a81c52cba8799d18903ce0132aaa4b7de9e92dc893303a7f9160006001610a43866000526006602052604060002090565b01556102c58133611840565b0390a2005b60405162461bcd60e51b81526020600482015260136024820152724e6f206665657320746f20776974686472617760681b6044820152606490fd5b346101fd5760003660031901126101fd576000546040516001600160a01b039091168152602090f35b346101fd5760203660031901126101fd5760043560005260066020526040806000206001808060a01b0382541691015482519182526020820152f35b346101fd5760a03660031901126101fd57600435610b11816101ec565b60243590608435606435604435610b27836101ec565b600080516020611ae8833981519152549467ffffffffffffffff610b5b60ff604089901c16159767ffffffffffffffff1690565b1680159081610c7e575b6001149081610c74575b159081610c6b575b50610c5a57610bbd9486610bb4600167ffffffffffffffff19600080516020611ae8833981519152541617600080516020611ae883398151915255565b610c1e5761134e565b610bc357005b610bef60ff60401b19600080516020611ae88339815191525416600080516020611ae883398151915255565b604051600181527fc7f505b2f371ae2175ee4913f4499e1f2633a7b5936321eed1cdaeb6115181d290602090a1005b610c556801000000000000000060ff60401b19600080516020611ae8833981519152541617600080516020611ae883398151915255565b61134e565b63f92ee8a960e01b60005260046000fd5b90501538610b77565b303b159150610b6f565b879150610b65565b346101fd5760003660031901126101fd57610c9f6118ba565b600080516020611aa883398151915280546001600160a01b031981169091556000906001600160a01b03167f8be0079c531659141344cd1fd0a4f28419497f9722a3daafe3b4186f6b6457e08280a3005b346101fd5760003660031901126101fd576020600354604051908152f35b346101fd5760003660031901126101fd576020600554604051908152f35b346101fd5760203660031901126101fd57600435610d49816101ec565b610d516118ba565b6001600160a01b03168015610d9957600280546001600160a01b031916821790557f3988ebfb0c33faf605fb350301ca0a21968c8582d29bcbc1fe992b21e81a8e90600080a2005b60405162461bcd60e51b815260206004820152601860248201527f496e76616c6964207665726966696572206164647265737300000000000000006044820152606490fd5b346101fd5760003660031901126101fd57600080516020611aa8833981519152546040516001600160a01b039091168152602090f35b346101fd5760403660031901126101fd576004356024359060005260086020526040600020548181039081116102d9576020916109b1916112c5565b346101fd5760003660031901126101fd576002546040516001600160a01b039091168152602090f35b346101fd5760203660031901126101fd577f9d2a5010795914ccbdd5a4cdee6a9aa2addac5e44443b519897523b67ddfe9fc6020600435610eb86118ba565b610ecc670de0b6b3a7640000821115611519565b80600155604051908152a1005b346101fd5760403660031901126101fd57602435600435610ef9826101ec565b806000526006602052610f1a60018060a01b0360406000205416331461123c565b6001600160a01b038216918215610faa57610f79610f4561046c846000526006602052604060002090565b91610f5a846000526006602052604060002090565b80546001600160a01b0319166001600160a01b03909216919091179055565b6001600160a01b0316907f4d0fd2dd543382b617f686701ffce190e9fcf50af0d3ae941459f3809ef81e68600080a4005b60405162461bcd60e51b815260206004820152601160248201527024b73b30b634b2103732bb9037bbb732b960791b6044820152606490fd5b346101fd5760403660031901126101fd5760206109b160043560243590600052600883526040600020546112c5565b346101fd5760403660031901126101fd57600435602435906000526008602052604060002054908082039182116102d9576110536102c5916102d5936112c5565b6104b3670de0b6b3a764000061106b6001548461121c565b04670de0b6b3a76400006110816004548561121c565b049261150c565b346101fd5760203660031901126101fd577f2bd6994425f2df3f5de2d7a7102cff3e7699e4fbe9d04dc886275d06a8997c7460206004356110c76118ba565b6110db670de0b6b3a7640000821115611519565b80600455604051908152a1005b346101fd5760403660031901126101fd5760043560243567ffffffffffffffff81116101fd576020916111226109b1923690600401610355565b906115aa565b346101fd5760203660031901126101fd57600435611145816101ec565b61114d6118ba565b6001600160a01b0316801561119457600080546001600160a01b031916821781557f7dae230f18360d76a040c81f050aa14eb9d6dc7901b20fc5d855e2a20fe814d19080a2005b60405162461bcd60e51b815260206004820152601860248201527f496e76616c6964207472656173757279206164647265737300000000000000006044820152606490fd5b346101fd5760203660031901126101fd576105f36004356111f9816101ec565b6112016118ba565b611702565b634e487b7160e01b600052601160045260246000fd5b818102929181159184041417156102d957565b919082018092116102d957565b1561124357565b60405162461bcd60e51b815260206004820152600e60248201526d2737ba1031b630b71037bbb732b960911b6044820152606490fd5b1561128057565b60405162461bcd60e51b815260206004820152601860248201527f4d757374207769746864726177206665657320666972737400000000000000006044820152606490fd5b906003546112d3818461121c565b8101928382116102d9578281018091116102d957816112f19161121c565b81018091116102d95782018092116102d9576103cf9160011c61121c565b1561131657565b60405162461bcd60e51b815260206004820152601060248201526f24b73b30b634b2103b32b934b334b2b960811b6044820152606490fd5b939291909261135b611906565b611363611906565b61136c33611702565b611374611906565b61137c611906565b6001600080516020611ac8833981519152556001600160a01b0385169384156114d4577f2bd6994425f2df3f5de2d7a7102cff3e7699e4fbe9d04dc886275d06a8997c74946114607f9d2a5010795914ccbdd5a4cdee6a9aa2addac5e44443b519897523b67ddfe9fc9361143e6114aa9761142760018060a01b0384169b6114058d151561130f565b60018060a01b03166bffffffffffffffffffffffff60a01b6000541617600055565b61143086600155565b61143988600455565b600355565b60018060a01b03166bffffffffffffffffffffffff60a01b6002541617600255565b6114976040519283927f7dae230f18360d76a040c81f050aa14eb9d6dc7901b20fc5d855e2a20fe814d1600080a282526020820190565b0390a16040519081529081906020820190565b0390a17f3988ebfb0c33faf605fb350301ca0a21968c8582d29bcbc1fe992b21e81a8e90600080a2565b60405162461bcd60e51b815260206004820152601060248201526f496e76616c696420747265617375727960801b6044820152606490fd5b919082039182116102d957565b1561152057565b60405162461bcd60e51b815260206004820152601860248201527f46656520726174652065786365656473206d6178696d756d00000000000000006044820152606490fd5b1561156c57565b60405162461bcd60e51b8152602060048201526016602482015275496e76616c6964207369676e6174757265206461746160501b6044820152606490fd5b815180156116fa576060036116b5576020820151604083015191670de0b6b3a76400008211611678576116736116566103cf95610497956116516116496040516020810190611617816116098c8c869091604092825260208201520190565b03601f198101835282610312565b5190207f19457468657265756d205369676e6564204d6573736167653a0a333200000000600052601c52603c60002090565b809214611565565b6118f0565b6002546001600160a01b03166001600160a01b039091161461130f565b61121c565b60405162461bcd60e51b81526020600482015260156024820152740a4caeec2e4c840e4c2e8d2de40e8dede40d0d2ced605b1b6044820152606490fd5b60405162461bcd60e51b815260206004820152601860248201527f496e76616c6964207369676e6174757265206c656e67746800000000000000006044820152606490fd5b505050600090565b6001600160a01b0316801561176257600080516020611aa883398151915280546001600160a01b0319811683179091556001600160a01b03167f8be0079c531659141344cd1fd0a4f28419497f9722a3daafe3b4186f6b6457e0600080a3565b631e4fbdf760e01b600052600060045260246000fd5b1561177f57565b60405162461bcd60e51b815260206004820152601360248201527210db185b88191bd95cc81b9bdd08195e1a5cdd606a1b6044820152606490fd5b156117c157565b60405162461bcd60e51b8152602060048201526014602482015273496e73756666696369656e742062616c616e636560601b6044820152606490fd5b1561180457565b60405162461bcd60e51b8152602060048201526014602482015273125b9cdd59999a58da595b9d081c185e5b595b9d60621b6044820152606490fd5b8147106118a1576000918291829182916001600160a01b03165af13d1561189c573d61186b81610339565b906118796040519283610312565b8152600060203d92013e5b1561188b57565b63d6bda27560e01b60005260046000fd5b611884565b504763cf47918160e01b60005260045260245260446000fd5b600080516020611aa8833981519152546001600160a01b031633036118db57565b63118cdaa760e01b6000523360045260246000fd5b6103cf916118fd91611934565b90929192611990565b60ff600080516020611ae88339815191525460401c161561192357565b631afcd79f60e31b60005260046000fd5b81519190604183036119655761195e92506020820151906060604084015193015160001a90611a12565b9192909190565b505060009160029190565b6004111561197a57565b634e487b7160e01b600052602160045260246000fd5b61199981611970565b806119a2575050565b6119ab81611970565b600181036119c45763f645eedf60e01b60005260046000fd5b6119cd81611970565b600281036119ea575063fce698f760e01b60005260045260246000fd5b806119f6600392611970565b146119fe5750565b6335e2f38360e21b60005260045260246000fd5b91907f7fffffffffffffffffffffffffffffff5d576e7357a4501ddfe92f46681b20a08411611a9b579160209360809260ff60009560405194855216868401526040830152606082015282805260015afa15611a8f576000516001600160a01b03811615611a835790600090600090565b50600090600190600090565b6040513d6000823e3d90fd5b5050506000916003919056fe9016d09d72d40fdae2fd8ceac6b6234c7706214fd39c1cd1e609a0528c1993009b779b17422d0df92223018b32b4d1fa46e071723d6817e2486d003becc55f00f0c57e16840df040f15088dc2f81fe391c3923bec73e23a9662efc9c229c6a00a2646970667358221220242078175c987dde4001ea0395b4bc38d088bdb8bb74a4c5e3c8f09df5c10af764736f6c634300081c0033",
  "linkReferences": {},
  "deployedLinkReferences": {}
}