{
  "_format": "hh-sol-artifact-1",
  "contractName": "ClanEmblems",
  "sourceName": "contracts/social/ClanEmblems.sol",
  "abi": [
    {
      "inputs": [],
      "name": "ECDSAInvalidSignature",
      "type": "error"
    },
    {
      "inputs": [
        {
          "internalType": "uint256",
          "name": "length",
          "type": "uint256"
        }
      ],
      "name": "ECDSAInvalidSignatureLength",
      "type": "error"
    },
    {
      "inputs": [
        {
          "internalType": "bytes32",
          "name": "s",
          "type": "bytes32"
        }
      ],
      "name": "ECDSAInvalidSignatureS",
      "type": "error"
    },
    {
      "inputs": [],
      "name": "FailedCall",
      "type": "error"
    },
    {
      "inputs": [
        {
          "internalType": "uint256",
          "name": "balance",
          "type": "uint256"
        },
        {
          "internalType": "uint256",
          "name": "needed",
          "type": "uint256"
        }
      ],
      "name": "InsufficientBalance",
      "type": "error"
    },
    {
      "inputs": [],
      "name": "InvalidInitialization",
      "type": "error"
    },
    {
      "inputs": [],
      "name": "NotInitializing",
      "type": "error"
    },
    {
      "inputs": [
        {
          "internalType": "address",
          "name": "owner",
          "type": "address"
        }
      ],
      "name": "OwnableInvalidOwner",
      "type": "error"
    },
    {
      "inputs": [
        {
          "internalType": "address",
          "name": "account",
          "type": "address"
        }
      ],
      "name": "OwnableUnauthorizedAccount",
      "type": "error"
    },
    {
      "inputs": [],
      "name": "ReentrancyGuardReentrantCall",
      "type": "error"
    },
    {
      "anonymous": false,
      "inputs": [
        {
          "indexed": true,
          "internalType": "uint256",
          "name": "clanId",
          "type": "uint256"
        },
        {
          "indexed": true,
          "internalType": "address",
          "name": "owner",
          "type": "address"
        }
      ],
      "name": "ClanCreated",
      "type": "event"
    },
    {
      "anonymous": false,
      "inputs": [
        {
          "indexed": true,
          "internalType": "uint256",
          "name": "clanId",
          "type": "uint256"
        }
      ],
      "name": "ClanDeleted",
      "type": "event"
    },
    {
      "anonymous": false,
      "inputs": [
        {
          "indexed": false,
          "internalType": "uint256",
          "name": "rate",
          "type": "uint256"
        }
      ],
      "name": "ClanFeeRateUpdated",
      "type": "event"
    },
    {
      "anonymous": false,
      "inputs": [
        {
          "indexed": true,
          "internalType": "uint256",
          "name": "clanId",
          "type": "uint256"
        },
        {
          "indexed": true,
          "internalType": "address",
          "name": "previousOwner",
          "type": "address"
        },
        {
          "indexed": true,
          "internalType": "address",
          "name": "newOwner",
          "type": "address"
        }
      ],
      "name": "ClanOwnershipTransferred",
      "type": "event"
    },
    {
      "anonymous": false,
      "inputs": [
        {
          "indexed": true,
          "internalType": "uint256",
          "name": "clanId",
          "type": "uint256"
        },
        {
          "indexed": false,
          "internalType": "uint256",
          "name": "amount",
          "type": "uint256"
        }
      ],
      "name": "FeesWithdrawn",
      "type": "event"
    },
    {
      "anonymous": false,
      "inputs": [
        {
          "indexed": true,
          "internalType": "address",
          "name": "verifier",
          "type": "address"
        }
      ],
      "name": "HoldingVerifierUpdated",
      "type": "event"
    },
    {
      "anonymous": false,
      "inputs": [
        {
          "indexed": false,
          "internalType": "uint64",
          "name": "version",
          "type": "uint64"
        }
      ],
      "name": "Initialized",
      "type": "event"
    },
    {
      "anonymous": false,
      "inputs": [
        {
          "indexed": true,
          "internalType": "address",
          "name": "previousOwner",
          "type": "address"
        },
        {
          "indexed": true,
          "internalType": "address",
          "name": "newOwner",
          "type": "address"
        }
      ],
      "name": "OwnershipTransferred",
      "type": "event"
    },
    {
      "anonymous": false,
      "inputs": [
        {
          "indexed": false,
          "internalType": "uint256",
          "name": "rate",
          "type": "uint256"
        }
      ],
      "name": "ProtocolFeeRateUpdated",
      "type": "event"
    },
    {
      "anonymous": false,
      "inputs": [
        {
          "indexed": true,
          "internalType": "address",
          "name": "trader",
          "type": "address"
        },
        {
          "indexed": true,
          "internalType": "uint256",
          "name": "clanId",
          "type": "uint256"
        },
        {
          "indexed": true,
          "internalType": "bool",
          "name": "isBuy",
          "type": "bool"
        },
        {
          "indexed": false,
          "internalType": "uint256",
          "name": "amount",
          "type": "uint256"
        },
        {
          "indexed": false,
          "internalType": "uint256",
          "name": "price",
          "type": "uint256"
        },
        {
          "indexed": false,
          "internalType": "uint256",
          "name": "protocolFee",
          "type": "uint256"
        },
        {
          "indexed": false,
          "internalType": "uint256",
          "name": "clanFee",
          "type": "uint256"
        },
        {
          "indexed": false,
          "internalType": "uint256",
          "name": "holdingReward",
          "type": "uint256"
        },
        {
          "indexed": false,
          "internalType": "uint256",
          "name": "supply",
          "type": "uint256"
        }
      ],
      "name": "TradeExecuted",
      "type": "event"
    },
    {
      "anonymous": false,
      "inputs": [
        {
          "indexed": true,
          "internalType": "address",
          "name": "treasury",
          "type": "address"
        }
      ],
      "name": "TreasuryUpdated",
      "type": "event"
    },
    {
      "inputs": [
        {
          "internalType": "uint256",
          "name": "",
          "type": "uint256"
        },
        {
          "internalType": "address",
          "name": "",
          "type": "address"
        }
      ],
      "name": "balance",
      "outputs": [
        {
          "internalType": "uint256",
          "name": "",
          "type": "uint256"
        }
      ],
      "stateMutability": "view",
      "type": "function"
    },
    {
      "inputs": [
        {
          "internalType": "uint256",
          "name": "clanId",
          "type": "uint256"
        },
        {
          "internalType": "uint256",
          "name": "amount",
          "type": "uint256"
        },
        {
          "internalType": "bytes",
          "name": "holdingRewardSignature",
          "type": "bytes"
        }
      ],
      "name": "buy",
      "outputs": [],
      "stateMutability": "payable",
      "type": "function"
    },
    {
      "inputs": [
        {
          "internalType": "uint256",
          "name": "baseAmount",
          "type": "uint256"
        },
        {
          "internalType": "bytes",
          "name": "signature",
          "type": "bytes"
        }
      ],
      "name": "calculateHoldingReward",
      "outputs": [
        {
          "internalType": "uint256",
          "name": "",
          "type": "uint256"
        }
      ],
      "stateMutability": "view",
      "type": "function"
    },
    {
      "inputs": [],
      "name": "clanFeeRate",
      "outputs": [
        {
          "internalType": "uint256",
          "name": "",
          "type": "uint256"
        }
      ],
      "stateMutability": "view",
      "type": "function"
    },
    {
      "inputs": [
        {
          "internalType": "uint256",
          "name": "",
          "type": "uint256"
        }
      ],
      "name": "clans",
      "outputs": [
        {
          "internalType": "address",
          "name": "owner",
          "type": "address"
        },
        {
          "internalType": "uint256",
          "name": "accumulatedFees",
          "type": "uint256"
        }
      ],
      "stateMutability": "view",
      "type": "function"
    },
    {
      "inputs": [],
      "name": "createClan",
      "outputs": [
        {
          "internalType": "uint256",
          "name": "clanId",
          "type": "uint256"
        }
      ],
      "stateMutability": "nonpayable",
      "type": "function"
    },
    {
      "inputs": [
        {
          "internalType": "uint256",
          "name": "clanId",
          "type": "uint256"
        }
      ],
      "name": "deleteClan",
      "outputs": [],
      "stateMutability": "nonpayable",
      "type": "function"
    },
    {
      "inputs": [
        {
          "internalType": "uint256",
          "name": "clanId",
          "type": "uint256"
        },
        {
          "internalType": "uint256",
          "name": "amount",
          "type": "uint256"
        }
      ],
      "name": "getBuyPrice",
      "outputs": [
        {
          "internalType": "uint256",
          "name": "",
          "type": "uint256"
        }
      ],
      "stateMutability": "view",
      "type": "function"
    },
    {
      "inputs": [
        {
          "internalType": "uint256",
          "name": "clanId",
          "type": "uint256"
        },
        {
          "internalType": "uint256",
          "name": "amount",
          "type": "uint256"
        }
      ],
      "name": "getBuyPriceAfterFee",
      "outputs": [
        {
          "internalType": "uint256",
          "name": "",
          "type": "uint256"
        }
      ],
      "stateMutability": "view",
      "type": "function"
    },
    {
      "inputs": [
        {
          "internalType": "uint256",
          "name": "_supply",
          "type": "uint256"
        },
        {
          "internalType": "uint256",
          "name": "amount",
          "type": "uint256"
        }
      ],
      "name": "getPrice",
      "outputs": [
        {
          "internalType": "uint256",
          "name": "",
          "type": "uint256"
        }
      ],
      "stateMutability": "view",
      "type": "function"
    },
    {
      "inputs": [
        {
          "internalType": "uint256",
          "name": "clanId",
          "type": "uint256"
        },
        {
          "internalType": "uint256",
          "name": "amount",
          "type": "uint256"
        }
      ],
      "name": "getSellPrice",
      "outputs": [
        {
          "internalType": "uint256",
          "name": "",
          "type": "uint256"
        }
      ],
      "stateMutability": "view",
      "type": "function"
    },
    {
      "inputs": [
        {
          "internalType": "uint256",
          "name": "clanId",
          "type": "uint256"
        },
        {
          "internalType": "uint256",
          "name": "amount",
          "type": "uint256"
        }
      ],
      "name": "getSellPriceAfterFee",
      "outputs": [
        {
          "internalType": "uint256",
          "name": "",
          "type": "uint256"
        }
      ],
      "stateMutability": "view",
      "type": "function"
    },
    {
      "inputs": [],
      "name": "holdingVerifier",
      "outputs": [
        {
          "internalType": "address",
          "name": "",
          "type": "address"
        }
      ],
      "stateMutability": "view",
      "type": "function"
    },
    {
      "inputs": [
        {
          "internalType": "address payable",
          "name": "_treasury",
          "type": "address"
        },
        {
          "internalType": "uint256",
          "name": "_protocolFeeRate",
          "type": "uint256"
        },
        {
          "internalType": "uint256",
          "name": "_clanFeeRate",
          "type": "uint256"
        },
        {
          "internalType": "uint256",
          "name": "_priceIncrementPerEmblem",
          "type": "uint256"
        },
        {
          "internalType": "address",
          "name": "_holdingVerifier",
          "type": "address"
        }
      ],
      "name": "initialize",
      "outputs": [],
      "stateMutability": "nonpayable",
      "type": "function"
    },
    {
      "inputs": [],
      "name": "nextClanId",
      "outputs": [
        {
          "internalType": "uint256",
          "name": "",
          "type": "uint256"
        }
      ],
      "stateMutability": "view",
      "type": "function"
    },
    {
      "inputs": [],
      "name": "owner",
      "outputs": [
        {
          "internalType": "address",
          "name": "",
          "type": "address"
        }
      ],
      "stateMutability": "view",
      "type": "function"
    },
    {
      "inputs": [],
      "name": "priceIncrementPerEmblem",
      "outputs": [
        {
          "internalType": "uint256",
          "name": "",
          "type": "uint256"
        }
      ],
      "stateMutability": "view",
      "type": "function"
    },
    {
      "inputs": [],
      "name": "protocolFeeRate",
      "outputs": [
        {
          "internalType": "uint256",
          "name": "",
          "type": "uint256"
        }
      ],
      "stateMutability": "view",
      "type": "function"
    },
    {
      "inputs": [],
      "name": "renounceOwnership",
      "outputs": [],
      "stateMutability": "nonpayable",
      "type": "function"
    },
    {
      "inputs": [
        {
          "internalType": "uint256",
          "name": "clanId",
          "type": "uint256"
        },
        {
          "internalType": "uint256",
          "name": "amount",
          "type": "uint256"
        },
        {
          "internalType": "bytes",
          "name": "holdingRewardSignature",
          "type": "bytes"
        }
      ],
      "name": "sell",
      "outputs": [],
      "stateMutability": "nonpayable",
      "type": "function"
    },
    {
      "inputs": [
        {
          "internalType": "uint256",
          "name": "_rate",
          "type": "uint256"
        }
      ],
      "name": "setClanFeeRate",
      "outputs": [],
      "stateMutability": "nonpayable",
      "type": "function"
    },
    {
      "inputs": [
        {
          "internalType": "address",
          "name": "_verifier",
          "type": "address"
        }
      ],
      "name": "setHoldingVerifier",
      "outputs": [],
      "stateMutability": "nonpayable",
      "type": "function"
    },
    {
      "inputs": [
        {
          "internalType": "uint256",
          "name": "_rate",
          "type": "uint256"
        }
      ],
      "name": "setProtocolFeeRate",
      "outputs": [],
      "stateMutability": "nonpayable",
      "type": "function"
    },
    {
      "inputs": [
        {
          "internalType": "address payable",
          "name": "_treasury",
          "type": "address"
        }
      ],
      "name": "setTreasury",
      "outputs": [],
      "stateMutability": "nonpayable",
      "type": "function"
    },
    {
      "inputs": [
        {
          "internalType": "uint256",
          "name": "",
          "type": "uint256"
        }
      ],
      "name": "supply",
      "outputs": [
        {
          "internalType": "uint256",
          "name": "",
          "type": "uint256"
        }
      ],
      "stateMutability": "view",
      "type": "function"
    },
    {
      "inputs": [
        {
          "internalType": "uint256",
          "name": "clanId",
          "type": "uint256"
        },
        {
          "internalType": "address",
          "name": "newOwner",
          "type": "address"
        }
      ],
      "name": "transferClanOwnership",
      "outputs": [],
      "stateMutability": "nonpayable",
      "type": "function"
    },
    {
      "inputs": [
        {
          "internalType": "address",
          "name": "newOwner",
          "type": "address"
        }
      ],
      "name": "transferOwnership",
      "outputs": [],
      "stateMutability": "nonpayable",
      "type": "function"
    },
    {
      "inputs": [],
      "name": "treasury",
      "outputs": [
        {
          "internalType": "address payable",
          "name": "",
          "type": "address"
        }
      ],
      "stateMutability": "view",
      "type": "function"
    },
    {
      "inputs": [
        {
          "internalType": "uint256",
          "name": "clanId",
          "type": "uint256"
        }
      ],
      "name": "withdrawFees",
      "outputs": [],
      "stateMutability": "nonpayable",
      "type": "function"
    }
  ],
  "bytecode": "0x60808060405234601557611b36908161001b8239f35b600080fdfe6080604052600436101561001257600080fd5b60003560e01c806306139934146101e7578063063a741f146101e25780630aa96c74146101dd5780631efd73a5146101d8578063210f32ce146101d357806335403023146101ce57806349a44aa1146101c957806358f85880146101c45780635cf4ee91146101bf5780635e318e07146101ba57806361d027b3146101b557806366469a3a146101b05780636c28e349146101ab578063715018a6146101a6578063741e4395146101a1578063757b81ef1461019c5780637582ae9f146101975780638da5cb5b146101925780639477d85d1461018d5780639dc446d114610188578063b13aa2d614610183578063bf31b5e51461017e578063c157253d14610179578063cd9c712114610174578063df1be9201461016f578063e87474781461016a578063f0f4426014610165578063f2fde38b146101605763f76869b31461015b57600080fd5b61118a565b61115d565b6110ac565b61106c565b61100c565b610f96565b610f67565b610e5d565b610dfd565b610dd4565b610d98565b610d62565b610cb0565b610c92565b610c74565b610c0a565b610a78565b610a3c565b610a13565b61093d565b610914565b6108f6565b610740565b610714565b610626565b6103d2565b6102de565b610253565b610202565b6001600160a01b038116036101fd57565b600080fd5b346101fd5760403660031901126101fd57602061024a602435600435610227826101ec565b6000526007835260406000209060018060a01b0316600052602052604060002090565b54604051908152f35b346101fd5760403660031901126101fd576102816004356024359060005260086020526040600020546112be565b670de0b6b3a764000061029660015483611215565b0490670de0b6b3a76400006102ad60045483611215565b049181018091116102d9576102d5916102c591611228565b6040519081529081906020820190565b0390f35b6111ff565b346101fd5760003660031901126101fd576020600454604051908152f35b634e487b7160e01b600052604160045260246000fd5b90601f8019910116810190811067ffffffffffffffff82111761033457604052565b6102fc565b67ffffffffffffffff811161033457601f01601f191660200190565b81601f820112156101fd5780359061036c82610339565b9261037a6040519485610312565b828452602083830101116101fd57816000926020809301838601378301015290565b60606003198201126101fd5760043591602435916044359067ffffffffffffffff82116101fd576103cf91600401610355565b90565b6103db3661039c565b91908160005260086020526103f5816040600020546112be565b6002600080516020611ac18339815191525414610615576104977fdb3ff692232d73122ec4c7169025ae5840570be57eef95c72decce36863418b0916105d96104b86001976002600080516020611ac183398151915255610481898060a01b0361047961046c8b6000526006602052604060002090565b546001600160a01b031690565b161515611771565b6104b36104aa8a54926104a56104978589611215565b670de0b6b3a7640000900490565b6115a3565b95869286611215565b611505565b926104d1816104cc61049760045487611215565b611228565b906104eb6104e3836104cc8888611228565b3410156117f6565b610515610502896000526007602052604060002090565b3360009081526020919091526040902090565b610520888254611228565b9055610536886000526008602052604060002090565b610541888254611228565b905560005461055a9086906001600160a01b0316611839565b8861056f896000526006602052604060002090565b0161057b838254611228565b905561058b826104cc8787611228565b34116105f5575b6105a6886000526008602052604060002090565b54916040519586953399879260a094919796959260c0850198855260208501526040840152606083015260808201520152565b0390a46105f36001600080516020611ac183398151915255565b005b61061061060a836104b3886104b38934611505565b33611839565b610592565b633ee5aeb560e01b60005260046000fd5b346101fd5760203660031901126101fd5760043580600052600660205261065b60018060a01b03604060002054163314611235565b8060005260086020526040600020546106d95761068f6001610687836000526006602052604060002090565b015415611272565b6106b26106a6826000526006602052604060002090565b60016000918281550155565b7f9e48fdefe80cf4cfb07116358f0025cad1acef007d63b4fa71f7d7eeb9085da4600080a2005b60405162461bcd60e51b8152602060048201526013602482015272537570706c79206d757374206265207a65726f60681b6044820152606490fd5b346101fd5760203660031901126101fd5760043560005260086020526020604060002054604051908152f35b346101fd5761074e3661039c565b91908160005260086020526040600020548181039081116102d95781610773916112be565b6002600080516020611ac18339815191525414610615576104977fdb3ff692232d73122ec4c7169025ae5840570be57eef95c72decce36863418b0916105d96108026000976002600080516020611ac1833981519152556107eb60018060a01b0361047961046c8b6000526006602052604060002090565b6104b36104aa600154926104a56104978589611215565b92610816816104cc61049760045487611215565b9061083a876108326105028b6000526007602052604060002090565b5410156117b3565b610869336108528a6000526007602052604060002090565b9060018060a01b0316600052602052604060002090565b610874888254611505565b905561088a886000526008602052604060002090565b610895888254611505565b90556108a861060a836104b38888611505565b88546108be9086906001600160a01b0316611839565b60016108d4896000526006602052604060002090565b016108e0838254611228565b90556105a6886000526008602052604060002090565b346101fd5760003660031901126101fd576020600154604051908152f35b346101fd5760403660031901126101fd5760206109356024356004356112be565b604051908152f35b346101fd5760203660031901126101fd5760043580600052600660205261097260018060a01b03604060002054163314611235565b80600052600660205260016040600020015480156109d8576109d37fd9787bf70d3926a4a81c52cba8799d18903ce0132aaa4b7de9e92dc893303a7f91600060016109c7866000526006602052604060002090565b01556102c58133611839565b0390a2005b60405162461bcd60e51b81526020600482015260136024820152724e6f206665657320746f20776974686472617760681b6044820152606490fd5b346101fd5760003660031901126101fd576000546040516001600160a01b039091168152602090f35b346101fd5760203660031901126101fd5760043560005260066020526040806000206001808060a01b0382541691015482519182526020820152f35b346101fd5760a03660031901126101fd57600435610a95816101ec565b60243590608435606435604435610aab836101ec565b600080516020611ae1833981519152549467ffffffffffffffff610adf60ff604089901c16159767ffffffffffffffff1690565b1680159081610c02575b6001149081610bf8575b159081610bef575b50610bde57610b419486610b38600167ffffffffffffffff19600080516020611ae1833981519152541617600080516020611ae183398151915255565b610ba257611347565b610b4757005b610b7360ff60401b19600080516020611ae18339815191525416600080516020611ae183398151915255565b604051600181527fc7f505b2f371ae2175ee4913f4499e1f2633a7b5936321eed1cdaeb6115181d290602090a1005b610bd96801000000000000000060ff60401b19600080516020611ae1833981519152541617600080516020611ae183398151915255565b611347565b63f92ee8a960e01b60005260046000fd5b90501538610afb565b303b159150610af3565b879150610ae9565b346101fd5760003660031901126101fd57610c236118b3565b600080516020611aa183398151915280546001600160a01b031981169091556000906001600160a01b03167f8be0079c531659141344cd1fd0a4f28419497f9722a3daafe3b4186f6b6457e08280a3005b346101fd5760003660031901126101fd576020600354604051908152f35b346101fd5760003660031901126101fd576020600554604051908152f35b346101fd5760203660031901126101fd57600435610ccd816101ec565b610cd56118b3565b6001600160a01b03168015610d1d57600280546001600160a01b031916821790557f3988ebfb0c33faf605fb350301ca0a21968c8582d29bcbc1fe992b21e81a8e90600080a2005b60405162461bcd60e51b815260206004820152601860248201527f496e76616c6964207665726966696572206164647265737300000000000000006044820152606490fd5b346101fd5760003660031901126101fd57600080516020611aa1833981519152546040516001600160a01b039091168152602090f35b346101fd5760403660031901126101fd576004356024359060005260086020526040600020548181039081116102d957602091610935916112be565b346101fd5760003660031901126101fd576002546040516001600160a01b039091168152602090f35b346101fd5760203660031901126101fd577f9d2a5010795914ccbdd5a4cdee6a9aa2addac5e44443b519897523b67ddfe9fc6020600435610e3c6118b3565b610e50670de0b6b3a7640000821115611512565b80600155604051908152a1005b346101fd5760403660031901126101fd57602435600435610e7d826101ec565b806000526006602052610e9e60018060a01b03604060002054163314611235565b6001600160a01b038216918215610f2e57610efd610ec961046c846000526006602052604060002090565b91610ede846000526006602052604060002090565b80546001600160a01b0319166001600160a01b03909216919091179055565b6001600160a01b0316907f4d0fd2dd543382b617f686701ffce190e9fcf50af0d3ae941459f3809ef81e68600080a4005b60405162461bcd60e51b815260206004820152601160248201527024b73b30b634b2103732bb9037bbb732b960791b6044820152606490fd5b346101fd5760403660031901126101fd57602061093560043560243590600052600883526040600020546112be565b346101fd5760403660031901126101fd57600435602435906000526008602052604060002054908082039182116102d957610fd76102c5916102d5936112be565b6104b3670de0b6b3a7640000610fef60015484611215565b04670de0b6b3a764000061100560045485611215565b0492611505565b346101fd5760203660031901126101fd577f2bd6994425f2df3f5de2d7a7102cff3e7699e4fbe9d04dc886275d06a8997c74602060043561104b6118b3565b61105f670de0b6b3a7640000821115611512565b80600455604051908152a1005b346101fd5760403660031901126101fd5760043560243567ffffffffffffffff81116101fd576020916110a6610935923690600401610355565b906115a3565b346101fd5760203660031901126101fd576004356110c9816101ec565b6110d16118b3565b6001600160a01b0316801561111857600080546001600160a01b031916821781557f7dae230f18360d76a040c81f050aa14eb9d6dc7901b20fc5d855e2a20fe814d19080a2005b60405162461bcd60e51b815260206004820152601860248201527f496e76616c6964207472656173757279206164647265737300000000000000006044820152606490fd5b346101fd5760203660031901126101fd576105f360043561117d816101ec565b6111856118b3565b6116fb565b346101fd5760003660031901126101fd5760055460001981146102d95760018101600555600081815260066020908152604090912080546001600160a01b03191633179055906040519033817f432469bb9746baefc686d5d2b17805c287d85ddd6549dcf61a92af24f0ccdc60600080a38152f35b634e487b7160e01b600052601160045260246000fd5b818102929181159184041417156102d957565b919082018092116102d957565b1561123c57565b60405162461bcd60e51b815260206004820152600e60248201526d2737ba1031b630b71037bbb732b960911b6044820152606490fd5b1561127957565b60405162461bcd60e51b815260206004820152601860248201527f4d757374207769746864726177206665657320666972737400000000000000006044820152606490fd5b906003546112cc8184611215565b8101928382116102d9578281018091116102d957816112ea91611215565b81018091116102d95782018092116102d9576103cf9160011c611215565b1561130f57565b60405162461bcd60e51b815260206004820152601060248201526f24b73b30b634b2103b32b934b334b2b960811b6044820152606490fd5b93929190926113546118ff565b61135c6118ff565b611365336116fb565b61136d6118ff565b6113756118ff565b6001600080516020611ac1833981519152556001600160a01b0385169384156114cd577f2bd6994425f2df3f5de2d7a7102cff3e7699e4fbe9d04dc886275d06a8997c74946114597f9d2a5010795914ccbdd5a4cdee6a9aa2addac5e44443b519897523b67ddfe9fc936114376114a39761142060018060a01b0384169b6113fe8d1515611308565b60018060a01b03166bffffffffffffffffffffffff60a01b6000541617600055565b61142986600155565b61143288600455565b600355565b60018060a01b03166bffffffffffffffffffffffff60a01b6002541617600255565b6114906040519283927f7dae230f18360d76a040c81f050aa14eb9d6dc7901b20fc5d855e2a20fe814d1600080a282526020820190565b0390a16040519081529081906020820190565b0390a17f3988ebfb0c33faf605fb350301ca0a21968c8582d29bcbc1fe992b21e81a8e90600080a2565b60405162461bcd60e51b815260206004820152601060248201526f496e76616c696420747265617375727960801b6044820152606490fd5b919082039182116102d957565b1561151957565b60405162461bcd60e51b815260206004820152601860248201527f46656520726174652065786365656473206d6178696d756d00000000000000006044820152606490fd5b1561156557565b60405162461bcd60e51b8152602060048201526016602482015275496e76616c6964207369676e6174757265206461746160501b6044820152606490fd5b815180156116f3576060036116ae576020820151604083015191670de0b6b3a764000082116116715761166c61164f6103cf956104979561164a6116426040516020810190611610816116028c8c869091604092825260208201520190565b03601f198101835282610312565b5190207f19457468657265756d205369676e6564204d6573736167653a0a333200000000600052601c52603c60002090565b80921461155e565b6118e9565b6002546001600160a01b03166001600160a01b0390911614611308565b611215565b60405162461bcd60e51b81526020600482015260156024820152740a4caeec2e4c840e4c2e8d2de40e8dede40d0d2ced605b1b6044820152606490fd5b60405162461bcd60e51b815260206004820152601860248201527f496e76616c6964207369676e6174757265206c656e67746800000000000000006044820152606490fd5b505050600090565b6001600160a01b0316801561175b57600080516020611aa183398151915280546001600160a01b0319811683179091556001600160a01b03167f8be0079c531659141344cd1fd0a4f28419497f9722a3daafe3b4186f6b6457e0600080a3565b631e4fbdf760e01b600052600060045260246000fd5b1561177857565b60405162461bcd60e51b815260206004820152601360248201527210db185b88191bd95cc81b9bdd08195e1a5cdd606a1b6044820152606490fd5b156117ba57565b60405162461bcd60e51b8152602060048201526014602482015273496e73756666696369656e742062616c616e636560601b6044820152606490fd5b156117fd57565b60405162461bcd60e51b8152602060048201526014602482015273125b9cdd59999a58da595b9d081c185e5b595b9d60621b6044820152606490fd5b81471061189a576000918291829182916001600160a01b03165af13d15611895573d61186481610339565b906118726040519283610312565b8152600060203d92013e5b1561188457565b63d6bda27560e01b60005260046000fd5b61187d565b504763cf47918160e01b60005260045260245260446000fd5b600080516020611aa1833981519152546001600160a01b031633036118d457565b63118cdaa760e01b6000523360045260246000fd5b6103cf916118f69161192d565b90929192611989565b60ff600080516020611ae18339815191525460401c161561191c57565b631afcd79f60e31b60005260046000fd5b815191906041830361195e5761195792506020820151906060604084015193015160001a90611a0b565b9192909190565b505060009160029190565b6004111561197357565b634e487b7160e01b600052602160045260246000fd5b61199281611969565b8061199b575050565b6119a481611969565b600181036119bd5763f645eedf60e01b60005260046000fd5b6119c681611969565b600281036119e3575063fce698f760e01b60005260045260246000fd5b806119ef600392611969565b146119f75750565b6335e2f38360e21b60005260045260246000fd5b91907f7fffffffffffffffffffffffffffffff5d576e7357a4501ddfe92f46681b20a08411611a94579160209360809260ff60009560405194855216868401526040830152606082015282805260015afa15611a88576000516001600160a01b03811615611a7c5790600090600090565b50600090600190600090565b6040513d6000823e3d90fd5b5050506000916003919056fe9016d09d72d40fdae2fd8ceac6b6234c7706214fd39c1cd1e609a0528c1993009b779b17422d0df92223018b32b4d1fa46e071723d6817e2486d003becc55f00f0c57e16840df040f15088dc2f81fe391c3923bec73e23a9662efc9c229c6a00a2646970667358221220a5c4ea98d690db8837d21603a3dee2c014b49a7948f92a59fcd3018b73c6d6da64736f6c634300081c0033",
  "linkReferences": {},
  "deployedLinkReferences": {}
}